:100000000C948A010C94BB010C94BB010C94BB01B1
:100010000C94BB010C94BB010C94BB010C94BB0170
:100020000C94BB010C94BB010C94BB010C94BB0160
:100030000C94BB010C94BB010C94BB010C94BB0150
:100040000C94BB010C94BB010C94BB010C94BB0140
:100050000C94BB010C94BB010C94BB010C944B158C
:100060000C94BB010C94BB010C94BB010C94BB0120
:100070000C94BB010C94BB010C94BB010C94BB0110
:100080000C94BB010C94BB010C94BB010C94BB0100
:100090000C94BB010C94BB010C94BB010C94BB01F0
:1000A0000C94BB010C94BB010C94BB010C94BB01E0
:1000B0000C94BB010C94BB010C94BB010C94BB01D0
:1000C0000C94BB010C94BB010C94BB010C94BB01C0
:1000D0000C94BB010C94BB010C94BB010C94BB01B0
:1000E0000C94BB014F045204410445044B048904A1
:1000F00056045A046004640468046E0472047604AE
:1001000089047C04800484040C9464040C947204B8
:100110000C9422090C94370F0C94B9120C94AF0C68
:100120000C945A040C94700F0C9459100C94DB101E
:100130000C9421090C94E60F0C946D0F0C94960D01
:100140000C948F090C94420F0C9468040C94840452
:100150000C946E040C94DF100C9460040C944A0F01
:100160000C94B8100C941E0F0C94730F0C944B0F3E
:100170000C9445040C942E0F0C9489040C94BF0D20
:100180000C94F6080C9441040C941A1C0C94520420
:100190000C94880E0C9495110C943B0A0C9438091D
:1001A0000C946B0F0C94F1090C94F7080C948004D8
:1001B0000C94261C0C94F9100C9456040C94770D96
:1001C0000C9448110C9476040C9467100C94820AD9
:1001D0000C94610F0C944B040C94160F0C94201289
:1001E0000C941A0F0C947C040C9494100C944F04EF
:1001F000000020002300260029002C002F003200E0
:100200000001000003010601090100002200250091
:1002100028002B002E0031003400020100000501EF
:1002200008010B0100000A0B02090C0D0E08070360
:1002300004010000000000000000000000000000B9
:1002400000000000000000000000000000000000AE
:10025000121110000000000000000000000000006B
:100260000000000000000000000000002100240049
:1002700027002A002D003000330001010000040196
:1002800007010A0101021020200808102040102058
:10029000408002010201080402010102040810204A
:1002A0004080804020100804020180040201804048
:1002B00020100804020108040201010204081020B1
:1002C000408001020408102040800505050507054F
:1002D00008080808020202020A0A080804040404C2
:1002E00001010101010101010303030303030303EE
:1002F000040707070C0C0C0C0C0C0C0C020202027D
:1003000006060606060606060B0B0B0B0B0B0B0B65
:10031000261C1A1C11241FBECFEFD1E2DEBFCDBFB9
:1003200000E00CBF14E0A0E0B2E0EEE8F5E400E08D
:100330000BBF02C007900D92A232B107D9F726E099
:10034000A2E2B4E001C01D92A533B207E1F711E0CB
:10035000C9E8D1E000E006C021970109802FFE0125
:100360000E947F1DC838D10780E00807A9F70E94C6
:1003700095150C94B5220C9400003FB7F894809129
:100380006B0490916C04A0916D04B0916E0426B53D
:10039000A89B05C02F3F19F00196A11DB11D3FBFBD
:1003A000BA2FA92F982F8827820F911DA11DB11D4B
:1003B000BC01CD0142E0660F771F881F991F4A9547
:1003C000D1F708954F925F926F927F928F929F9292
:1003D000AF92BF92CF92DF92EF92FF920F931F9353
:1003E000CF93DF931F921F92CDB7DEB75C0180EDF4
:1003F00094E00E94CC1481113AC036C08C01CE0129
:1004000001960E94CC14882379F1C80101962981B4
:10041000F70121937F01422F4F7750E0449DB001B7
:10042000459D700D549D700D1124C60ED71E47E0DA
:10043000440C551C661C771C4A95D1F727FF27C032
:1004400086309105D9F68FEF9FEF90936A058093E0
:1004500069058091CE049091CF04DC01ED91FC916F
:100460000488F589E02D199580E090E08EC0909089
:10047000D004198281EDE82E84E0F82E01E010E02E
:10048000C12CD12C412C512C32014394B8CFF92DE1
:10049000F07FFA832FEF280FD5012C93F03319F555
:1004A00080539B4F0E94CC148823F1F2C8018E52D6
:1004B0009B4F0E94CC148823B9F2C8010396D50142
:1004C000EC91F0E0E253FB4FE380F12CFE2CEE24A4
:1004D0002481E20EF11C2091D00421FF08C0B2E07B
:1004E000EB0EF11C04C020E0E12CF12C01C022E055
:1004F000422E512CFC01E253FB4F4F018C01481A54
:10050000590A2EEF622E77247A94C801840D951D26
:100510008C159D0578F5CE0101960E94CC14882398
:1005200009F4A2CF80916705909168050097B1F01A
:10053000FA81F03399F4D5012C91F301E21BF10912
:100540009F01200F311FE216F30640F4DC01ED910C
:10055000FC910190F081E02D698119950038110519
:1005600018F48981F40182830F5F1F4FFFEF8F1A08
:100570009F0ACBCF8091670590916805892B21F464
:100580000138110508F070CFC8010F900F90DF916E
:10059000CF911F910F91FF90EF90DF90CF90BF9080
:1005A000AF909F908F907F906F905F904F90089545
:1005B00020E5FC01208311820895FC018281938152
:1005C000A481B58180935F0590936005A093610538
:1005D000B09362058BE597E090936605809365057F
:1005E00010926405109263058EEC94E00895CF9309
:1005F000C82F462F61E070E00E94021161E070E0B8
:100600008C2F0E940C118111F9CFCF9108959F92E8
:10061000AF92BF92CF92DF92EF92FF920F931F9310
:10062000CF93DF93982E8B015A01690164E270E049
:100630000E940C11E82EF12C65E270E0892D0E94D9
:100640000C11FE2CEE24E82AE801CE0DDF1D9E01E0
:100650003770E92CF12CC701880F991FAC01415963
:100660005B4F7A01FA0180819181820F931FA9016A
:100670004C0D5D1D4130584090F000E018E0021B29
:10068000130BA801B5010E942D0CA601401B510BB4
:10069000B501600F711FF7018081918102C0A60131
:1006A000B5010E942D0CCC0DDD1D4D2F64E270E0D4
:1006B000892D0E9402114C2F65E270E0892DDF9197
:1006C000CF911F910F91FF90EF90DF90CF90BF904F
:1006D000AF909F900C940211FF920F931F93CF93B2
:1006E000DF93F82E00E010E08F2D0E94DE0BEC016E
:1006F000892B21F08F2D0E94DE0B8C01C017D107B2
:1007000099F7CE01DF91CF911F910F91FF9008953E
:10071000AF92BF92CF92DF92EF92FF920F931F930F
:10072000CF93DF931F921F92CDB7DEB77A83698391
:10073000BA01A901E981FA81F770082F10E0000FD2
:10074000111F09581B4FD8018D919C918E0F9F1F2F
:100750009F01240F351F21303840A0F07A015B0142
:1007600060E078E06B01CE1ADF0AA601B5010E94B5
:10077000FD0BA7014C195D09B5016C0D7D1DF8013C
:10078000808191810F900F90DF91CF911F910F91F8
:10079000FF90EF90DF90CF90BF90AF900C94FD0B47
:1007A000FC018485843011F00C94F70E80E00895EC
:1007B0008F929F92AF92BF92EF92FF920F931F93EF
:1007C000CF93DF93CDB7DEB7A1970FB6F894DEBF16
:1007D0000FBECDBF7C01FA01CB0119A2223008F473
:1007E0002AE08E010F5D1F4F822E912CA12CB12C7F
:1007F000BF01A50194010E945D1DF901CA010150CC
:1008000011096A3014F4605D01C0695CD8016C9311
:10081000232B242B252B61F70115110591F0F801ED
:1008200001900020E9F73197AF01401B510BD70130
:10083000ED91FC910280F381E02DB801C70119957B
:1008400002C080E090E0A1960FB6F894DEBF0FBE24
:10085000CDBFDF91CF911F910F91FF90EF90BF908F
:10086000AF909F908F90089590E0FC013197E23116
:10087000F10508F04EC08827EE58FF4F8F4F0C94BB
:100880007F1D809180008F7703C0809180008F7DD5
:1008900080938000089580918000877FF9CF84B590
:1008A0008F7702C084B58F7D84BD08958091B0009C
:1008B0008F7703C08091B0008F7D8093B000089542
:1008C000809190008F7707C0809190008F7D03C04A
:1008D00080919000877F8093900008958091A00080
:1008E0008F7707C08091A0008F7D03C08091A0000A
:1008F000877F8093A0000895809120018F7707C0A3
:10090000809120018F7D03C080912001877F80939B
:10091000200108951F93CF93DF93282F30E0F90132
:10092000EC5DFD4F8491F901EC57FD4FD491F90135
:10093000E653FD4FC491CC23C1F0162F81110E94C4
:100940003404EC2FF0E0EE0FFF1FE65FFD4FA591A2
:10095000B4919FB7F894111104C08C91D095D8230D
:1009600002C0EC91DE2BDC939FBFDF91CF911F91F2
:100970000895CF93DF9390E0FC01EC57FD4F249155
:10098000FC01E653FD4F8491882361F190E0880FCC
:10099000991FFC01E659FD4FC591D491FC01E65F1A
:1009A000FD4FA591B491611109C09FB7F89488815A
:1009B000209582238883EC912E230BC0623061F452
:1009C0009FB7F8948881322F309583238883EC91E8
:1009D0002E2B2C939FBF06C08FB7F894E8812E2B47
:1009E00028838FBFDF91CF9108958F929F92AF920E
:1009F000BF92CF92DF92EF92FF926B017C010E9437
:100A0000BD014B015C01C114D104E104F104F1F01A
:100A10000E94BD01DC01CB0188199909AA09BB0913
:100A2000883E9340A105B10570F321E0C21AD108B8
:100A3000E108F10888EE880E83E0981EA11CB11C25
:100A4000C114D104E104F10419F7DDCFFF90EF9058
:100A5000DF90CF90BF90AF909F908F900895CF92EE
:100A6000DF92EF92FF920F931F93CF93DF93CDB757
:100A7000DEB7C454D1090FB6F894DEBF0FBECDBFA8
:100A8000FC0182819381A481B58123968CAF9DAFB7
:100A9000AEAFBFAF239721E023962FAF23972396C6
:100AA0004CAD5DAD6EAD7FAD23974BAB5CAB6DAB2D
:100AB0007EAB89AF9AAFABAFBCAF8DA79EA7AFA7F8
:100AC000B8AB28AB4DA55EA56FA578A94FA358A7D5
:100AD00069A77AA72EAB4BA95CA96DA97EA949A3EA
:100AE0005AA36BA37CA38B8F9C8FAD8FBE8F45E2E7
:100AF00053E05C8B4B8B3FEF3D8B3E8B3F8B188ED7
:100B00005E874D872AA7CFA0D8A4E9A4FAA4CF86F0
:100B1000D88AE98AFA8A2CA309A11AA12BA13CA19F
:100B200009871A872B873C875A8349838B839C8349
:100B3000AD83BE836CE271E080E090E00E94F5043A
:100B40001FB7F89480917F04811127C0EFEFF2E086
:100B50008491E9EBF2E09491E82FF0E0EE0FFF1FB3
:100B6000E659FD4FA591B491EC91E92321F461E0A0
:100B700085E30E948A0461E085E30E94B9048CB594
:100B800080618CBD8CB580648CBD61E084E30E9483
:100B9000B90461E083E30E94B90480917F048F5F10
:100BA00080937F041FBF249ACE018D5B9F4F0E94CC
:100BB000D80225968EAD9FAD25970E94451160E81D
:100BC00080E090E00E945C0C65E58BE190E00E9483
:100BD0005C0C65E58AE190E00E945C0C0E94441187
:100BE00080E090E49093700480936F0480E090E63E
:100BF000909378048093770480E098E49093720453
:100C00008093710480E098E690937A04809379044D
:100C100080E090E5909374048093730480E090E703
:100C200090937C0480937B0480E098E59093760415
:100C30008093750480E098E790937E0480937D0410
:100C4000CE018D5B9F4F0E94D80225968EAD9FAD41
:100C500025970E94451146E050E060E472E089E08B
:100C600090E00E942D0C44E050E0BE016D5F7F4F8C
:100C70008FE090E00E942D0C44E050E0BE01615FE7
:100C80007F4F81E090E00E942D0C44E050E0BE01D7
:100C90006B5E7F4F85E090E00E942D0C0E94441116
:100CA00081E08C8789859A85AB85BC858093BC045F
:100CB0009093BD04A093BE04B093BF04CC5BDF4F00
:100CC0000FB6F894DEBF0FBECDBFDF91CF911F915D
:100CD0000F91FF90EF90DF90CF9008952FB7F89489
:100CE00060916704709168048091690490916A042E
:100CF0002FBF08954F925F926F927F928F929F9233
:100D0000AF92BF92CF92DF92EF92FF920F931F9319
:100D1000CF93DF93CDB7DEB763970FB6F894DEBFFE
:100D20000FBECDBF7C015B013A01FB0120E080E0FA
:100D300090E06AE03191332309F140ED430F4A30EE
:100D400080F4689FA001699F500D1124CA01C097CB
:100D5000830F911D37FD9A958F3F910559F350F3FD
:100D600013C03E3289F4233079F0D301A20FB11DB4
:100D700012968C932F5F80E090E0DCCF233021F43B
:100D8000F301858381E021C0F701428153816481B1
:100D900075818091B6049091B704A091B804B09188
:100DA000B904481759076A077B0709F495C10E94DF
:100DB0006E068701085F1F4F6F7077277C5FC80141
:100DC0000E946710813019F080E090E0F8C185E260
:100DD00093E09A838983F70182819381A481B5810D
:100DE0008B839C83AD83BE8345E350E0BE016F5F80
:100DF0007F4FC8010E943B0A892B19F4C12CD12CCA
:100E000066C10E946E06F70177836683762767279F
:100E100076277A83698342E050E0BE016F5F7F4F9F
:100E2000C8010E94820A81E090E09E878D8742E09F
:100E300050E0BE01635F7F4FC8010E94820A80E0DC
:100E400091E09E878D8742E050E0BE01635F7F4F57
:100E5000C8010E94820A1E861D8642E050E0BE0143
:100E6000635F7F4FC8010E94820A42E050E0BE01EA
:100E7000635F7F4FC8010E94820A42E050E0BE01DA
:100E8000635F7F4FC8010E94820A4501F50180819E
:100E9000882301F164015601F60181912F01882315
:100EA00021F08E3211F06201F6CFC818D9081C1457
:100EB0001D0474F4CF8641E050E0BE01615F7F4FB6
:100EC000C8010E94820AA601B401C8010E94820AD8
:100ED0004201DCCF1F8641E050E0BE01615F7F4FE1
:100EE000C8010E94820AC12CDD24D394DE86CD86FF
:100EF00042E050E0BE01635F7F4FC8010E94820A5A
:100F0000DE86CD8642E050E0BE01635F7F4FC801C0
:100F10000E94820AC8010E94F109892B09F46ECF50
:100F2000E3E0AE2EB12C230122E0420E511C0E94C0
:100F30006E063B014C01C8010E94BF0D1816190630
:100F4000A4F00E946E06DC01CB0186199709A8095E
:100F5000B90989389341A105B105D0F462E370E085
:100F600080E090E00E94F504E6CFF70142815381D2
:100F700064817581808D918DA28DB38D481759073D
:100F80006A077B0749F4848D958DC59729F409C0BC
:100F9000CC24CA94DC2C92C05EEFC52EDD24DA94FA
:100FA0008DC0F70181A192A10C970CF49DC04CE07B
:100FB00050E0BE016F5F7F4FC8010E94770D8B81AB
:100FC0009C819827892798279A8B898B29813A8138
:100FD000322723273227F701468157812417350707
:100FE00009F07DC097FF7BC08F709270892B09F04C
:100FF000E1C06F80788476246724762461147104BC
:1010000009F4D3C0C12CD12C8D819E8198278927CA
:101010009827C816D90608F46CC0812C912C41E0A1
:1010200050E0BE016D5E7F4FC8010E94770D8B8935
:10103000982F907C09F08FC0811183C042E050E06E
:10104000BE01615F7F4FC8010E94770D42E050E012
:10105000BE01635F7F4FC8010E94770DC8010E94E7
:10106000960DC8010E94960DC8010E94960DC801F8
:101070000E94960D42E050E0BE016F5E7F4FC801B6
:101080000E94770D8F8598898115914009F06BC07A
:10109000CD84DE84DC24CD24DC2481E0C816D10498
:1010A00009F061C089899A898115944009F078C056
:1010B00044E050E0B201C8010E94770D81E0A81A17
:1010C000B10829F0FFEFCF16DF0609F430CFC801D1
:1010D0000E945910C60173C08EEF9FEF70C04CEF95
:1010E000C42EDD24DA94EACF9DEFC92EDD24DA94F4
:1010F000E5CF41E050E0BE01635F7F4FC8010E9431
:10110000770D8D85882351F08D859FEF980F9D87F2
:10111000882321F0C8010E94960DF6CF8D8581119C
:10112000E8CFC8010E94960DC8010E94960DC80123
:101130000E94960DC8010E94960DFFEFCF1ADF0A9C
:1011400063CF8B899FEF980F9B8B882341F0C80159
:101150000E94960DF6CFC8010E94960D1B8A8B89BE
:1011600081115DCF6BCFC12CD12C89899A899827A9
:1011700089279827C816D90638F4C8010E94960D09
:10118000FFEFCF1ADF0AF1CF2FEF821A920A68140D
:10119000790409F044CF26EFC22EDD24DA948ECFF5
:1011A00077EFC72EDD24DA9489CF3AEFC32EDD2402
:1011B000DA9484CF8BEFC82EDD24DA947FCF639648
:1011C0000FB6F894DEBF0FBECDBFDF91CF911F9158
:1011D0000F91FF90EF90DF90CF90BF90AF909F90D6
:1011E0008F907F906F905F904F9008950895CF9269
:1011F000DF92EF92FF920F931F93CF93DF936C01D7
:101200007A018B01C0E0D0E0CE15DF0581F0D80176
:101210006D918D01D601ED91FC910190F081E02D51
:10122000C6011995892B11F02196EECF7E01C701D9
:10123000DF91CF911F910F91FF90EF90DF90CF90B2
:1012400008950895CF93DF931F92CDB7DEB76983DA
:10125000DC01ED91FC910280F381E02D41E050E052
:10126000BE016F5F7F4F19950F90DF91CF91089569
:101270000E948D1F0F931F93CF93DF93EC01888102
:101280009981009729F02A813B812617370788F436
:101290008B016F5F7F4F0E94A81E009761F09983BA
:1012A00088831B830A832C813D81232B11F4FC014D
:1012B000108281E001C080E0DF91CF911F910F91FA
:1012C0000895EF92FF920F931F93CF93DF936115D1
:1012D000710511F480E01CC041155105C1F07B017E
:1012E000EC018C819D818A01080F191FB801CE0184
:1012F0000E943A09882371F3288139818C819D816C
:10130000B701820F931F0E94B61F1D830C8381E0DB
:10131000DF91CF911F910F91FF90EF9008958F92E1
:101320009F92AF92BF92CF92DF92EF92FF920F9374
:101330001F93CF93DF937C01EB016C0182E0C80E19
:10134000D11C4701E5E08E0E911C00E010E0F60193
:1013500041916F0150E060E070E02AE0CE010E9410
:10136000D8035C01E881F9810190F081E02D6EE203
:10137000CE0119958A0D9B1D080F191F8C149D0411
:1013800031F7F701458150E060E070E02AE0CE01DE
:101390000E94D803800F911FDF91CF911F910F9171
:1013A000FF90EF90DF90CF90BF90AF909F908F9085
:1013B00008951F93CF93DF93182F66E270E00E9489
:1013C0000C11C82FD0E067E270E0812F0E940C1151
:1013D000DC2FCC279E01282BC901DF91CF911F91D3
:1013E00008951F93CF93DF931F921F92CDB7DEB75F
:1013F000FC01108DCE0101960E94D80289819A814C
:101400000E94451160E270E0812F0E94F70262E0C5
:1014100070E0812F0E940C1184FD1DC062E070E01D
:10142000812F0E940C1183FF0BC048E162E070E045
:10143000812F0E9402110E94441180E090E015C0AB
:101440000E944411CE0101960E94D80289819A819E
:101450000E944511DCCF40E162E070E0812F0E94E4
:1014600002110E94441181E090E00F900F90DF91F3
:10147000CF911F910895DF92EF92FF920F931F93E8
:10148000CF93DF931F921F92CDB7DEB7FB01DC0134
:1014900057961C921E9256972281211109C02381D2
:1014A000211106C02481211103C025812223F1F0DE
:1014B00041155105D9F07A018F01FC01D08CCE0184
:1014C00001960E94D80289819A810E944511B80133
:1014D0006E5F7F4F8D2D0E943B11B7018D2D0E94B5
:1014E0002A110E94441181E090E002C080E090E067
:1014F0000F900F90DF91CF911F910F91FF90EF9080
:10150000DF9008958F929F92AF92BF92DF92EF92F9
:10151000FF920F931F93CF93DF931F921F92CDB72C
:10152000DEB77C014B018A01FC01A688B788D08C0C
:10153000CE0101960E94D80289819A810E944511AC
:101540008D2D0E946C038017910720F48D2D0E9431
:101550006C038C019801A401B5018D2D0E94070335
:101560000E944411F70186899789800F911F978BFC
:10157000868BC8010F900F90DF91CF911F910F9133
:10158000FF90EF90DF90BF90AF909F908F90089565
:10159000FC0124813581FB014481558124173507E5
:1015A00021F5FC0180819181FB01608171810097AF
:1015B00019F061157105A1F46115710549F0232B2E
:1015C000B1F0FB01808190E09195819591090AC06D
:1015D000009769F0232B59F0FC01808190E002C054
:1015E0000E94AD1F21E0892B19F020E001C021E00D
:1015F000822F0895EF92FF920F931F93CF93DF9363
:10160000CDB7DEB728970FB6F894DEBF0FBECDBFBB
:101610007C01CB014AE08E010F5F1F4FB8010E9491
:10162000F11CF80101900020E9F73197AF01401B50
:10163000510BB801C7010E94610928960FB6F894B2
:10164000DEBF0FBECDBFDF91CF911F910F91FF90F5
:10165000EF900895CF93DF93EC01888199810097F3
:1016600011F00E941F1E198218821D821C821B828B
:101670001A82DF91CF910895CF93DF93EC0161152A
:10168000710561F0FB0101900020E9F73197AF018E
:10169000461B570B0E946109811103C0CE010E94B5
:1016A0002A0BCE01DF91CF910895CF93DF93EC0108
:1016B000FB0144815581608171810E946109811122
:1016C00003C0CE010E942A0BCE01DF91CF91089575
:1016D000EF92FF920F931F93CF93DF93EC017B0167
:1016E0008A01BA010E943A09811104C0CE010E9408
:1016F0002A0B07C01D830C83B701888199810E9442
:10170000B61FCE01DF91CF911F910F91FF90EF9007
:101710000895CF93DF93EC016115710559F0FB013A
:1017200001900020E9F73197AF01461B570B0E944B
:10173000680B02C00E942A0BCE01DF91CF91089561
:10174000CF93DF93EC01FB018617970761F060816F
:1017500071816115710529F0448155810E94680BE2
:1017600002C00E942A0BCE01DF91CF910895FC01A7
:10177000808191810C941F1EFC01118210821382C2
:101780001282158214820C94A00BFC01118210822B
:1017900013821282158214826115710551F0FB01CA
:1017A00001900020E9F73197AF01461B570B0C94CD
:1017B000680B08952C9A08952C9808951F93CF9341
:1017C000DF93182F60E270E00E940C11C82FD0E068
:1017D00061E270E0812F0E940C11DC2FCC279E016A
:1017E000282BC901DF91CF911F9108958EBD000074
:1017F0000DB407FEFDCF8EB50895CF92DF92EF9224
:10180000FF920F931F93CF93DF93EC017A018B012B
:101810006C01C40ED51ECC15DD05A9F00E94DC0BB1
:101820008FE00E94F60B8D2F0E94F60B8C2F0E94EA
:10183000F60B219680E00E94F60BF80181938F0150
:101840000E94DA0BE8CFC701DF91CF911F910F9172
:10185000FF90EF90DF90CF900895CF92DF92EF92BC
:10186000FF920F931F93CF93DF93EC017A018B01CB
:101870006C01C40ED51ECC15DD05A1F00E94DC0B59
:1018800080EF0E94F60B8D2F0E94F60B8C2F0E948A
:10189000F60B2196F80181918F010E94F60B0E94B0
:1018A000DA0BE9CFC701DF91CF911F910F91FF9024
:1018B000EF90DF90CF9008951F93CF93DF93D82FB1
:1018C000192FC62F0E94DC0B80EF0E94F60B812F90
:1018D0000E94F60B8D2F0E94F60B8C2F0E94F60BA8
:1018E0000E94DA0B81E0DF91CF911F910895CF9292
:1018F000DF92FF920F931F93CF93DF931F921F925C
:10190000CDB7DEB7F82E6B01CE0101960E94D8024A
:1019100089819A810E94451168E270E08F2D0E94B2
:101920000C11082F10E069E270E08F2D0E940C115D
:10193000702F6627682B21E030E0A6018F2D0E94D2
:1019400088030E94441181E090E00F900F90DF9196
:10195000CF911F910F91FF90DF90CF900895CF937B
:10196000DF931F92CDB7DEB7FC01218D328D232B83
:1019700049F0BE016F5F7F4F808D0E94770C898197
:1019800090E002C08FEF9FEF0F90DF91CF9108950D
:10199000DF92EF92FF920F931F93CF93DF931F92EB
:1019A0001F92CDB7DEB7D82ECE0101960E94D80285
:1019B00089819A810E944511E12CF12C8D2D0E9484
:1019C000D9098C01892B21F08D2D0E94D9097C0128
:1019D0000E151F0599F70E944411C8010F900F9032
:1019E000DF91CF911F910F91FF90EF90DF900895BD
:1019F0008F929F92BF92CF92DF92EF92FF920F93BE
:101A00001F93CF93DF931F921F92CDB7DEB7B82EEF
:101A10006B017A01CE0101960E94D80289819A81D8
:101A20000E944511812C912C8B2D0E94D9098C018B
:101A3000892B21F08B2D0E94D9094C01081519051D
:101A400099F70115110599F463E070E08B2D0E9460
:101A50000C118431D9F18823C9F101E010E08C31F7
:101A600011F400E010E01195019511092FC0E01666
:101A7000F1060CF487011016110644F568E270E0D7
:101A80008B2D0E940C11E82EF12C69E270E08B2D59
:101A90000E940C11FE2CEE24E82A9801A601B70141
:101AA0008B2D0E948803E00EF11E4F2D68E270E03E
:101AB0008B2D0E9402114E2D69E270E08B2D0E9449
:101AC000021160E470E08B2D0E94F7020E94441125
:101AD000C8010F900F90DF91CF911F910F91FF9050
:101AE000EF90DF90CF90BF909F908F900895CF930D
:101AF000DF93FC01218D328D2115310519F48FEF13
:101B00009FEF11C0EC014217530708F0A901888D1F
:101B10000E94F80C1816190694F7298D3A8D281B87
:101B2000390B3A8F298FDF91CF9108950F931F932F
:101B3000CF93DF931F92CDB7DEB7FC01218D328D9D
:101B4000232B61F08C0141E050E0BE016F5F7F4FBD
:101B5000808D0E94F80C181619061CF08FEF9FEF6D
:101B600008C0F801818D928D0197928F818F8981B4
:101B700090E00F90DF91CF911F910F9108950F93F7
:101B80001F93CF93DF93CDB7DEB728970FB6F894A6
:101B9000DEBF0FBECDBF8C01D80159968D919C91AF
:101BA0005A97892B41F0ED91FC910284F385E02D49
:101BB000C8011995F1CFF801808D0E94C80C181644
:101BC000190654F548E050E0BE016F5F7F4FD80121
:101BD00058968C910E94F80C18161906FCF4D8013E
:101BE000509684E0FE01319601900D928A95E1F7BE
:101BF0008D8190E0982F88272E81820F911DF8010A
:101C0000958B848B8F8190E0982F88272885820F71
:101C1000911D928F818F02C080E090E028960FB6D0
:101C2000F894DEBF0FBECDBFDF91CF911F910F9112
:101C300008951F93CF93DF931F921F92CDB7DEB706
:101C4000182FCE0101960E94D80289819A810E94A4
:101C5000451160E170E0812F0E94F7024FEF62E0D2
:101C600070E0812F0E9402110E9444110F900F908A
:101C7000DF91CF911F910895DF92EF92FF920F9322
:101C80001F93CF93DF931F921F92CDB7DEB7182F0C
:101C9000D62E7A01022F0E94190ECE0101960E94C3
:101CA000D80289819A810E9445114D2D402B60E018
:101CB00070E0812F0E940211E114F10459F4E090C8
:101CC0008004F09081048FEFE81AF80AF092810402
:101CD000E09280044F2D64E070E0812F0E94021199
:101CE0004E2D65E070E0812F0E94021161E070E0EE
:101CF000812F0E94F7020E94441181E00F900F9003
:101D0000DF91CF911F910F91FF90EF90DF90089599
:101D1000BF92CF92DF92EF92FF920F931F93CF93D8
:101D2000DF9300D000D0CDB7DEB7FC01208D24308A
:101D300009F04CC06A017B018C01B12C63E070E0BA
:101D40008B2D0E940C11811103C0F801B08E06C0CA
:101D50008831D9F3B394F4E0BF12F0CFF801808D4D
:101D60008430A1F196E0EFEAF2E0DE0111960190F5
:101D70000D929A95E1F7F70193819F779C83948167
:101D80009D8395819E83B7016E5F7F4F0E943B11BB
:101D9000B601F801808D0E942A11F801808D90E033
:101DA000982F882746E050E0BE016F5F7F4F8A5F23
:101DB0009B4F0E942D0CF801128E118E20E8A60177
:101DC00062E0808D0E943C0E81E001C080E026969A
:101DD0000FB6F894DEBF0FBECDBFDF91CF911F913C
:101DE0000F91FF90EF90DF90CF90BF9008951F93D9
:101DF000CF93DF931F921F92CDB7DEB7182FCE017E
:101E000001960E94D80289819A810E94451163E05F
:101E100070E0812F0E940C11182F0E944411812F15
:101E20000F900F90DF91CF911F910895FC01818D4C
:101E3000928D0895FC0184899589089525E233E007
:101E4000FC0131832083FB014089518962897389B8
:101E5000FC0142835383648375830895DC01ED9113
:101E6000FC91048CF58DE02D199480E00895FC011F
:101E70009485FB018485981303C081E0943009F4B4
:101E800080E0089521E0FC018485843009F420E09D
:101E9000822F08950895CF93DF931F92CDB7DEB7B9
:101EA0006983DC01ED91FC910280F381E02D41E03A
:101EB00050E0BE016F5F7F4F19950F90DF91CF917A
:101EC0000895DC01ED91FC91068CF78DE02D1995BC
:101ED00091E089270895862F089581E08627089547
:101EE00080E090E00895CF92DF92EF92FF920F93FF
:101EF0001F93CF93DF93CDB7DEB7AF970FB6F894AC
:101F0000DEBF0FBECDBF7C016A0105E213E01A837C
:101F100009831C861B8688EE93E0A0E0B0E08D87E5
:101F20009E87AF87B88B89EB92E09A878987188F55
:101F30000F8B198E1A8E1B8E1C8E84E089A31BA713
:101F40000AA71CA61DA61EA61FA68091BC049091E0
:101F5000BD04A091BE04B091BF048EA39FA3A8A707
:101F6000B9A78B839C83AD83BE8318861F82AE0185
:101F7000465D5F4FCE0101960E947A068130910541
:101F8000B1F4D701ED91FC910488F589E02D1DA3F2
:101F90000CA38CA59DA5AEA5BFA58EA39FA3A8A7A6
:101FA000B9A7A601BE016C5D7F4FC7011995AF9619
:101FB0000FB6F894DEBF0FBECDBFDF91CF911F915A
:101FC0000F91FF90EF90DF90CF900895CF92DF9226
:101FD000EF92FF920F931F93CF93DF93CDB7DEB7AE
:101FE000AF970FB6F894DEBF0FBECDBF7C016A017C
:101FF00005E213E01A8309831C861B8688EE93E0B2
:10200000A0E0B0E08D879E87AF87B88B89EB92E028
:102010009A878987188F0F8B198E1A8E1B8E1C8EAC
:1020200084E089A31BA70AA71CA61DA61EA61FA69F
:102030008091BC049091BD04A091BE04B091BF04F6
:102040008EA39FA3A8A7B9A78B839C83AD83BE83D0
:1020500018861F82AE01465D5F4FCE0101960E9439
:102060007A0681309105B1F4D701ED91FC91068497
:10207000F785E02D1DA30CA38CA59DA5AEA5BFA53E
:102080008EA39FA3A8A7B9A7A601BE016C5D7F4F31
:10209000C7011995AF960FB6F894DEBF0FBECDBF3E
:1020A000DF91CF911F910F91FF90EF90DF90CF9034
:1020B0000895CF93DF93FC01808D843029F0EF01E8
:1020C0000E94190E84E0888FDF91CF910895EF92DE
:1020D000FF921F93CF93DF93FC01208D243011F0EA
:1020E00080E01CC07B01EC0110E0812F0E94F70E04
:1020F000811102C0188F05C08831E1F31F5F1430D1
:10210000A1F7888D843061F3FD86EC861A8E198ED6
:1021100020E0A70162E00E943C0E81E0DF91CF91B8
:102120001F91FF90EF900895CF93DF93FC012485DA
:102130002430D1F0EC010E94D003843181F0882357
:1021400071F0883161F08C3161F4E881F9810084AB
:10215000F185E02DCE01199521E0892B19F420E0BD
:1021600001C021E0822F01C080E0DF91CF9108956E
:102170000F931F93CF93DF931F92CDB7DEB78C01E0
:10218000DC01ED91FC910084F185E02D1995892BFE
:1021900051F0BE016F5F7F4FF80184850E94770C7C
:1021A000898190E002C08FEF9FEF0F90DF91CF9178
:1021B0001F910F910895FC0184850C94F80CCF9326
:1021C000DF931F92CDB7DEB741E050E0BE016F5FF5
:1021D0007F4FFC0184850E94F80C181619061CF428
:1021E000898190E002C08FEF9FEF0F90DF91CF9138
:1021F0000895FC018485843011F00C94C80C80E0B3
:1022000090E008959B0190E00496982F8827642F12
:10221000820F931F0C945C0CCF93DF9390E0049695
:10222000982F8827EC01C60FD71F0E94DC0B8FE088
:102230000E94F60B8D2F0E94F60B8C2F0E94F60B3E
:1022400080E00E94F60BC82F0E94DA0B8C2FDF91E2
:10225000CF910895CF93DF93C82FD62F472F60E1FA
:1022600070E00E9402114D2F61E170E08C2FDF9130
:10227000CF910C94021190E0982F882744E050E011
:10228000845F9B4F0C942D0C08958CBD9DBD0895CB
:10229000CF92DF92EF92FF920F931F93CF93DF9332
:1022A0001F921F92CDB7DEB7FC01F484F4E0FF1655
:1022B00089F18C01CE0101960E94D80289819A8110
:1022C0000E94451168E070E08F2D0E94F7020E9485
:1022D0006E066B017C01C8010E94D0038823B9F00F
:1022E00061E070E080E090E00E94F5040E946E06DC
:1022F000DC01CB018C199D09AE09BF09883E9340D2
:10230000A105B10540F3F80184850E94190E84E00F
:10231000F80184870F900F90DF91CF911F910F915B
:10232000FF90EF90DF90CF9008956F927F928F9201
:102330009F92AF92BF92CF92DF92EF92FF921F9344
:10234000CF93DF931F921F92CDB7DEB75C013B01A5
:102350006A01FC011485143041F481E090E0F5013C
:102360009383828380E090E05BC07A0141305840E3
:1023700018F0E12C88E0F82ECE0101960E94D802D8
:1023800089819A810E944511812F0E946C034C0122
:1023900063E070E0812F0E940C11873111F08C31C5
:1023A00021F48E149F0440F302C0E12CF12CCE01E5
:1023B00001960E94D80289819A810E944511970155
:1023C000A30160E070E0812F0E94070360E270E0EB
:1023D000812F0E94F70262E070E0812F0E940C11B1
:1023E00084FD14C063E070E0812F0E940C11811104
:1023F00004C0812F0E94190EB0CFCE0101960E9419
:10240000D80289819A810E944511E5CF40E162E0BE
:1024100070E0812F0E940211EF2809F49ECFC601BF
:102420000F900F90DF91CF911F91FF90EF90DF9071
:10243000CF90BF90AF909F908F907F906F900895B6
:10244000AF92BF92DF92EF92FF920F931F93CF93C1
:10245000DF931F921F92CDB7DEB7FC012485243095
:1024600009F076C05A018B017C01D12C8D2D0E9480
:10247000F70E811103C0F701D48607C08B7F883126
:10248000D1F3D394F4E0DF12F1CFF70184858430E7
:1024900009F45EC020914602309147022F5F3F4F02
:1024A00011F420E030EC3093470220934602409133
:1024B00046025091470220E061E00E943C0EF80184
:1024C00082818F3F51F483818F3F99F484818F3FC4
:1024D00081F485818F3F69F438C081110AC0F80109
:1024E0008381811106C08481811103C08581882385
:1024F00061F1A114B10449F1F701D484CE01019630
:102500000E94D80289819A810E944511B8016E5FAC
:102510007F4F8D2D0E943B11B5018D2D0E942A11F8
:1025200064E070E08D2D0E94F702C7010E94D00385
:10253000873189F061E070E080E090E00E94F5046E
:10254000C7010E94D0038111F0CF84E0F701848796
:1025500080E090E002C081E090E00F900F90DF916A
:10256000CF911F910F91FF90EF90DF90BF90AF90B0
:102570000895CF92DF92EF92FF920F931F93CF9324
:10258000DF93CDB7DEB72C970FB6F894DEBF0FBE42
:10259000CDBF20912204211180C07A01C72ED62EF2
:1025A000BC0181E080932204CE0101960E94C50BFC
:1025B0008091C8049091C9040097C9F069817A811B
:1025C0006115710591F04091CA045091CB042D81A1
:1025D0003E814217530748F00E94B61F8D819E81AD
:1025E0009093CD048093CC0418C00E941F1E898153
:1025F0009A819093C9048093C8048B819C819093A5
:10260000CB048093CA048D819E819093CD048093E6
:10261000CC041A8219821C821B821E821D82CE016A
:1026200001960E94B70B6FEC73E082EC94E00E947D
:10263000890B0D2D1C2DE00EF11E0E151F0569F1E5
:10264000F80181918F0118861F821A8619861C86CF
:102650001B8689831A82BE016F5F7F4FCE0107966A
:102660000E94890B62EC74E0CE0101960E94BC0BC3
:10267000BE01695F7F4FCE0101960E94550BBC01E0
:1026800082EC94E00E94A00BCE0101960E94B70B51
:10269000CE0107960E94B70BD0CF2C960FB6F894B8
:1026A000DEBF0FBECDBFDF91CF911F910F91FF9085
:1026B000EF90DF90CF900895CF93DF93EC01FA0174
:1026C0003296E60FF71FDC01AD014C1B5D0BCF010D
:1026D000861B970B2D91222311F02193F5CF9C019E
:1026E000241B350B620F731FFB0132975083319609
:1026F0004083DF91CF910895EF92FF920F931F9344
:10270000CF93DF9300D01F92CDB7DEB79A01E0E000
:10271000922F9F77220F232F221F330B31952115E4
:10272000310509F0906801E00E0FA1E0B0E0AC0FB8
:10273000BD1FAE0FB11DFD0190832115310511F0B4
:10274000E02FE6CF10E09B01201B310B2C5F3F4FA9
:10275000F9018083DE011196FB01E01BF10B359638
:10276000CB010596E817F90719F06D916193FACF3F
:102770008091CE049091CF044F5F5F4F040F151FDF
:10278000DC01ED91FC910280F381E02DA801B901FB
:1027900019957C010E946E06609352057093530553
:1027A000809354059093550581E00E151F0509F09F
:1027B00080E00F900F900F900F90DF91CF911F91BD
:1027C0000F91FF90EF900895CF938091CE04909158
:1027D000CF04009771F1DC01ED91FC910688F78937
:1027E000E02D1995C1E0811125C0C0E080916905F7
:1027F00090916A05892BF1F48DEF9FEF90936A0514
:10280000809369058091CE049091CF04DC01ED9115
:10281000FC910680F781E02D19958091CE0490916E
:10282000CF04DC01ED91FC910488F589E02D199528
:1028300001C0C0E08C2FCF9108950F931F93CF93C9
:10284000DF93FC01C481D581209719F4FB0110822C
:1028500011C0415051094C175D0708F4EA018B0182
:10286000FC0160817181AE01C8010E94BD1FC00FD3
:10287000D11F1882DF91CF911F910F910895CF93AF
:10288000DF93EB01FC01448155814F5F5F4F21F0E5
:1028900064EF75E00E941D144C815D814F5F5F4FB6
:1028A00029F060E975E0CE010E941D14C0E9D5E071
:1028B00009900020E9F72197C059D5400E94E41300
:1028C000882371F1E4EFF5E001900020E9F7CE01F3
:1028D0008E0F9F1F8E5E95408138910508F545E06B
:1028E00050E060ED74E084EF95E00E945C13DC0141
:1028F000A053BB4FE0E9F5E09F01205935402C176C
:102900003D0718F421912D93F7CF2597AE01480F7D
:10291000591F60ED74E080E3DF91CF910C947C133C
:10292000DF91CF910895E2E8F4E001900020E9F70B
:10293000CF018A5794408138910560F50E94E413D5
:10294000882341F18091500590915105019611F431
:1029500081E090E09093510580935005809150055F
:10296000909151059093D5048093D60447E050E0B0
:1029700060ED74E082E894E00E945C13FC01E25395
:10298000FB4F1282AC014450510960ED74E082E8C3
:102990000C947C1380E00895CF92DF92EF92FF9227
:1029A000CF93DF93EC010E946E066B017C01809156
:1029B000CE049091CF04DC01ED91FC910084F1856F
:1029C000E02D1995892B79F40E946E06DC01CB016C
:1029D0008C199D09AE09BF0988399A43A105B10533
:1029E00030F380E00DC08091CE049091CF04DC01E3
:1029F000ED91FC910284F385E02D1995888381E0A7
:102A0000DF91CF91FF90EF90DF90CF900895CF921C
:102A1000DF92EF92FF920F931F93CF93DF936C019E
:102A20008B017A014617570720F4812F8A01E62E81
:102A3000F82E6FEC73E0C6010E94C50BC091CC0468
:102A4000D091CD040C171D07E0F4EC16FD0608F438
:102A5000E701E091C804F091C904EC0FFD1FF0807C
:102A600010826091C8047091C904600F711FC60183
:102A70000E94890B8091C8049091C904C80FD91F86
:102A8000F882C601DF91CF911F910F91FF90EF90D7
:102A9000DF90CF9008951F920F920FB60F921124DE
:102AA0002F933F938F939F93AF93BF93809167042E
:102AB00090916804A0916904B0916A043091300645
:102AC00023E0230F2D3720F40196A11DB11D05C071
:102AD00026E8230F0296A11DB11D20933006809396
:102AE000670490936804A0936904B0936A0480918A
:102AF0006B0490916C04A0916D04B0916E040196EA
:102B0000A11DB11D80936B0490936C04A0936D0480
:102B1000B0936E04BF91AF919F918F913F912F9190
:102B20000F900FBE0F901F901895CF93DF93CDB7E6
:102B3000DEB7EE970FB6F894DEBF0FBECDBF789428
:102B400084B5826084BD84B5816084BD85B58260B2
:102B500085BD85B5816085BD80916E008160809363
:102B60006E001092810080918100826080938100CC
:102B700080918100816080938100809180008160DC
:102B8000809380008091B10084608093B100809137
:102B9000B00081608093B00080919100826080934A
:102BA00091008091910081608093910080919000CC
:102BB0008160809390008091A10082608093A10049
:102BC0008091A10081608093A1008091A00081602C
:102BD0008093A000809121018260809321018091E7
:102BE0002101816080932101809120018160809387
:102BF000200180917A00846080937A0080917A002D
:102C0000826080937A0080917A00816080937A005C
:102C100080917A00806880937A001092C100809140
:102C200045021F928F93809144021F928F9380914F
:102C300043021F928F93809142021F928F93809143
:102C400041021F928F93809140021F928F938DE2D9
:102C500093E09F938F938E010F5F1F4F1F930F93EE
:102C60000E94CC1F85E2E82E83E0F82EFBA2EAA2A8
:102C70008091860590918705A0918805B09189057E
:102C80008CA39DA3AEA3BFA3CE0182960E942F0565
:102C9000FBA2EAA280916D0590916E05A0916F054F
:102CA000B09170058CA39DA3AEA3BFA3CE01829665
:102CB0000E94DD0289EB92E190935C0580935B05B5
:102CC0009FEAC92E92E0D92E0FB6F894DEBF0FBE50
:102CD000CDBF2FE6E22E22E0F22ED7018C91B2E09A
:102CE000EB0EF11C62E00E94B904CE14DF04A9F7D8
:102CF00060E08CE20E94B904A5E5EA2EA2E0FA2E7B
:102D0000BFE6AB2EB2E0BB2EF701D080F2E0EF0EB3
:102D1000F11C61E08D2D0E94B90461E08D2D0E94AF
:102D20008A04AE14BF0481F79E01285F3F4F3BAF7A
:102D30002AAFF5E22F2EF3E03F2E0E94E41381111B
:102D4000CFC162ECC62E7FE0D72EECEFEE2EFF2433
:102D5000FA940E94E4138111C3C139A628A61AA6C9
:102D60001BA61CA61DA6C8010E94D80289819A81B3
:102D70000E94451144E050E0BE01665D7F4F8FE048
:102D800090E00E94FD0B0E9444116AA57BA58CA5D2
:102D90009DA51BA21AA21DA21CA21FA21EA22AE070
:102DA000A8010E94111DB801CE0182960E94890BD4
:102DB0006BE473E0C8010E94C50BBE016E5D7F4FDE
:102DC000C8010E94550BBC01CE01C4960E94BC0BE9
:102DD000C8010E94B70BCE0182960E94B70B48AD86
:102DE00059AD4F5F5F4F31F062E874E0CE01C49699
:102DF0000E941D140E94E4138111D3C060916305E9
:102E0000709164058091CE049091CF044091650546
:102E100050916605DC01ED91FC916115710521F081
:102E20000088F189E02D12C00684F785E02D3A82F2
:102E3000298280905F0590906005A0906105B09018
:102E400062058B829C82AD82BE82B8011995813069
:102E5000910509F09FC0909351058093500587E03C
:102E6000EEE4F2E0D80101900D928A95E1F7F801C5
:102E7000A5EDB4E081918D932AAD3BADE217F30748
:102E8000C9F7C092DC041092DD04D092DE044FE05A
:102E900050E060ED74E082E894E00E945C13AC01C5
:102EA00060ED74E081E693E00E945C13AC0160ED9C
:102EB00074E08BE693E00E945C13AC01455051092D
:102EC00060ED74E080E10E947C130E946E066093C6
:102ED0005205709353058093540590935505609364
:102EE0005605709357058093580590935905809126
:102EF000CE049091CF04DC01ED91FC910084F1852A
:102F0000E02D1995892BD1F40E946E06809056050C
:102F100090905705A0905805B0905905DC01CB0161
:102F200088199909AA09BB0988399A43A105B105ED
:102F3000F0F2F0926A05E092690520C0CE01829617
:102F40000E94E2010497D1F48091D304811111C051
:102F50000E946E066093560570935705809358053E
:102F60009093590510925A0510926A0510926905BE
:102F700018C090E090936A05809369058091CE0413
:102F80009091CF04DC01ED91FC910488F589E02D4E
:102F9000199549C4EEEFFFEFF0936A05E0936905D8
:102FA00042C461E773E0C8010E94C50B6EE775E09B
:102FB000C8010E94550B66E773E00E943C0BBC0100
:102FC000CE018E960E94BC0BC8010E94B70B4AA985
:102FD0005BA94F5F5F4F31F062E874E0CE018E96DF
:102FE0000E941D140E94931461E773E0C8010E94BF
:102FF000C50B6EE775E0C8010E94550B6DE773E0E5
:103000000E943C0BBC01CE018E960E94A00BC80111
:103010000E94B70B4AA95BA94F5F5F4F31F062E88E
:1030200074E0CE018E960E941D140E94931464E8F1
:1030300073E0C8010E94C50B6EE873E0CE0188966C
:103040000E94C50B6EE775E0CE0188960E94550B75
:10305000BC01CE0182960E94BC0BB801CE018296C3
:103060000E943F14CE0182960E94B70BCE01889633
:103070000E94B70BC8010E94B70B6FE973E0C8014B
:103080000E94C50B68E973E0CE0188960E94C50BCB
:103090006EE775E0CE0188960E94550B6EE973E0ED
:1030A0000E943C0BBC01CE0182960E94BC0BB80171
:1030B000CE0182960E943F14CE0182960E94B70BE9
:1030C000CE0188960E94B70BC8010E94B70BCE01B3
:1030D0008E960E94B70BCE01C4960E94B70B39CED4
:1030E0000E94E413882309F423C10E946E062B0179
:1030F0003C018091560590915705A0915805B091DB
:103100005905A3019201281B390B4A0B5B0BDA010D
:10311000C90189399A43A105B105A8F480915205E6
:1031200090915305A0915405B0915505A3019201CA
:10313000281B390B4A0B5B0BDA01C90189399A4309
:10314000A105B105C8F120915A058091CE04909156
:10315000CF04222371F02CEF3FEF30936A052093C8
:103160006905DC01ED91FC910488F589E02D199544
:10317000DFC020EC2093D0041092D104DC01ED914B
:10318000FC910280F381E02D42E050E060ED74E0BC
:1031900019954092520550925305609254057092D1
:1031A0005505409256055092570560925805709209
:1031B000590581E080935A058091CE049091CF0407
:1031C000DC01ED91FC910084F185E02D1995892BAE
:1031D00009F4AEC0C8010E94E2015C01892B09F428
:1031E000A5C04092560550925705609258057092BE
:1031F00059058091D004807F803309F07BC0809195
:103200005B0590915C05892B09F492C0C980D12C93
:10321000F601E253FB4FE380F12CFE2CEE24848177
:10322000E80EF11CF601EE52FB4F4F01B6016D5254
:103230007B4FA701CF010E949B1FB7016C0D7D1D25
:10324000DB01A253BB4F14961C9214978091D004BB
:1032500086708EAFE0915B05F0915C058230E9F5F8
:1032600015968C91159790E0982F882716962C919B
:10327000AC01420F511D5DAF4CAF4BEF5FEF4C19EE
:103280005D094E195F094A0D5B1D6B527B4FC401EE
:10329000199580E48093D0045EAD5093D1048DAD38
:1032A0008093D2049CAD9093D3048091CE049091EE
:1032B000CF04DC01ED91FC910280F381E02D44E02C
:1032C00050E060ED74E0199540925205509253051C
:1032D00060925405709255052BC04DEF5FEF4C196D
:1032E0005D094E195F094A0D5B1D6D527B4FC4018C
:1032F00019951EC0803CA9F480ED8093D0041092F3
:10330000D1048091CE049091CF04DC01ED91FC9129
:103310000280F381E02D42E050E060ED74E0199509
:1033200007C0803D29F410925A0502C00E94E413A0
:1033300090E0692E92E0792E23E2C22E24E0D22E74
:103340003FE6432E32E0532EF201819091902F01FF
:1033500094013327F901EC5DFD4F8491F901EC579D
:10336000FD4FE490F901E653FD4FF490FF20A1F0EA
:1033700081110E943404EF2DF0E0EE0FFF1FE051A9
:10338000FE4FA591B491EC91EE2291E080E009F41A
:1033900090E0E92EF82E02C0E12CF12CD3018D91A2
:1033A0009C918E159F0551F00E946E0660936304F8
:1033B000709364048093650490936604E114F104AF
:1033C00031F4F60180819181892B39F096C0D601C4
:1033D0008D919C91019709F090C00E946E062091FA
:1033E0006304309164044091650450916604DC01EB
:1033F000CB01821B930BA40BB50BC397A105B105A1
:1034000008F47BC00E946E066093630470936404AA
:103410008093650490936604E114F104B1F565EAC4
:1034200073E0C8010E94C50B61E773E0CE01889686
:103430000E94C50B6EE775E0CE0188960E94550B81
:1034400068EA73E00E943C0B5C01B4010E94FA0A36
:10345000811103C0C5010E942A0BB501CE018296DD
:103460000E94BC0BB801CE0182960E943F14CE018F
:1034700082960E94B70BCE0188960E94B70BC801B6
:103480000E94B70B81E090E035C06DEA73E0C8019F
:103490000E94C50B61E773E0CE0188960E94C50BC0
:1034A0006EE775E0CE0188960E94550B68EA73E0DE
:1034B0000E943C0B5C01B4010E94FA0A811103C016
:1034C000C5010E942A0BB501CE0182960E94BC0B59
:1034D000B801CE0182960E943F14CE0182960E94CE
:1034E000B70BCE0188960E94B70BC8010E94B70B9C
:1034F00080E090E0F60191838083D301ED92FD920C
:103500003D01B2E0CB0ED11CE0E46E16E2E07E0697
:1035100009F01ACF80912204882309F47CC161E765
:1035200073E0CE0188960E94C50B6EE775E0CE0170
:1035300088960E94550B61EB73E00E943C0B7C0166
:1035400061E773E0C8010E94C50B6EE775E0C80132
:103550000E94550B61EB73E00E943C0BDC0114965A
:103560004D915C91159760E070E0CE0182960E94CB
:103570000715B701CE0182960E94C80AF82ECE0127
:1035800082960E94B70BC8010E94B70BCE018896A5
:103590000E94B70B61E773E0FF2009F4D5C0C801B2
:1035A0000E94C50B6EE775E0C8010E94550B61EBE8
:1035B00073E00E943C0B4091CC045091CD04FC017F
:1035C00064817581CE0182960E9407158AA19BA114
:1035D000009729F00E94CA1C4B015C0103C0812C9A
:1035E000912C5401CE0182960E94B70BC8010E9413
:1035F000B70BC4010297C49708F00BC18091C604B1
:103600009091C704892BC9F0E090C204F090C304E4
:1036100065EA73E0C7010E94AD1F892B11F460E0D9
:1036200008C06DEA73E0C7010E94AD1F892B29F421
:1036300061E0882D0E948A0463C01FA61EA619AAF5
:1036400018AA1BAA1AAA4AE0B801C4010E94F11CD8
:10365000B801CE018E960E94890B67EB73E0CE0114
:1036600088960E94C50B68EC74E0CE0188960E9493
:10367000550B60ED73E00E943C0B6EE775E00E9415
:10368000550B6EED73E00E943C0BBE01625D7F4FF7
:103690000E94550B66EC73E00E943C0B62EC74E0F8
:1036A0000E94550BBC01CE01C4960E94BC0B64EE77
:1036B00073E0C8010E94C50B6EE775E0C8010E9467
:1036C000550BBC01CE0182960E94BC0BBE016C5C06
:1036D0007F4FCE0182960E943F14CE0182960E94B7
:1036E000B70BC8010E94B70BCE01C4960E94B70B5E
:1036F000CE0188960E94B70BCE018E960E94B70B22
:1037000068EC74E0CE0188960E94BC0BBE01685D37
:103710007F4FCE0182960E94BC0B6FEE73E0C80112
:103720000E94C50BBE016E5D7F4FC8010E943F1411
:10373000C8010E94B70BCE0182960E94B70BCE0142
:1037400088960E94B70B65C0CE0188960E94C50B73
:103750006EE775E0CE0188960E94550B6DE773E029
:103760000E943C0B7C0161E773E0C8010E94C50B1D
:103770006EE775E0C8010E94550B6DE773E00E948B
:103780003C0BDC0114964D915C91159760E070E064
:10379000CE0182960E940715B701CE0182960E9443
:1037A000C80AF82ECE0182960E94B70BC8010E946B
:1037B000B70BCE0188960E94B70BFF2051F168EF3E
:1037C00073E0CE0188960E94C50B6FE074E0C801DB
:1037D0000E94C50B6EE775E0C8010E94550BBC0145
:1037E000CE0182960E94BC0BBE01685D7F4FCE0168
:1037F00082960E943F14CE0182960E94B70BC801A8
:103800000E94B70BCE0188960E94B70BE0E0F0E073
:1038100019951092220480E090E0892B09F48DCA5A
:103820000E94000086CA68E873E180E090E00E9490
:10383000F50451CC82EC94E00E94B70B88EC94E044
:103840000E94B70B8EE795E00C94B70B0F931F9374
:10385000CF93DF93E2E1F6E0C5E2D3E0D183C0830A
:103860001282138214821582E4EBF4E0D183C083C8
:103870001282138214821582E8E1F6E0D183C083BC
:103880001282138214821582EEE1F6E0D183C083A6
:103890001282138214821582E4E2F6E0D183C0839F
:1038A0001282138214821582EAE2F6E0D183C08389
:1038B0001282138214821582EAEBF4E0D183C08372
:1038C0001282138214821582EAE8F5E0D183C08364
:1038D0001282138214821582E4E8F5E0D183C0835A
:1038E00000EC028318EA138314828CEC85836AE16E
:1038F00074E08EE795E00E94C50BE1E7F5E01382E6
:10390000128288EE93E0A0E0B0E084839583A683E2
:10391000B7838FEF92E09183808384E08487ABE666
:10392000B5E01196DC93CE9312960C9312971396F2
:103930001C93139714961C9214978AEB15968C93EC
:10394000D0935E05C0935D0510925F0510926005EF
:1039500010926105109262058FEF9FEF90936A05B8
:1039600080936905F093CF04E093CE04109268052C
:10397000109267056FEC73E088EC94E00E94C50B31
:103980006FEC73E082EC94E0DF91CF911F910F9187
:103990000C94C50B1F93FC0199278827BC01E89460
:1039A00011911032E9F3193010F01E30C8F31B32B8
:1039B00051F01D3249F4689406C00E94FC1C610F4E
:1039C000711D811D911D119110531A30B0F33EF4F9
:1039D00090958095709561957F4F8F4F9F4F1F9168
:1039E0000895BB274A3031F4992322F4BDE2909523
:1039F00081959F4F0C94341D592F482F372F262F18
:103A0000660F771F881F991F660F771F881F991FE2
:103A1000620F731F841F951F660F771F881F991FE2
:103A20000895BB27FA01A62F62177105810591053C
:103A3000330B30FB66F0AA27660F771F881F991F8C
:103A4000AA1FA21710F0A21B63953850A9F7A05D1A
:103A5000AA3308F0A95DA19336F7B111B193108292
:103A6000CA010C944D1DBB27FB015527AA27880FBF
:103A7000991FAA1FA41710F0A41B83955051B9F7E2
:103A8000A05DAA3308F0A95DA193009779F7B11161
:103A9000B1931192CB010C944D1DDC01FC01672FF9
:103AA00071917723E1F7329704C07C916D93708315
:103AB0006291AE17BF07C8F30895A1E21A2EAA1BA0
:103AC000BB1BFD010DC0AA1FBB1FEE1FFF1FA217CE
:103AD000B307E407F50720F0A21BB30BE40BF50BCB
:103AE000661F771F881F991F1A9469F76095709554
:103AF000809590959B01AC01BD01CF010895EE0F1B
:103B0000FF1F881F8BBF0790F691E02D19940F932C
:103B10001F93CF93DF938230910510F482E090E001
:103B2000E0913306F091340620E030E0A0E0B0E010
:103B3000309719F14081518102811381481759074B
:103B4000C8F08417950769F4109731F012960C931A
:103B5000129713961C9327C00093330610933406D4
:103B600022C02115310519F04217530718F49A01A4
:103B7000BD01EF01DF01F801DBCF21153105F9F0BF
:103B8000281B390B2430310580F48A819B81611513
:103B9000710521F0FB019383828304C09093340666
:103BA00080933306FE01329644C0FE01E20FF31FFC
:103BB0008193919322503109398328833AC020910F
:103BC000310630913206232B41F420914A02309184
:103BD0004B023093320620933106209148023091F7
:103BE00049022115310541F42DB73EB740914C02F1
:103BF00050914D02241B350BE0913106F0913206B5
:103C0000E217F307A0F42E1B3F0B2817390778F0B3
:103C1000AC014E5F5F4F2417350748F04E0F5F1F12
:103C200050933206409331068193919302C0E0E0B5
:103C3000F0E0CF01DF91CF911F910F910895CF93C5
:103C4000DF93009709F481C0FC013297138212823E
:103C5000A0913306B0913406109781F42081318110
:103C6000820F931F209131063091320628173907B1
:103C700051F5F0933206E093310667C0ED0120E084
:103C800030E0CE17DF0740F44A815B819E01411589
:103C90005105F1F0EA01F5CFD383C2834081518110
:103CA000840F951FC817D90759F488819981840F0B
:103CB000951F0296918380838A819B81938382835F
:103CC0002115310529F4F0933406E09333063DC005
:103CD000E901FB83EA8349915991C40FD51FEC1781
:103CE000FD0761F480819181840F951F0296E9019F
:103CF00099838883828193819B838A83E0E0F0E0CB
:103D000012968D919C911397009719F0FD01DC019B
:103D1000F7CF8D919C9111979D012E5F3F4F820FA0
:103D2000931F20913106309132062817390769F424
:103D3000309729F4109234061092330602C0138291
:103D40001282B0933206A0933106DF91CF9108958D
:103D50006F927F928F929F92AF92BF92CF92DF929B
:103D6000EF92FF920F931F93CF93DF93009789F405
:103D7000CB01DF91CF911F910F91FF90EF90DF90DA
:103D8000CF90BF90AF909F908F907F906F900C944A
:103D9000871DFC01E60FF71F9C0122503109E21735
:103DA000F30708F4A9C0EC01D9010D911C911197FA
:103DB00006171707B0F00530110508F49BC0C801BD
:103DC00004978617970708F495C002501109061B3F
:103DD000170B019311936D937C93CF010E941F1ECB
:103DE00089C05B01A01AB10A4C01800E911EA091FE
:103DF0003306B0913406612C712CE12CF12C109714
:103E000009F446C08D919C911197A815B905B1F59B
:103E10006C0142E0C40ED11CCA14DB0478F14C01E1
:103E20008A189B08640142E0C40ED11C1296BC9013
:103E300012971396AC91B5E0CB16D10440F0B28244
:103E4000A38391828082D9016D937C9309C00E5F18
:103E50001F4F800F911FF90191838083EB2DFA2F63
:103E6000E114F10431F0D7011396FC93EE9312970D
:103E700041C0F0933406E09333063CC068167906DF
:103E800008F43C017D0112960D90BC91A02DB7CF96
:103E9000809131069091320688169906E1F46616F3
:103EA0007706C8F48091480290914902009741F446
:103EB0008DB79EB740914C0250914D02841B950BDB
:103EC000E817F907C8F4F0933206E0933106F901D8
:103ED000718360830FC0CB010E94871D7C01009716
:103EE00059F0A801BE010E94921FCE010E941F1E20
:103EF000C70104C0CE0102C080E090E0DF91CF9105
:103F00001F910F91FF90EF90DF90CF90BF90AF90F7
:103F10009F908F907F906F90089581E090E0F8944B
:103F20000C94B522FB01DC0102C001900D924150BE
:103F30005040D8F708956817790768F4FB01DC0151
:103F4000E40FF51FA40FB51F02C002900E9241505E
:103F50005040D8F708950C94921FFB01DC018D911D
:103F6000019080190110D9F3990B0895FB01DC0130
:103F700001900D920020E1F70895FB01DC01415012
:103F8000504048F001900D920020C9F701C01D92E9
:103F900041505040E0F708950F931F93CF93DF9364
:103FA000CDB7DEB72E970FB6F894DEBF0FBECDBFEC
:103FB0000E891F8986E08C831A8309838FEF9FE720
:103FC0009E838D83AE01465E5F4F688D798DCE01F5
:103FD00001960E94FB1FEF81F885E00FF11F108210
:103FE0002E960FB6F894DEBF0FBECDBFDF91CF91F6
:103FF0001F910F9108952F923F924F925F926F926F
:104000007F928F929F92AF92BF92CF92DF92EF9268
:10401000FF920F931F93CF93DF93CDB7DEB72B970C
:104020000FB6F894DEBF0FBECDBF6C017B018A01D5
:10403000FC0117821682838181FFCCC1CE010196DB
:104040003C01F6019381F70193FD859193FF8191E6
:104050007F01882309F4BAC1853239F493FD859133
:1040600093FF81917F01853229F4B60190E00E948F
:104070001B22E7CF912C212C312CFFE1F315D8F036
:104080008B3279F038F4803279F08332A1F4232D29
:1040900020611DC08D3261F0803369F4232D2160D1
:1040A00016C0832D8260382EE32DE4603E2E2AC098
:1040B000F32DF8601DC037FC2DC020ED280F2A30ED
:1040C00040F08E32B9F436FC81C1232D2064322EAB
:1040D00019C036FE06C08AE0989E200D1124922E4B
:1040E00011C0EAE02E9E200D1124222EF32DF06245
:1040F0003F2E08C08C3621F4832D8068382E02C0F4
:10410000883641F4F70193FD859193FF81917F01FA
:104110008111B3CF982F9F7D9554933028F40C5F75
:104120001F4F9FE399830DC0833631F0833771F0C1
:10413000833509F059C021C0F801808189830E5F61
:104140001F4F88248394912C530113C02801F2E05F
:104150004F0E511CF801A080B18036FE03C0692DBE
:1041600070E002C06FEF7FEFC5010E9410224C018A
:104170008201F32DFF773F2E16C0280122E0420E68
:10418000511CF801A080B18036FE03C0692D70E09B
:1041900002C06FEF7FEFC5010E9405224C01F32D95
:1041A000F0683F2E820133FC1BC0822D90E0881600
:1041B0009906B0F4B60180E290E00E941B222A9496
:1041C000F4CFF50137FC859137FE81915F01B6018F
:1041D00090E00E941B2221102A9421E0821A91086B
:1041E0008114910471F7E8C0843611F0893641F5E5
:1041F000F80137FE07C060817181828193810C5F75
:104200001F4F08C060817181072E000C880B990B2D
:104210000E5F1F4FF32DFF763F2E97FF09C090953D
:104220008095709561957F4F8F4F9F4FF0683F2E1F
:104230002AE030E0A3010E945722882E861845C04C
:10424000853731F4232D2F7EB22E2AE030E025C0B1
:10425000932D997FB92E8F36C1F018F4883579F0F7
:10426000B5C0803719F0883721F0B0C0E92FE06180
:10427000BE2EB4FE0DC0FB2DF460BF2E09C034FE6F
:104280000AC0292F2660B22E06C028E030E005C003
:1042900020E130E002C020E132E0F801B7FE07C0C3
:1042A00060817181828193810C5F1F4F06C06081A4
:1042B000718180E090E00E5F1F4FA3010E945722A2
:1042C000882E8618FB2DFF773F2E36FE0DC0232D3E
:1042D0002E7FA22E891458F434FE0BC032FC09C084
:1042E000832D8E7EA82E05C0B82CA32C03C0B82C1D
:1042F00001C0B92CA4FE0FC0FE01E80DF11D8081A4
:10430000803321F49A2D997EA92E09C0A2FE06C001
:10431000B394B39404C08A2D867809F0B394A3FCB7
:1043200011C0A0FE06C0B21488F4280C922C9B1871
:104330000EC0B21460F4B60180E290E00E941B222D
:10434000B394F7CFB21418F42B1802C0982C212C78
:10435000A4FE10C0B60180E390E00E941B22A2FEE2
:1043600017C0A1FC03C088E790E002C088E590E098
:10437000B6010CC08A2D867859F0A1FE02C08BE2EE
:1043800001C080E2A7FC8DE2B60190E00E941B22F2
:10439000891438F4B60180E390E00E941B229A94BD
:1043A000F7CF8A94F301E80DF11D8081B60190E00A
:1043B0000E941B228110F5CF222009F442CEB601C3
:1043C00080E290E00E941B222A94F6CFF6018681BB
:1043D000978102C08FEF9FEF2B960FB6F894DEBF48
:1043E0000FBECDBFDF91CF911F910F91FF90EF9046
:1043F000DF90CF90BF90AF909F908F907F906F9005
:104400005F904F903F902F900895FC010590615070
:1044100070400110D8F7809590958E0F9F1F0895DA
:10442000FC016150704001900110D8F78095909583
:104430008E0F9F1F08950F931F93CF93DF93FB0160
:10444000238121FD03C08FEF9FEF2CC022FF16C0F8
:1044500046815781248135814217530744F4A08156
:10446000B1819D012F5F3F4F318320838C93268143
:1044700037812F5F3F4F3783268314C08B01EC01B8
:10448000FB010084F185E02D1995892BE1F6D80117
:1044900016968D919C911797019617969C938E93E3
:1044A0001697CE01DF91CF911F910F910895FA01D8
:1044B000AA27283051F1203181F1E8946F936E7F63
:1044C0006E5F7F4F8F4F9F4FAF4FB1E03ED0B4E054
:1044D0003CD0670F781F891F9A1FA11D680F791F95
:1044E0008A1F911DA11D6A0F711D811D911DA11DA6
:1044F00020D009F468943F912AE0269F11243019B6
:10450000305D3193DEF6CF010895462F4770405D50
:104510004193B3E00FD0C9F7F6CF462F4F70405DFF
:104520004A3318F0495D31FD4052419302D0A9F75A
:10453000EACFB4E0A6959795879577956795BA9554
:10454000C9F700976105710508959B01AC010A2E1A
:1045500006945795479537952795BA95C9F7620FF1
:10456000731F841F951FA01D089511E0C9E8D1E0B5
:1045700000E006C0802FFE010E947F1D2196011DD4
:0E458000CA38D10780E00807A9F7F894FFCFEA
:10458E000100010001000100010001000100010015
:10459E000100010001000100010001000100010005
:1045AE0001000100010001000100010001000100F5
:1045BE0001000100010001000100010001000100E5
:1045CE00DEADBEEFFEF000C0000035068000000438
:1045DE004D51545404020003000400050006000768
:1045EE0000080009000B000C000D00300031000E19
:1045FE00000F001000110012001300140015001619
:10460E00001700180019001A001B001C001D001EC8
:10461E00001F002000210022002300240025002678
:10462E00002700280029002A002B002D002E000153
:10463E00005E000000000000002209820A700F21B7
:10464E0009160F960DAF0C6710880E59103B0A73A2
:10465E000FF109BF0D770D2E0F1E0F1A0F00000060
:10466E00003809F708700FF60838093809380900BC
:10467E000000003809F708700FF608000000004B24
:10468E000F9511700F4A0FF910DF10B8102012E6B7
:10469E000FDB1048119410420F6D0F6B0F370F6127
:1046AE000F000000008F090000000038092530328D
:1046BE00583A253032583A253032583A2530325849
:1046CE003A253032583A25303258005265636F6EB3
:1046DE006E656374696E672041726475696E6F2DC5
:1046EE0000736C6173686261636B006E696D646107
:1046FE0000636D642F002F6F75742F23002F72656A
:10470E0073657400636F6E6E6563746564006C6FC1
:10471E00672F696E666F2F00696E69742F002F7296
:10472E0065616479004F4E002F696E2F004F46462B
:10473E00002F6F75742F006661696C656420746F4D
:10474E00207472656174206D6573736167652000F6
:10475E0020666F722061726475696E6F2000207022
:10476E00696E20006C6F672F6572726F722F006317
:10477E00616C6C6261636B00526573657420726567
:10478E007175657374207265636569766564006C16
:10479E006F672F64656275672F006574616765309A
:0247AE006200A7
:00000001FF
