:100000000C94A6010C94D7010C94D7010C94D70141
:100010000C94D7010C94D7010C94D7010C94D70100
:100020000C94D7010C94D7010C94D7010C94D701F0
:100030000C94D7010C94D7010C94D7010C94D701E0
:100040000C94D7010C94D7010C94D7010C94D701D0
:100050000C94391D0C94D7010C94D7010C945F209B
:100060000C94D7010C94D7010C94D7010C94D701B0
:100070000C94D7010C94D7010C94D7010C94D701A0
:100080000C94D7010C94D7010C94D7010C94D70190
:100090000C94D7010C94D7010C94D7010C94071C35
:1000A0000C94D7010C94D7010C94D7010C94D70170
:1000B0000C94D7010C94D7010C94D7010C94D70160
:1000C0000C94D7010C94D7010C94D7010C94D70150
:1000D0000C94D7010C94D7010C94D7010C94D70140
:1000E0000C94D701731F761F651F691F6F1FAD1F0B
:1000F0007A1F7E1F841F881F8C1F921F961F9A1FB6
:10010000AD1FA01FA41FA81F0C94F2260C941F1152
:100110000C9481190C94691F0C94E0110C94F01943
:100120000C94921F0C9422160C94F6120C947B02E1
:100130000C9417030C946B160C94F7010C940A1B87
:100140000C94DE190C94910F0C94961F0C947E1F46
:100150000C949A1F0C94EF010C94A81F0C94A920E6
:100160000C94391A0C94A7150C948C1F0C94F30161
:100170000C949F110C94E1190C9451020C94841F5F
:100180000C9414020C9439140C940E030C94100269
:100190000C9429040C941E020C94A01F0C940702CA
:1001A0000C94050F0C9423020C942E020C940C1A40
:1001B0000C94EB020C946F1F0C94D1020C945F0F03
:1001C0000C9411080C94C30F0C94A41F0C94D90127
:1001D0000C9482190C941B0F0C94A0030C94041A19
:1001E0000C942B020C940B100C94F4020C94761FBC
:1001F0000C94C8020C945F150C94B3020C9420026A
:100200000C94E0190C94731F0C94AD1F0C94DF191F
:100210000C9480120C94881F0C941F0F0C947E1564
:100220000C94651F0C947A1F000022002500280002
:100230002B002E00310034000201000005010801EE
:100240000B0100002100240027002A002D003000AF
:10025000330001010000040107010A01010210201E
:1002600020080810204010204080020102010804EC
:100270000201010204081020408080402010080480
:1002800002018004020180402010080402010804D9
:10029000020101020408102040800102040810201D
:1002A0004080050505050705080808080202020246
:1002B0000A0A080804040404010101010101010102
:1002C0000303030303030303040707070C0C0C0CCD
:1002D0000C0C0C0C020202020606060606060606B6
:1002E0000B0B0B0B0B0B0B0B00002000230026004D
:1002F00029002C002F00320000010000030106013C
:10030000090100000A0B02090C0D0E080703040185
:1003100000000000000000000000000000000000DD
:1003200000000000000000000000000000001211AA
:1003300010000000000000000000000000000000AD
:100340000000000000000000F226A92011241FBEBA
:10035000CFEFD1E2DEBFCDBF00E00CBF15E0A0E0E3
:10036000B2E0E8E9FBE500E00BBF02C007900D92A8
:10037000A631B107D9F728E0A6E1B5E001C01D928A
:10038000AE34B207E1F711E0C5EAD1E000E006C003
:1003900021970109802FFE010E947D28C43AD107D0
:1003A00080E00807A9F70E94B5200C94BA2D0C94A0
:1003B0000000CF93DF931F92CDB7DEB76983DC01D6
:1003C000ED91FC910280F381E02D41E050E0BE010F
:1003D0006F5F7F4F19950F90DF91CF910895FC01CA
:1003E000848595850895FC0184899589089527E67B
:1003F00033E0FC0131832083FB014089518962890C
:100400007389FC0142835383648375830895DC01FF
:10041000ED91FC91048CF58DE02D199480E0089508
:10042000FC01768765870895DC01ED91FC91068CCF
:10043000F78DE02D199591E089270895862F08956D
:1004400081E08627089521E0FC018485883008F04A
:1004500020E0822F089580E090E00895CF93DF930D
:10046000EC018C858830C8F40E940316843181F039
:10047000882371F0883161F08C3161F4E881F98171
:100480000084F185E02DCE01199521E0892B19F426
:1004900020E001C021E0822F01C080E0DF91CF91F8
:1004A00008950F931F930E94532000916F051091A0
:1004B00070052091710530917205DC01CB01801B24
:1004C000910BA20BB30B009108021091090220912D
:1004D0000A0230910B02081719072A073B0740F45C
:1004E000789410926F00E0E0F0E01F910F91199462
:1004F0001F910F910895CF92DF92EF92FF92CF93C9
:10050000DF93EC018C85883038F50E9465110E94DC
:1005100053206B017C018C850E9403168823D1F047
:1005200061E070E080E090E00E9419200E9453207A
:10053000AB01BC014C195D096E097F098D859E8553
:10054000A0E0B0E0481759076A077B0720F38C85C5
:100550000E94821188E08C87DF91CF91FF90EF900D
:10056000DF90CF900895CF93DF93EC018C85883096
:1005700060F40E940316873111F08C3131F48C85C0
:100580000E9457148115984088F3DF91CF91089508
:10059000FC018485883010F40C94571480E090E0BE
:1005A0000895CF93DF931F92CDB7DEB741E050E0BF
:1005B000BE016F5F7F4FFC0184850E94871418166F
:1005C00019061CF4898190E002C08FEF9FEF0F9015
:1005D000DF91CF910895FC018485883010F40C944C
:1005E000871480E090E00895CF93DF93FC01248589
:1005F000283018F08FEF9FEF0EC0EC010190F081D2
:10060000E02D0084F185E02D1995892B99F38C85D7
:100610000E94F11090E0DF91CF910895FC01848554
:10062000883010F40C942E1180E090E00895CF9261
:10063000DF92EF92FF920F931F93CF93DF93CDB78B
:10064000DEB7AF970FB6F894DEBF0FBECDBF8C01FB
:100650006B017A01CE0101960E94940B87E693E02C
:100660009BA78AA71CA61DA61EA61FA6D8011C967E
:100670008C91883060F40E940316882321F0F801E1
:1006800084850E94651188E0D8011C968C93809126
:10069000580690915906A0915A06B0915B068EA318
:1006A0009FA3A8A7B9A78B839C83AD83BE8318861D
:1006B0001F82AE01465D5F4FB601CE0101960E94DA
:1006C000B40B0097C1F0D801ED91FC910684F78539
:1006D000E02D87E693E09DA38CA38CA59DA5AEA5F8
:1006E000BFA58EA39FA3A8A7B9A7A701BE016C5D54
:1006F0007F4FC8011995AF960FB6F894DEBF0FBEB5
:10070000CDBFDF91CF911F910F91FF90EF90DF90C0
:10071000CF900895DA0190916405E92FF0E0FE2F63
:10072000EE27E60FF71F90E0982F8827A901BD015B
:100730008E0F9F1F0C94741D08958CBD9DBD089550
:100740006F927F928F929F92AF92BF92CF92DF92E1
:10075000EF92FF921F93CF93DF931F921F92CDB71B
:10076000DEB7FC011485183008F061C06A01413021
:10077000F8E05F0718F0C12C28E0D22E7A013B0187
:100780005C01CE0101960E94AA0989819A810E948A
:100790009D03812F0E94B4104C0163E070E0812F13
:1007A0000E945E13873111F08C3121F48C149D046A
:1007B00040F302C0C12CD12CCE0101960E94AA099F
:1007C00089819A810E949D039601A30160E070E0F7
:1007D000812F0E94001260E270E0812F0E94641D50
:1007E00062E070E0812F0E945E1384FD16C063E01A
:1007F00070E0812F0E945E13811106C081E090E0BD
:10080000F5019383828313C0CE0101960E94AA0949
:1008100089819A810E949D03E3CF40E162E070E00C
:10082000812F0E944013CD2849F3C70102C080E008
:1008300090E00F900F90DF91CF911F91FF90EF907C
:10084000DF90CF90BF90AF909F908F907F906F90F0
:100850000895AF92BF92CF92DF92EF92FF920F93E3
:100860001F93CF93DF931F921F92CDB7DEB78C01FA
:100870006B015A01FC018485883058F40E940316EC
:10088000882321F0F80184850E94651188E0F80131
:100890008487F60182819381A481B5810097A105A7
:1008A000B10509F45BC08F3F9F4FAF4FBF4F09F4B5
:1008B00055C060E070E081E20E947C13F82EF801E0
:1008C0008487F7E0F81708F449C0CE0101960E942A
:1008D000AA0989819A810E949D03A6014E5F5F4FFC
:1008E00024E030E06CE070E08F2D0E94EE11B50145
:1008F0008F2D0E94CA1264E070E08F2D0E94641D4B
:100900000E9453206B017C01F80184850E9403162C
:10091000873139F18C3129F1882301F10E9453206C
:10092000AB01BC014C195D096E097F09F801858591
:100930009685A0E0B0E084179507A607B70738F0C2
:1009400061E070E080E090E00E941920DDCFF801C6
:1009500084850E94821188E0F801848780E090E01D
:1009600002C081E090E00F900F90DF91CF911F9136
:100970000F91FF90EF90DF90CF90BF90AF900895D0
:10098000CF92DF92EF92FF920F931F93CF93DF935B
:10099000CDB7DEB768970FB6F894DEBF0FBECDBFF8
:1009A0006FE673E0CE0101960E94F21B6AE177E0E8
:1009B000CE0101960E94A31B64E773E00E948A1B8C
:1009C0008C016FE673E0CE010D960E94F21B6AE186
:1009D00077E0CE010D960E94A31B64E773E00E94AE
:1009E0008A1BFC014481558160E070E0CE010796CE
:1009F0000E94F618B801CE0107960E946D16182FB6
:100A0000CE0107960E94E41BCE010D960E94E41BC6
:100A1000CE0101960E94E41B6FE673E0CE01112324
:100A200009F4A5C107960E94F21B6AE177E0CE01A6
:100A300007960E94A31B64E773E00E948A1B409103
:100A4000660650916706FC0164817581CE010196AE
:100A50000E94F61889819A81009729F00E94C82780
:100A60006B017C0103C0C12CD12C7601CE01019613
:100A70000E94E41BCE0107960E94E41BF7E4CF1608
:100A8000D10408F0ACC2860181EB93E00E94DA1732
:100A9000882311F060E007C08CEA93E00E94DA1727
:100AA000882329F061E08C2D0E94AE1F29C080EBC5
:100AB00093E00E94DA17882361F081E0809320069A
:100AC00089E08093420610922106109243066AEF55
:100AD00011C084EB93E00E94DA178823C1F081E013
:100AE0008093200689E0809342061092210610929E
:100AF000430668EC84E496E00E94391A0E942618A6
:100B000080917305882309F40DC1B60165C08091F9
:100B10005C0690915D06009719F00E94C82703C0FB
:100B200060E070E0CB01709317056093160580912B
:100B300073058823B9F16091160570911705CE01F0
:100B400007960E94FA1768EB73E0CE010D960E949B
:100B5000F21BBE01695F7F4FCE010D960E94A31B61
:100B6000BC01CE0101960E94E91B6FE174E0CE0149
:100B700043960E94F21BBE016F5F7F4FCE014396EA
:100B80000E943A19CE0143960E94E41BCE010196C1
:100B90000E94E41BCE010D960E94E41BCE01079635
:100BA0000E94E41B81E08093200689E08093420646
:100BB0001092210610924306609116057091170558
:100BC00084E496E00E94391A0E94261880917305E9
:100BD000882309F4A7C0B801CE0107960E94FA172E
:100BE0006AE773E0CE010D960E94F21B62E676E0A2
:100BF000CE010D960E94A31B68E973E00E948A1B38
:100C00006AE177E00E94A31B66EA73E00E948A1BF8
:100C1000BE01695F7F4F0E94A31BBC01CE010196FC
:100C20000E94E91B6FE174E0CE0143960E94F21B23
:100C3000BE016F5F7F4FCE0143960E943A19CE01ED
:100C400043960E94E41BCE0101960E94E41BCE0154
:100C50000D960E94E41BCE0107960E94E41B809132
:100C60007305882309F45EC06DEC73E0CE0107962E
:100C70000E94F21B62E676E0CE0107960E94A31B5B
:100C8000BC01CE0101960E94E91B6FE174E0CE0128
:100C90000D960E94F21BBE016F5F7F4FCE010D9635
:100CA0000E943A19CE010D960E94E41BCE010196D6
:100CB0000E94E41BCE0107960E94E41BB801CE01FE
:100CC00007960E94FA1763ED73E0CE010D960E941D
:100CD000F21BBE01695F7F4FCE010D960E94A31BE0
:100CE000BC01CE0101960E94E91B6FE174E0CE01C8
:100CF00043960E94F21BBE016F5F7F4FCE01439669
:100D00000E943A19CE0143960E94E41BCE0101963F
:100D10000E94E41BCE010D960E94E41BCE010796B3
:100D20000E94E41B62E676E0CE010D960E94E91B6C
:100D3000BE01635F7F4FCE0107960E94E91B69EDFC
:100D400073E0CE0101960E94F21BBE01695F7F4FE6
:100D5000CE0101960E948817CE0101960E94E41BE5
:100D6000CE0107960E94E41BCE010D9636C1019676
:100D70000E94F21B6AE177E0CE0101960E94A31B5C
:100D800062EE73E00E948A1B8C016FE673E0CE0175
:100D90000D960E94F21B6AE177E0CE010D960E944B
:100DA000A31B62EE73E00E948A1BFC014481558103
:100DB00060E070E0CE0107960E94F618B801CE01FF
:100DC00007960E946D16182FCE0107960E94E41B0D
:100DD000CE010D960E94E41BCE0101960E94E41BF9
:100DE000112351F1809173058823D9F06CEE73E0E3
:100DF000CE0101960E94F21B6FE174E0CE010796CE
:100E00000E94F21BBE016F5F7F4FCE0107960E94CA
:100E10003A19CE0107960E94E41BCE0101960E946A
:100E2000E41B0E94532060936F05709370058093BC
:100E3000710590937205D3C06FE673E0CE01019601
:100E40000E94F21B6AE177E0CE0101960E94A31B8B
:100E500062E074E00E948A1B8C016FE673E0CE01B1
:100E60000D960E94F21B6AE177E0CE010D960E947A
:100E7000A31B62E074E00E948A1BFC01448155813F
:100E800060E070E0CE0107960E94F618B801CE012E
:100E900007960E946D16182FCE0107960E94E41B3C
:100EA000CE010D960E94E41BCE0101960E94E41B28
:100EB000112319F1809173058823D9F069E074E05A
:100EC000CE0101960E94F21B6FE174E0CE010796FD
:100ED0000E94F21BBE016F5F7F4FCE0107960E94FA
:100EE0003A19CE0107960E94E41BCE0101960E949A
:100EF000E41BE0E0F0E0199572C06FE673E0CE010C
:100F000001960E94F21B6AE177E0CE0101960E94F1
:100F1000A31B6EE174E00E948A1B8C016FE673E0F4
:100F2000CE010D960E94F21B6AE177E0CE010D968C
:100F30000E94A31B6EE174E00E948A1BFC014481A5
:100F4000558160E070E0CE0107960E94F618B80166
:100F5000CE0107960E946D16182FCE0107960E94AB
:100F6000E41BCE010D960E94E41BCE0101960E9467
:100F7000E41B1123C9F085E294E00E94DA17811185
:100F80003FC08AE294E00E94DA17811139C081EBF8
:100F900093E00E94DA17811133C08CE294E00E9442
:100FA000DA1781112DC032C062E676E0CE010196DB
:100FB0000E94E91B61E374E0CE0107960E94F21BD8
:100FC000BE016F5F7F4FCE0107960E943A19CE0196
:100FD00007960E94E41BCE0101960E94E41B10922A
:100FE000740568960FB6F894DEBF0FBECDBFDF91D3
:100FF000CF911F910F91FF90EF90DF90CF900895C8
:1010000081E08093730567E374E004C01092730578
:101010006FE474E0CE0101960E94F21B6AE474E072
:10102000CBCFCF92DF92EF92FF920F931F93CF938C
:10103000DF93CDB7DEB72C970FB6F894DEBF0FBEA7
:10104000CDBF20917405211180C07A01C72ED62E04
:10105000BC0181E080937405CE0101960E94F21BD1
:1010600080916206909163060097C9F069817A8148
:101070006115710591F040916406509165062D81CE
:101080003E814217530748F00E94BB2A8D819E8102
:10109000909367068093660618C00E941D29898177
:1010A0009A8190936306809362068B819C819093D2
:1010B0006506809364068D819E8190936706809378
:1010C00066061A8219821C821B821E821D82CE0134
:1010D00001960E94E41B62ED73E08CE596E00E94AD
:1010E000B61B0D2D1C2DE00EF11E0E151F0569F10E
:1010F000F80181918F0118861F821A8619861C8635
:101100001B8689831A82BE016F5F7F4FCE010796CF
:101110000E94B61B6CE576E0CE0101960E94E91BA9
:10112000BE01695F7F4FCE0101960E94A31BBC01E7
:101130008CE596E00E94CD1BCE0101960E94E41B37
:10114000CE0107960E94E41BD0CF2C960FB6F894E0
:10115000DEBF0FBECDBFDF91CF911F910F91FF90EA
:10116000EF90DF90CF9008954F925F926F927F92B1
:101170008F929F92AF92BF92CF92DF92EF92FF92A7
:101180000F931F93CF93DF931F921F92CDB7DEB7BC
:101190005C018AE696E00E94BB1881113AC036C015
:1011A0008C01CE0101960E94BB18882379F1C801F9
:1011B00001962981F70121937F01422F4F7750E05B
:1011C000449DB001459D700D549D700D1124C60EB7
:1011D000D71E47E0440C551C661C771C4A95D1F776
:1011E00027FF27C086309105D9F68FEF9FEF9093A8
:1011F0000407809303078091680690916906DC01DB
:10120000ED91FC910488F589E02D199580E090E03E
:101210008EC090906A0619828BE6E82E86E0F82E42
:1012200001E010E0C12CD12C412C512C320143940F
:10123000B8CFF92DF07FFA832FEF280FD5012C932B
:10124000F03319F58659994F0E94BB188823F1F2A3
:10125000C8018459994F0E94BB188823B9F2C8016C
:101260000396D501EC91F0E0E859F94FE380F12CB9
:10127000FE2CEE242481E20EF11C20916A0621FF4F
:1012800008C0B2E0EB0EF11C04C020E0E12CF12C10
:1012900001C022E0422E512CFC01E859F94F4F01C8
:1012A0008C01481A590A2EEF622E77247A94C801CD
:1012B000840D951D8C159D0578F5CE0101960E9433
:1012C000BB18882309F4A2CF8091010790910207EF
:1012D0000097B1F0FA81F03399F4D5012C91F30124
:1012E000E21BF1099F01200F311FE216F30640F4C3
:1012F000DC01ED91FC910190F081E02D698119955F
:101300000038110518F48981F40182830F5F1F4FA3
:10131000FFEF8F1A9F0ACBCF8091010790910207B0
:10132000892B21F40138110508F070CFC8010F9006
:101330000F90DF91CF911F910F91FF90EF90DF9071
:10134000CF90BF90AF909F908F907F906F905F9065
:101350004F90089520E5FC01208321E0218308952A
:10136000FC0182819381A481B5818093F9069093D9
:10137000FA06A093FB06B093FC068BE597E09093EA
:1013800000078093FF061092FE061092FD0688E685
:1013900096E00895CF92DF92EF92FF920F931F9302
:1013A000CF93DF93CDB7DEB7C654D1090FB6F8940B
:1013B000DEBF0FBECDBFFC0182819381A481B581C8
:1013C00023968CAF9DAFAEAFBFAF239721E023969E
:1013D0002FAF239723964CAD5DAD6EAD7FAD2397B8
:1013E0004BAB5CAB6DAB7EAB89AF9AAFABAFBCAF79
:1013F0008DA79EA7AFA7B8AB28AB4DA55EA56FA5DF
:1014000078A94FA358A769A77AA72EAB4BA95CA9C7
:101410006DA97EA949A35AA36BA37CA38B8F9C8F34
:10142000AD8FBE8F47E653E05C8B4B8B3FEF3D8B20
:101430003E8B3F8B188E5E874D872AA7CFA0D8A4FE
:10144000E9A4FAA4CF86D88AE98AFA8A2CA309A14A
:101450001AA12BA13CA109871A872B873C875A83A5
:1014600049838B839C83AD83BE8380916605811104
:101470000DC160E372E080E090E00E9419201FB788
:10148000F89480916505811127C0E7EDF2E0849121
:10149000E1E9F2E09491E82FF0E0EE0FFF1FEE5B40
:1014A000FD4FA591B491EC91E92321F461E085E32E
:1014B0000E94AE1F61E085E30E94DD1F8CB5806154
:1014C0008CBD8CB580648CBD61E084E30E94DD1F1F
:1014D00061E083E30E94DD1F809165058F5F80934B
:1014E00065051FBFECEAF2E0E491F0E0EE0FFF1FAC
:1014F000E85DFD4F8591949190936205809361051D
:10150000E6E6F2E0E491E093600561E08AE00E94A3
:10151000DD1F0E947210CE018D5B9F4F0E94AA09B1
:1015200025968EAD9FAD25970E949D0384E3809301
:1015300063050E94BE1E882319F188E00E949A105C
:101540000E9487108830E1F480E10E949A100E9486
:1015500087108031A9F480E00E949A100E948710C1
:1015600081110EC041E050E0BE016D5B7F4F8FE105
:1015700090E00E94741D24968FAD24978330A1F1D2
:1015800087E3809363050E94BE1E882309F440C050
:1015900088E00E949A100E9487108830C9F580E187
:1015A0000E949A100E948710182F803189F580E0E0
:1015B0000E949A100E94871081112AC041E050E0D9
:1015C000BE016D5B7F4F89E390E00E94741D2496FD
:1015D0008FAD24978430E1F4109364050E949C033E
:1015E00081E08093660552C080E48093640510E03A
:1015F00042E06EE170E0812F0E94401342E06FE113
:1016000070E0812F0E9440131F5F183089F7E6CFEA
:1016100083E3809363050E94BE1E882391F180E1DD
:101620000E949A100E948710803159F582E10E9431
:101630009A100E948710823121F580E00E949A1052
:101640000E94871081111DC084E08093640515E518
:1016500027961FAF279741E050E0BE016A5B7F4F9E
:101660008BE190E00E94011E26961FAF269741E075
:1016700050E0BE016B5B7F4F8AE190E00E94011E4B
:10168000ADCF109263050E949C033EC0CE018D5BDE
:101690009F4F0E94AA0925968EAD9FAD25970E9467
:1016A0009D0346E050E062E072E089E090E00E9435
:1016B000011E44E050E0BE016D5F7F4F8FE090E07F
:1016C0000E94011E44E050E0BE01615F7F4F81E057
:1016D00090E00E94011E44E050E0BE016B5E7F4F2F
:1016E00085E090E00E94011E0E949C0381E08C87AF
:1016F00089859A85AB85BC85809358069093590659
:10170000A0935A06B0935B06CA5BDF4F0FB6F894FE
:10171000DEBF0FBECDBFDF91CF911F910F91FF9024
:10172000EF90DF90CF900895FC0187E693E09183DE
:10173000808312821382148215821386128648EEE9
:1017400053E060E070E044875587668777872AE634
:1017500032E031872087978B868B108E118E128E08
:10176000138E88E080A308954F925F926F927F92CC
:101770008F929F92AF92BF92CF92DF92EF92FF92A1
:101780000F931F93CF93DF93CDB7DEB763970FB659
:10179000F894DEBF0FBECDBF7C015B013A01FB01B7
:1017A00020E080E090E06AE03191332309F140EDE0
:1017B000430F4A3080F4689FA001699F500D1124A7
:1017C000CA01C097830F911D37FD9A958F3F9105F0
:1017D00059F350F313C03E3289F4233079F0D3012A
:1017E000A20FB11D12968C932F5F80E090E0DCCFAA
:1017F000233021F4F301858381E021C0F701428188
:101800005381648175818091520690915306A09115
:101810005406B0915506481759076A077B0709F423
:1018200091C10E9453208701085F1F4F6F70772777
:101830007C5FC8010E943914813019F080E090E08B
:10184000D9C187E693E09A838983F70182819381E6
:10185000A481B5818B839C83AD83BE8345E350E037
:10186000BE016F5F7F4FC8010E94F612892B19F4E9
:10187000C12CD12C62C10E945320F701778366836B
:1018800042E050E0B7016A5F7F4FC8010E948012BA
:1018900081E090E09A83898342E050E0BE016F5F6F
:1018A0007F4FC8010E94801280E091E09A83898373
:1018B00042E050E0BE016F5F7F4FC8010E9480127E
:1018C0001A82198242E050E0BE016F5F7F4FC8016B
:1018D0000E94801242E050E0BE016F5F7F4FC8015E
:1018E0000E94801242E050E0BE016F5F7F4FC8014E
:1018F0000E9480124501F5018081882301F1640175
:101900005601F60181912F01882321F08E3211F0CA
:101910006201F6CFC818D9081C141D0474F4CD86D2
:1019200041E050E0BE01635F7F4FC8010E9480121A
:10193000A601B401C8010E9480124201DCCF1D86BD
:1019400041E050E0BE01635F7F4FC8010E948012FA
:10195000C12CDD24D394DA82C98242E050E0BE017A
:101960006F5F7F4FC8010E948012DA82C98242E015
:1019700050E0BE016F5F7F4FC8010E948012C80116
:101980000E942216892B09F473CFE3E0AE2EB12C0E
:10199000230122E0420E511C0E9453203B014C01C6
:1019A000C8010E94A71518161906A4F00E9453201A
:1019B000DC01CB0186199709A809B9098938934137
:1019C000A105B105D0F462E370E080E090E00E94F0
:1019D0001920E6CFF7014281538164817581808DA2
:1019E000918DA28DB38D481759076A077B0749F47B
:1019F000848D958DC59729F409C0CC24CA94DC2C1C
:101A000093C05EEFC52EDD24DA948EC0F70181A16C
:101A100092A10C970CF4E9C04CE050E0BE016F5F5E
:101A20007F4FC8010E945F158B819C819827892771
:101A300098279A8B898BF7014681578129813A81B2
:101A40004217530709F0C2C097FFC0C08F70927051
:101A5000892B09F0C0C06F807884762467247624AF
:101A60006114710409F4BCC0C12CD12C8D819E81FC
:101A7000982789279827C816D90608F466C0812CAC
:101A8000912C41E050E0BE016D5E7F4FC8010E9485
:101A90005F154B89842F807C09F076C0442331F098
:101AA00050E060E070E0C8010E945F158B898111F1
:101AB000E8CF42E050E0BE01615F7F4FC8010E9465
:101AC0005F1542E050E0BE01635F7F4FC8010E9496
:101AD0005F1544E050E060E070E0C8010E945F15CF
:101AE00042E050E0BE016F5E7F4FC8010E945F156B
:101AF0008F85988949895A898115914009F04DC08F
:101B0000CD84DE84DC24CD24DC2481E0C816D1041D
:101B100009F043C04115544009F053C044E050E07F
:101B2000B201C8010E945F1521E0A21AB10829F094
:101B3000FFEFCF16DF0609F42FCFC8010E94E01196
:101B4000C60158C08EEF9FEF55C041E050E0BE0186
:101B5000635F7F4FC8010E945F154D85442331F0BC
:101B600050E060E070E0C8010E945F158D85811132
:101B7000ECCF44E050E060E070E0C8010E945F15E7
:101B8000FFEFCF1ADF0A72CF41E050E060E070E073
:101B9000C8010E945F151B8A89CF54274527542707
:101BA00060E070E0C8010E945F15FFEF8F1A9F0A86
:101BB0006814790409F065CF96EFC92EDD24DA9414
:101BC000B3CF77EFC72EDD24DA94AECF4CEFC42E1F
:101BD000DD24DA94A9CF3BEFC32EDD24DA94A4CF21
:101BE0002AEFC22EDD24DA949FCF8DEFC82EDD249C
:101BF000DA949ACF63960FB6F894DEBF0FBECDBFCE
:101C0000DF91CF911F910F91FF90EF90DF90CF90D8
:101C1000BF90AF909F908F907F906F905F904F900C
:101C200008958F929F92AF92BF92CF92DF92EF92E0
:101C3000FF920F931F93CF93DF93CDB7DEB76097DB
:101C40000FB6F894DEBF0FBECDBF7C019091630547
:101C5000992309F4B8C0933311F008E001C004E0FF
:101C60005B01CE0101960E94AA0989819A810E9496
:101C70009D039E012F5F3F4F6901490110E063E022
:101C800070E0812F0E945E13F40181934F0188233D
:101C9000C9F01F5F0113F3CF10E0F60181916F01CE
:101CA0008D3159F0883149F08A51823030F01F5F10
:101CB0000113F3CF0E949C0386C060E170E0812F86
:101CC0000E94641DC12ED12C83EE93E00197F1F7A1
:101CD00042E860E070E0812F0E9440134FEF62E025
:101CE00070E0812F0E944013A114B10411F0B501DE
:101CF00013C0809100029091010201968115F0ECD1
:101D00009F0710F480E090EC909301028093000212
:101D10006091000270910102812F0E94E01286E022
:101D2000E0E6F2E0DE01199601900D928A95E1F766
:101D3000F70183818F778C8784818D8785818E875A
:101D4000A7014E5F5F4F24E030E06CE070E0812F30
:101D50000E94EE11B501812F0E94CA1226E030E0E8
:101D6000AE01475F5F4F66E070E0812F0E94EE1189
:101D700061E070E0812F0E94641D27E02C9DC0016E
:101D80002D9D900D11249C01285E3A4F7901F90197
:101D90001182108222E030E0AE01415F5F4F68E2C5
:101DA00070E0812F0E948A038F8598899827892760
:101DB0009827F701938382831682158214820E94EA
:101DC0009C03812F01C088E060960FB6F894DEBFB7
:101DD0000FBECDBFDF91CF911F910F91FF90EF907C
:101DE000DF90CF90BF90AF909F908F9008952091FB
:101DF000630590E0233311F40C9601C04896982FA8
:101E0000990F990F990F80E00895CF93DF931F9258
:101E1000CDB7DEB76983DC01ED91FC910280F381DF
:101E2000E02D41E050E0BE016F5F7F4F19950F90AC
:101E3000DF91CF910895FC01818D928D0895FC0171
:101E40009485FB018485981303C081E0983008F0E5
:101E500080E00895FF920F931F93CF93DF931F921B
:101E60001F92CDB7DEB7F82E22E030E0AE014F5F13
:101E70005F4F66E270E00E948A0309811A81102791
:101E80000127102722E030E0AE014F5F5F4F66E28E
:101E900070E08F2D0E948A0389819A819827892773
:101EA00098270817190711F08C01ECCFC8010F9083
:101EB0000F90DF91CF911F910F91FF9008950F9395
:101EC0001F93CF93DF931F921F92CDB7DEB7FC0114
:101ED00024852830E0F48C01CE0101960E94AA09E5
:101EE00089819A810E949D0322E030E0AE014F5F1C
:101EF0005F4F60E170E0F80184850E948A030981E8
:101F00001A811027012710270E949C0302C000E0BD
:101F100010E0C8010F900F90DF91CF911F910F91AA
:101F200008950F931F93CF93DF931F921F92CDB706
:101F3000DEB7FC0124852830E0F48C01CE01019647
:101F40000E94AA0989819A810E949D0322E030E0C3
:101F5000AE014F5F5F4F64E070E0F80184850E943E
:101F60008A0309811A811027012710270E949C03E8
:101F700002C000E010E0C8010F900F90DF91CF91F8
:101F80001F910F910895EF92FF920F931F93CF939C
:101F9000DF9300D01F92CDB7DEB78C017B01FB0130
:101FA0008485883050F087E693E0F8019183808340
:101FB000128213821482158222C0CE0101960E94E1
:101FC000AA0989819A810E949D0324E030E0AE0134
:101FD0004F5F5F4F6CE070E0F70184850E948A03D9
:101FE0000E949C0387E693E0F801918380838981B6
:101FF0009A81AB81BC8182839383A483B583C8011A
:102000000F900F900F900F90DF91CF911F910F9134
:10201000FF90EF900895AF92BF92CF92DF92EF9230
:10202000FF920F931F93CF93DF93CDB7DEB7AF9798
:102030000FB6F894DEBF0FBECDBF8C015B016A0105
:10204000CE0101960E94940B87E6E82E83E0F82EDD
:10205000FBA6EAA61CA61DA61EA61FA680915806D2
:1020600090915906A0915A06B0915B068EA39FA34A
:10207000A8A7B9A78B839C83AD83BE8318861F82D4
:10208000AE01465D5F4FB501CE0101960E94B40BD3
:1020900081309105B1F4D801ED91FC910488F58966
:1020A000E02DFDA2ECA28CA59DA5AEA5BFA58EA39B
:1020B0009FA3A8A7B9A7A601BE016C5D7F4FC80169
:1020C0001995AF960FB6F894DEBF0FBECDBFDF9166
:1020D000CF911F910F91FF90EF90DF90CF90BF9025
:1020E000AF900895E0916105F09162059081809133
:1020F0006005892B80830895E0916105F091620568
:102100009081809160058095892380830895CF9385
:10211000DF931F92CDB7DEB741E050E0BE016F5FA5
:102120007F4F80E090E00E94741D89810F90DF91C5
:10213000CF910895CF93DF931F92CDB7DEB78983F8
:1021400041E050E0BE016F5F7F4F80E090E00E9471
:10215000011E0F90DF91CF9108958EBD00000DB448
:1021600007FEFDCF8EB50895EF92FF921F93CF9398
:10217000DF931F921F92CDB7DEB7182F22E030E019
:10218000AE014F5F5F4F60E270E00E948A03E9801A
:10219000FA80FE24EF24FE2422E030E0AE014F5FFF
:1021A0005F4F60E270E0812F0E948A0389819A81EB
:1021B000982789279827E816F90611F07C01ECCFBB
:1021C00087E0189FF0011124E85EFA4FF582E4825F
:1021D000C7010F900F90DF91CF911F91FF90EF906B
:1021E00008951F93CF93DF931F921F92CDB7DEB751
:1021F000182FCE0101960E94AA0989819A810E9416
:102200009D03812F0E94F70E27E0129FF0011124F9
:10221000E85EFA4F22813381377041E050E0BE0121
:102220006F5F7F4F820F931F0E94741D0E949C035B
:1022300089810F900F90DF91CF911F910895FC013C
:10224000808D883040F4218D328D232B21F00E9427
:10225000F11090E008958FEF9FEF0895EF92FF92B5
:102260000F931F93CF93DF931F921F92CDB7DEB7CB
:10227000482F87E0489F90011124F901E85EFA4F4A
:102280007F01808191810097B9F4142FCE010196CE
:102290000E94AA0989819A810E949D03812F0E9430
:1022A0002A0F8C010E949C03F70186819801281B4C
:1022B0003109C901318320830F900F90DF91CF91B5
:1022C0001F910F91FF90EF9008951F93CF93DF938D
:1022D0001F921F92CDB7DEB7182FCE0101960E9434
:1022E000AA0989819A810E949D0368E070E0812F8C
:1022F0000E94641D0E949C030F900F90DF91CF916C
:102300001F9108951F93CF93DF931F921F92CDB714
:10231000DEB7182FCE0101960E94AA0989819A8101
:102320000E949D0360E170E0812F0E94641D0E9465
:102330009C030F900F90DF91CF911F910895CF9242
:10234000DF92EF92FF920F931F93CF93DF9300D012
:1023500000D0CDB7DEB78C016B017A01FC01808D16
:10236000883010F40E94821187E693E09A83898373
:10237000F60182819381A481B5818B839C83AD8397
:10238000BE83B701CE0101960E94110EF801808F25
:10239000883030F4F586E486128E118E81E001C01B
:1023A00080E026960FB6F894DEBF0FBECDBFDF915A
:1023B000CF911F910F91FF90EF90DF90CF900895F4
:1023C000CF93DF93FC01808D883028F4EF010E94C9
:1023D000821188E0888FDF91CF910895DA01909182
:1023E0006405E92FF0E0FE2FEE27E60FF71F90E0DF
:1023F000982F8827A901BD018E0F9F1F0C94011EE5
:102400007F928F929F92AF92BF92CF92DF92EF9284
:10241000FF920F931F93CF93DF931F921F92CDB71D
:10242000DEB7782E8B014A01590122E030E0AE017F
:102430004F5F5F4F64E270E00E948A03E980FA8098
:10244000FE24EF24FE24E00EF11E97013770409128
:102450006305072D10E0C801433311F4089601C04D
:102460004096982F8827990F990F990F820F931FE5
:10247000473319F4A501B40120C0A9014A0D5B1D21
:1024800041305840B8F360E078E06B01C21AD30ADB
:10249000A601B4010E94011EA5014C195D09B401F9
:1024A0006C0D7D1D80916305833339F5085F1F4FE7
:1024B000902F990F990F990F80E00E94011EEA0C4E
:1024C000FB1CF982EA8222E030E0AE014F5F5F4FF1
:1024D00064E270E0872D0E94EE110F900F90DF9163
:1024E000CF911F910F91FF90EF90DF90CF90BF9011
:1024F000AF909F908F907F900895005F1F4FD8CF2F
:102500007F928F929F92AF92BF92CF92DF92EF9283
:10251000FF920F931F93CF93DF931F921F92CDB71C
:10252000DEB77C014B01742EC52EFC01A688B7884E
:10253000D08CCE0101960E94AA0989819A810E94BD
:102540009D038D2D0E94B410072D1C2D801791071F
:1025500008F48C019801A401B5018D2D0E94001290
:102560000E949C03F70186899789800F911F978BA2
:10257000868BC8010F900F90DF91CF911F910F9123
:10258000FF90EF90DF90CF90BF90AF909F908F9093
:102590007F900895CF93DF931F921F92CDB7DEB740
:1025A00079836A8322E030E0AE014F5F5F4F60E1E4
:1025B00070E00E94EE110F900F90DF91CF9108957F
:1025C000CF93DF931F921F92CDB7DEB779836A83D3
:1025D00022E030E0AE014F5F5F4F64E070E00E94A8
:1025E000EE110F900F90DF91CF910895DF92EF924F
:1025F000FF920F931F93CF93DF931F921F92CDB73C
:10260000DEB7FB01DC0157961C921E925697228181
:10261000211109C02381211106C02481211103C089
:102620002581222309F141155105F1F07A018F012D
:10263000FC01D08CCE0101960E94AA0989819A8161
:102640000E949D03A8014E5F5F4F24E030E06CE0E4
:1026500070E08D2D0E94EE11B7018D2D0E94CA12DF
:102660000E949C0381E001C080E090E00F900F90F9
:10267000DF91CF911F910F91FF90EF90DF90089520
:10268000CF93DF931F92CDB7DEB790916405292FCA
:1026900030E0322F2227260F371F90E0982F88270F
:1026A000498341E050E0BE016F5F7F4F820F931F6F
:1026B0000E94011E0F90DF91CF910895CF93DF9379
:1026C0001F92CDB7DEB790916405292F30E0322FED
:1026D0002227260F371F90E0982F882741E050E0EF
:1026E000BE016F5F7F4F820F931F0E94741D89810F
:1026F0000F90DF91CF9108958F929F92BF92CF92CA
:10270000DF92EF92FF920F931F93CF93DF93CDB79A
:10271000DEB72A970FB6F894DEBF0FBECDBF9091FB
:102720006305992309F492C0933319F028E0B22E7F
:1027300002C094E0B92E6B01082FCE0101960E94D1
:10274000AA0989819A810E949D039E012F5F3F4FB4
:102750007901490110E063E070E0812F0E945E136F
:10276000F40181934F018823C9F01F5FB112F3CFA9
:1027700010E0F70191917F019D3159F0983149F0B6
:102780009A51923030F01F5FB112F3CF0E949C0338
:102790005DC060E170E0812F0E94641DE12EF12C8C
:1027A00083EE93E00197F1F7402F60E070E0812F16
:1027B0000E9440134FEF62E070E0812F0E944013AF
:1027C000C114D10411F0B60113C0809100029091A0
:1027D000010201968115F0EC9F0710F480E090EC67
:1027E00090930102809300026091000270910102B7
:1027F000812F0E94E01261E070E0812F0E94641D31
:1028000027E02E9DC0012F9D900D11249C01285E74
:102810003A4F7901F9011182108222E030E0AE01D5
:10282000475F5F4F68E270E0812F0E948A038985CD
:102830009A85982789279827F701938382831682A0
:10284000158214820E949C03812F01C088E02A9681
:102850000FB6F894DEBF0FBECDBFDF91CF911F91B1
:102860000F91FF90EF90DF90CF90BF909F908F904F
:1028700008950F931F93CF93DF93EC018B01888D05
:10288000883010F40E948211B80182E00E947C130B
:10289000888F883030F41D870C871A8E198E81E05E
:1028A00001C080E0DF91CF911F910F910895FF92B9
:1028B0000F931F93CF93DF931F921F92CDB7DEB775
:1028C000F82ECE0101960E94AA0989819A810E9460
:1028D0009D038F2D0E94B4108C0163E070E08F2D5A
:1028E0000E945E13F82E0E949C0387E1F81631F0D7
:1028F0008CE1F81619F080E090E001C0C8010F905B
:102900000F90DF91CF911F910F91FF9008954F92FB
:102910005F927F928F929F92AF92BF92CF92DF92FF
:10292000EF92FF920F931F93CF93DF931F921F920B
:10293000CDB7DEB7782E6B014A01A82EB12C27E067
:10294000829FC0011124AC01485E5A4F7A01FA01FE
:1029500000811181CE0101960E94AA0989819A8184
:102960000E949D030815190554F4872D0E942A0F13
:10297000F70126818C01021B1109118300830115C7
:102980001105A9F463E070E0872D0E945E13843185
:1029900009F480C0882309F47DC001E010E08C3187
:1029A00011F400E010E011950195110973C0801633
:1029B00091060CF4840187E08A9DF0018B9DF00D57
:1029C0001124E85EFA4FE280F380C114D10459F17A
:1029D0002701F7E05F22872D0E94F70E840D951DD9
:1029E00020916305273319F4A801B6011AC0980194
:1029F000240D351D21303840B8F320E038E049017E
:102A000084189508A401B6010E94741D2601480C83
:102A1000591C6801C818D908872D0E94F70EA60115
:102A2000B2010E94741DE00EF11E87E08A9DF00144
:102A30008B9DF00D1124E85EFA4FF382E2828081D3
:102A40009181801B910B918380832681A801420F85
:102A5000511D4A3F510510F4892BD9F487E08A9D16
:102A6000F0018B9DF00D1124E85EFA4F1682F98279
:102A7000EA8222E030E0AE014F5F5F4F68E270E033
:102A8000872D0E94EE1160E470E0872D0E94641D86
:102A900001C046830E949C03C8010F900F90DF91F4
:102AA000CF911F910F91FF90EF90DF90CF90BF904B
:102AB000AF909F908F907F905F904F900895CF93AD
:102AC000DF93FC01218D328D2115310519F48FEF33
:102AD0009FEF11C0EC014217530708F0A901888D40
:102AE0000E9487141816190694F7298D3A8D281B11
:102AF000390B3A8F298FDF91CF9108950F931F9350
:102B0000CF93DF931F92CDB7DEB7FC01218D328DBD
:102B1000232B61F08C0141E050E0BE016F5F7F4FDD
:102B2000808D0E948714181619061CF08FEF9FEFF6
:102B300008C0F801818D928D0197928F818F8981D4
:102B400090E00F90DF91CF911F910F9108950F9317
:102B50001F93CF93DF93CDB7DEB728970FB6F894C6
:102B6000DEBF0FBECDBF8C01D80159964D915C914F
:102B70005A974115510551F0ED91FC91048CF58D5A
:102B8000E02D60E070E0C8011995EECFF801808D6E
:102B90000E942E11892B51F148E050E0BE016F5F79
:102BA0007F4FD80158968C910E94871418161906E9
:102BB000FCF4D801509684E0FE01319601900D920C
:102BC0008A95E1F78D8190E0982F88272E81820FDA
:102BD000911DF801958B848B8F8190E0982F882729
:102BE0002885820F911D928F818F02C080E090E036
:102BF00028960FB6F894DEBF0FBECDBFDF91CF9100
:102C00001F910F9108951F93CF93DF931F921F92EF
:102C1000CDB7DEB7182FCE0101960E94AA0989818F
:102C20009A810E949D0363E070E0812F0E945E13F1
:102C3000182F0E949C03812F0F900F90DF91CF914E
:102C40001F9108951F93CF93DF931F921F92CDB7CB
:102C5000DEB7FC01108DCE0101960E94AA09898180
:102C60009A810E949D0360E270E0812F0E94641DA2
:102C700062E070E0812F0E945E1384FD1CC062E060
:102C800070E0812F0E945E1383FF0AC048E162E07A
:102C900070E0812F0E9440130E949C0380E014C0CA
:102CA0000E949C03CE0101960E94AA0989819A8103
:102CB0000E949D03DDCF40E162E070E0812F0E9421
:102CC00040130E949C0381E090E00F900F90DF91F1
:102CD000CF911F9108950E948B2AFC012481358198
:102CE000FB01448155812417350721F5FC018081C2
:102CF0009181FB0160817181009719F06115710567
:102D0000A1F46115710549F0232BB1F0FB0180811D
:102D100090E09195819591090AC0009769F0232B65
:102D200059F0FC01808190E002C00E94B22A21E0AB
:102D3000892B19F020E001C021E0822F0895CF9364
:102D4000DF93EC01FA013296E60FF71FDC01AD01CB
:102D50004C1B5D0BCF01861B970B2D91222311F08D
:102D60002193F5CF9C01241B350B620F731FFB01D0
:102D70003297508331964083DF91CF910895EF923F
:102D8000FF920F931F93CF93DF9300D01F92CDB785
:102D9000DEB79A01E0E0922F9F77220F232F221FA8
:102DA000330B31952115310509F0906801E00E0FC4
:102DB000A1E0B0E0AC0FBD1FAE0FB11DFD019083CF
:102DC0002115310511F0E02FE6CF10E09B01201B0B
:102DD000310B2C5F3F4FF9018083DE011196FB011F
:102DE000E01BF10B3596CB010596E817F90719F0B2
:102DF0006D916193FACF80916806909169064F5F5B
:102E00005F4F040F151FDC01ED91FC910280F381EF
:102E1000E02DA801B90119957C010E94532060930F
:102E2000EC067093ED068093EE069093EF0681E03A
:102E30000E151F0509F080E00F900F900F900F9076
:102E4000DF91CF911F910F91FF90EF900895CF9355
:102E50008091680690916906009771F1DC01ED910F
:102E6000FC910688F789E02D1995C1E0811125C0F4
:102E7000C0E08091030790910407892BF1F48DEF56
:102E80009FEF9093040780930307809168069091C9
:102E90006906DC01ED91FC910680F781E02D199522
:102EA0008091680690916906DC01ED91FC9104889F
:102EB000F589E02D199501C0C0E08C2FCF910895C0
:102EC0000F931F93CF93DF9341155105E1F06115E7
:102ED0007105C9F0FC01C481D581209719F4FB016B
:102EE000108211C0415051094C175D0708F4EA01E6
:102EF0008B01FC0160817181AE01C8010E94C22A70
:102F0000C00FD11F1882DF91CF911F910F910895AB
:102F1000CF93DF93EB01FC01448155814F5F5F4FFD
:102F200060E977E00E9460174C815D814F5F5F4FE1
:102F30006CE277E0CE010E946017CCE2D7E0099006
:102F40000020E9F72197CC52D7400E942717882309
:102F500071F1E0E9F7E001900020E9F7CE018E0F72
:102F60009F1F8A5897408138910508F545E050E049
:102F70006AE676E080E997E00E949F16DC01A65998
:102F8000B94FECE2F7E09F012C5237402C173D0778
:102F900018F421912D93F7CF2597AE01480F591FB3
:102FA0006AE676E080E3DF91CF910C94BF16DF9163
:102FB000CF910895FC018091600690916106892B64
:102FC00021F421E0309749F413C080915C06909180
:102FD0005D06309731F421E0FC018081882341F0C7
:102FE00006C0BF010E94B22A21E0892B09F020E02F
:102FF000822F08950F931F93CF93DF93CDB7DEB742
:1030000062970FB6F894DEBF0FBECDBF8C01CB0127
:10301000F8011182108213821282158214824AE012
:10302000BE016F5F7F4F0E94EF27BE016F5F7F4F32
:10303000C8010E94B61B62960FB6F894DEBF0FBEA1
:10304000CDBFDF91CF911F910F910895309143062D
:10305000313208F04BC080911F068111FCCF909156
:10306000420622E020931F0621E020931E062FEF48
:1030700020931D0610921C0630931B06E2E2F6E038
:10308000ABEFB5E020E0321721F041914D932F5F77
:10309000FACF1092FA052091FA05990F922B90938E
:1030A000FA059091F905913061F41092F90590912B
:1030B000FA059093BB009091BC0093FDF8CF95EC7E
:1030C00001C095EE9093BC0090911F069230E1F301
:1030D00090911D069F3F79F080911D06803241F04E
:1030E00080911D06803331F084E005C081E003C08B
:1030F00082E001C083E010922106109243061092F4
:1031000020060895E7ECF5E001900020E9F7CF01F3
:103110008F5B95408138910560F50E9427178823C1
:1031200041F18091EA069091EB06019611F481E05D
:1031300090E09093EB068093EA068091EA069091E6
:10314000EB0690936F068093700647E050E06AE6C6
:1031500076E087EC95E00E949F16FC01E859F94F54
:103160001282AC01445051096AE676E082E80C9480
:10317000BF1680E00895CF92DF92EF92FF92CF9337
:10318000DF93EC010E9453206B017C018091680663
:1031900090916906DC01ED91FC910084F185E02DB0
:1031A0001995892B79F40E945320DC01CB018C19ED
:1031B0009D09AE09BF0988399A43A105B10530F3CD
:1031C00080E00DC08091680690916906DC01ED9168
:1031D000FC910284F385E02D1995888381E0DF91CD
:1031E000CF91FF90EF90DF90CF900895CF92DF9234
:1031F000EF92FF920F931F93CF93DF936C018B019C
:103200007A014617570720F4812F8A01E62EF82EFF
:1032100062ED73E0C6010E94F21BC0916606D09178
:1032200067060C171D07E0F4EC16FD0608F4E7012D
:10323000E0916206F0916306EC0FFD1FF0801082B2
:103240006091620670916306600F711FC6010E9453
:10325000B61B8091620690916306C80FD91FF88251
:10326000C601DF91CF911F910F91FF90EF90DF90FA
:10327000CF9008950F931F93CF93DF93CDB7DEB711
:1032800062970FB6F894DEBF0FBECDBF8C01CE01A2
:1032900001960E94E91B61E175E0CE010D960E9446
:1032A000F21BB801CE010D960E94A31B62E773E0EA
:1032B0000E948A1B6AE177E00E94A31BBC01CE0139
:1032C00007960E94E91BBE016F5F7F4FCE010796F4
:1032D0000E948817CE0107960E94E41BCE010D962E
:1032E0000E94E41BCE0101960E94E41B62960FB679
:1032F000F894DEBF0FBECDBFDF91CF911F910F912C
:1033000008950895CF92DF92EF92FF920F931F934B
:10331000CF93DF936C017A018B01C0E0D0E0CE1532
:10332000DF0581F0D8016D918D01D601ED91FC9101
:103330000190F081E02DC6011995892B11F021969D
:10334000EECF7E01C701DF91CF911F910F91FF90CA
:10335000EF90DF90CF90089585ED8093BC00809131
:10336000BC0084FDFCCF10921F06089540911E08FA
:10337000262F30E0240F311D21323105DCF420915D
:103380001F062430C9F4FC0180E090E0861758F451
:1033900030911E082191DC01A250B84FA30FB11D3E
:1033A0002C930196F3CF80911E08680F60931E083E
:1033B00080E0089581E0089582E0089508950895D9
:1033C0000895E0916C0580916B05E81730F4F0E00A
:1033D000E252F84F808190E008958FEF9FEF0895BB
:1033E00090916C0580916B05981750F4E92FF0E0EF
:1033F000E252F84F208130E09F5F90936C0502C04D
:103400002FEF3FEFC901089580916B0590E0209167
:103410006C05821B91090895CF92DF92EF92FF9283
:103420000F931F93CF93DF937C01CB018A012091EF
:103430002006222389F0EB016B01C40ED51ECC15AA
:10344000DD0569F06991D701ED91FC910190F08162
:10345000E02DC7011995F3CF642F0E94B619C8015A
:10346000DF91CF911F910F91FF90EF90DF90CF9060
:103470000895CF93DF931F92CDB7DEB76983209174
:1034800020062223D1F020914306203240F021E093
:1034900030E0FC013383228380E090E015C080910E
:1034A0002106E82FF0E0EE5DF94F998190838F5F60
:1034B000809321068093430605C061E0CE0101960A
:1034C0000E94B61981E090E00F90DF91CF910895AE
:1034D000FC0120812EBD9B012150310941F0518119
:1034E0000DB407FEFDCF4EB55EBD4193F5CF6150E3
:1034F0007109FC01E60FF71F0DB407FEFDCF8EB575
:10350000808308950F931F93CF93DF93EC018881FD
:103510009981009729F02A813B812617370788F483
:103520008B016F5F7F4F0E94A629009761F09983FE
:1035300088831B830A832C813D81232B11F4FC019A
:10354000108281E001C080E0DF91CF911F910F9147
:103550000895EF92FF920F931F93CF93DF9361151E
:10356000710511F480E01CC041155105C1F07B01CB
:10357000EC018C819D818A01080F191FB801CE01D1
:103580000E94821A882371F3288139818C819D8160
:10359000B701820F931F0E94BB2A1D830C8381E019
:1035A000DF91CF911F910F91FF90EF900895CF93EE
:1035B000DF93EC0188819981009711F00E941D2909
:1035C000198218821D821C821B821A82DF91CF9180
:1035D0000895EF92FF920F931F93CF93DF93EC0127
:1035E0007B018A01BA010E94821A811104C0CE01B6
:1035F0000E94D71A07C01D830C83B7018881998167
:103600000E94BB2ACE01DF91CF911F910F91FF90B5
:10361000EF9008958F929F92AF92BF92CF92DF92D8
:10362000EF92FF920F931F93CF93DF937C01EB01F7
:103630006C0182E0C80ED11C4701E5E08E0E911CA2
:1036400000E010E0F60141916F0150E060E070E0B1
:103650002AE0CE010E94FC1E5C01E881F981019004
:10366000F081E02D6EE2CE0119958A0D9B1D080FA9
:10367000191F8C149D0431F7F701458150E060E07B
:1036800070E02AE0CE010E94FC1E800F911FDF91A6
:10369000CF911F910F91FF90EF90DF90CF90BF904F
:1036A000AF909F908F900895EF92FF920F931F938A
:1036B000CF93DF93CDB7DEB728970FB6F894DEBF70
:1036C0000FBECDBF7C01CB014AE08E010F5F1F4FC3
:1036D000B8010E94EF27F80101900020E9F7319727
:1036E000AF01401B510BB801C7010E94A91A8111FB
:1036F00003C0C7010E94D71AC70128960FB6F894D5
:10370000DEBF0FBECDBFDF91CF911F910F91FF9014
:10371000EF900895CF93DF93EC016115710561F08F
:10372000FB0101900020E9F73197AF01461B570BD1
:103730000E94A91A811103C0CE010E94D71ACE019E
:10374000DF91CF910895CF93DF93EC01FB0144818A
:103750005581608171810E94A91A811103C0CE0137
:103760000E94D71ACE01DF91CF910895CF93DF93B6
:10377000EC016115710559F0FB0101900020E9F79A
:103780003197AF01461B570B0E94E91A02C00E94F5
:10379000D71ACE01DF91CF910895CF93DF93EC013B
:1037A000FB018617970761F06081718161157105D2
:1037B00029F0448155810E94E91A02C00E94D71A5B
:1037C000CE01DF91CF910895FC01808191810C940D
:1037D0001D29FC011182108213821282158214822B
:1037E0000C94CD1BFC01118210821382128215826F
:1037F00014826115710551F0FB0101900020E9F779
:103800003197AF01461B570B0C94E91A08951F928C
:103810000F920FB60F9211240BB60F922F933F9376
:103820004F935F936F937F938F939F93AF93BF93C8
:10383000EF93FF938091B900887F803609F49CC094
:1038400068F5883209F45BC090F4803109F454C003
:1038500038F4882309F4F6C0883009F44DC0F6C066
:10386000883109F44CC0803209F45DC0EFC0803467
:1038700009F468C048F4803309F455C0883309F06E
:10388000E5C080931D06D8C0803509F44FC0883547
:1038900009F45DC0883409F0D9C0D6C0883909F46C
:1038A000C7C0A8F4883709F467C038F4883609F42B
:1038B00063C0803709F460C0C9C0883809F4B8C053
:1038C000803909F45FC0803809F0C0C05BC0803B1C
:1038D00009F486C038F4803A09F466C0883A09F4DD
:1038E0007FC0B4C0803C09F4A7C0883C09F4A4C0E0
:1038F000883B09F48AC0AAC08091FA0510C0909153
:103900001C0680911B06981770F5E0911C0681E05B
:103910008E0F80931C06F0E0E550FA4F8081809373
:10392000BB0085EC86C080931D068EC0E0911C060E
:1039300081E08E0F80931C068091BB00F0E0E55083
:10394000FA4F808390911C0680911B066EC0E09117
:103950001C0681E08E0F80931C068091BB00F0E076
:10396000E550FA4F808380911E0681116DC081E081
:103970008093F90584EA61C083E080931F0610926A
:103980004008CFCF80914008803208F051C0E091CC
:10399000400881E08E0F809340088091BB00F0E0EA
:1039A000E05EF74F8083BDCF85EC8093BC00109222
:1039B0001F0680914008803230F4E0914008F0E02A
:1039C000E05EF74F10826091400870E0E09167057B
:1039D000F091680580E298E019951092400836C091
:1039E00084E080931F0610921F0810921E08E09139
:1039F0006905F0916A05199580911E08811105C02D
:103A000081E080931E081092FE07E0911F0881E07C
:103A10008E0F80931F08F0E0E250F84F8081809372
:103A2000BB0090911F0880911E08981708F479CF69
:103A300085E88093BC000AC085EC8093BC0010929E
:103A40001F0604C010921D060E94AC19FF91EF9151
:103A5000BF91AF919F918F917F916F915F914F91A6
:103A60003F912F910F900BBE0F900FBE0F901F90A4
:103A700018951F920F920FB60F9211240BB60F924A
:103A80002F933F934F935F936F937F938F939F9366
:103A9000AF93BF93EF93FF93E0916D05F0916E05A7
:103AA0001995FF91EF91BF91AF919F918F917F9168
:103AB0006F915F914F913F912F910F900BBE0F909F
:103AC0000FBE0F901F901895CF93C82F462F61E01F
:103AD00070E00E94401361E070E08C2F0E945E1342
:103AE0008111F9CFCF910895AF92BF92CF92DF921B
:103AF000EF92FF920F931F93CF93DF9300D01F920B
:103B0000CDB7DEB78C016B017A01809163058333F9
:103B1000F1F45B016801C40ED51E0C151D0509F4F6
:103B200060C00E947C108FE00E94AD10812F0E9427
:103B3000AD10802F0E94AD100F5F1F4F80E00E94DC
:103B4000AD10F50181935F010E947210E6CF8433BE
:103B5000F1F40E947C1019830A838F2D8F778B8359
:103B6000EC8264E070E0CE0101960E94681AA70121
:103B700060E070E0C6010E94AB2AE114F10421F07C
:103B8000B701C6010E94681A0E9472102AC00E94E2
:103B90007C100F3F110509F020F419820A831B8263
:103BA0001DC017FD0BC019820A8333E016950795D7
:103BB0003A95E1F7007E08600B8310C0C80126E04B
:103BC000969587952A95E1F719830A83807E0115DA
:103BD000104C10F4806101C088618B8363E070E059
:103BE000C2CFC7010F900F900F900F90DF91CF9130
:103BF0001F910F91FF90EF90DF90CF90BF90AF900B
:103C00000895AF92BF92CF92DF92EF92FF920F93FF
:103C10001F93CF93DF93CDB7DEB728970FB6F894F5
:103C2000DEBF0FBECDBF8C017B016A0180916305B1
:103C30008333E1F45801A40EB51E0A151B0509F4DF
:103C40008BC00E947C1080EF0E94AD10812F0E94DB
:103C5000AD10802F0E94AD100F5F1F4FF7018191B3
:103C60007F010E94AD100E947210E7CF843321F5CE
:103C70000E947C1019830A838D2D80688B83CC82EF
:103C800064E070E0CE0101960E94681A87010C0D75
:103C90001D1DE016F10669F0F70181917F010E9478
:103CA000AD10F7CFB6016D5F7F4FCE0101960E9438
:103CB000681A0E94721050C00E947C100F3F1105BC
:103CC00009F020F419820A8384E01CC017FD0BC0A0
:103CD00019820A8333E0169507953A95E1F7007E3D
:103CE0000C600B8310C0C80126E0969587952A9535
:103CF000E1F719830A83807E0115104C10F484616A
:103D000001C08C618B8326E0C216D10498F420E0B8
:103D1000822F90E08C159D0528F6E4E0F0E0EC0F92
:103D2000FD1FE80FF91FD701A80FB91F8C918083E1
:103D30002F5FEECF63E070E0CE0101960E94681A1B
:103D400087010C0D1D1DF70181917F010E94AD10AF
:103D5000E016F106C1F7ADCFC60128960FB6F8946C
:103D6000DEBF0FBECDBFDF91CF911F910F91FF90AE
:103D7000EF90DF90CF90BF90AF900895CF93DF93F7
:103D800080E80E949A10C4E1D0E00E948710882346
:103D900051F061E070E080E090E00E9419202197EE
:103DA000A1F780E001C081E0DF91CF9108953FB796
:103DB000F8948091460890914708A0914808B091E6
:103DC000490826B5A89B05C02F3F19F00196A11DF3
:103DD000B11D3FBFBA2FA92F982F8827820F911DA1
:103DE000A11DB11DBC01CD0142E0660F771F881FE8
:103DF000991F4A95D1F708958F929F92AF92BF92E3
:103E0000EF92FF920F931F93CF93DF93CDB7DEB75F
:103E1000A1970FB6F894DEBF0FBECDBF7C01FA01AB
:103E2000CB0119A2223008F42AE08E010F5D1F4F4A
:103E3000822E912CA12CB12CBF01A50194010E94CE
:103E40005B28F901CA01015011096A3014F4605D60
:103E500001C0695CD8016C93232B242B252B61F7BF
:103E60000115110591F0F80101900020E9F7319753
:103E7000AF01401B510BD701ED91FC910280F38102
:103E8000E02DB801C701199502C080E090E0A1962D
:103E90000FB6F894DEBF0FBECDBFDF91CF911F915B
:103EA0000F91FF90EF90BF90AF909F908F900895EB
:103EB00090E0FC013197E231F10508F04EC088270F
:103EC000EE58FF4F8F4F0C947D28809180008F77A4
:103ED00003C0809180008F7D809380000895809141
:103EE0008000877FF9CF84B58F7702C084B58F7D3E
:103EF00084BD08958091B0008F7703C08091B00099
:103F00008F7D8093B0000895809190008F7707C0D7
:103F1000809190008F7D03C080919000877F809377
:103F2000900008958091A0008F7707C08091A00035
:103F30008F7D03C08091A000877F8093A0000895AB
:103F4000809120018F7707C0809120018F7D03C071
:103F500080912001877F8093200108951F93CF9344
:103F6000DF93282F30E0F901EE5FFC4F8491F901D7
:103F7000E45AFD4FD491F901EE55FD4FC491CC2385
:103F8000C1F0162F81110E94581FEC2FF0E0EE0FA8
:103F9000FF1FE85DFD4FA591B4919FB7F8941111F3
:103FA00004C08C91D095D82302C0EC91DE2BDC9319
:103FB0009FBFDF91CF911F910895CF93DF9390E042
:103FC000FC01E45AFD4F2491FC01EE55FD4F849114
:103FD000882361F190E0880F991FFC01EE5BFD4F93
:103FE000C591D491FC01E85DFD4FA591B49161119B
:103FF00009C09FB7F8948881209582238883EC912B
:104000002E230BC0623061F49FB7F8948881322F61
:10401000309583238883EC912E2B2C939FBF06C071
:104020008FB7F894E8812E2B28838FBFDF91CF9133
:1040300008958F929F92AF92BF92CF92DF92EF92AC
:10404000FF926B017C010E94D71E4B015C01C114E1
:10405000D104E104F104F1F00E94D71EDC01CB0190
:1040600088199909AA09BB09883E9340A105B105A1
:1040700070F321E0C21AD108E108F10888EE880E39
:1040800083E0981EA11CB11CC114D104E104F10409
:1040900019F7DDCFFF90EF90DF90CF90BF90AF90FA
:1040A0009F908F9008952FB7F89460914208709177
:1040B000430880914408909145082FBF08951F92AE
:1040C0000F920FB60F9211242F933F938F939F93CC
:1040D000AF93BF938091420890914308A091440808
:1040E000B09145083091410823E0230F2D3720F48B
:1040F0000196A11DB11D05C026E8230F0296A11D42
:10410000B11D209341088093420890934308A093E7
:104110004408B09345088091460890914708A091C3
:104120004808B09149080196A11DB11D8093460829
:1041300090934708A0934808B0934908BF91AF9166
:104140009F918F913F912F910F900FBE0F901F90D5
:1041500018958CE596E00E94E41B82E696E00E94AA
:10416000E41B8AE197E00C94E41BCF93DF93CDB777
:10417000DEB7EE970FB6F894DEBF0FBECDBF7894D2
:1041800084B5826084BD84B5816084BD85B582605C
:1041900085BD85B5816085BD80916E00816080930D
:1041A0006E00109281008091810082608093810076
:1041B0008091810081608093810080918000816086
:1041C000809380008091B10084608093B1008091E1
:1041D000B00081608093B0008091910082608093F4
:1041E0009100809191008160809391008091900076
:1041F0008160809390008091A10082608093A100F3
:104200008091A10081608093A1008091A0008160D5
:104210008093A00080912101826080932101809190
:104220002101816080932101809120018160809330
:10423000200180917A00846080937A0080917A00D6
:10424000826080937A0080917A00816080937A0006
:1042500080917A00806880937A001092C100109259
:104260006C0510926B051092210610924306109275
:104270001F0681E080931E061092F90561E084E13B
:104280000E94AE1F61E085E10E94AE1F8091B900DF
:104290008E7F8093B9008091B9008D7F8093B900A3
:1042A00088E48093B80085E48093BC008EED99E1AA
:1042B00090936A05809369058FED99E19093680565
:1042C00080936705809107021F928F938091060269
:1042D0001F928F93809105021F928F938091040209
:1042E0001F928F93809103021F928F9380910202FD
:1042F0001F928F9385E694E09F938F938E010F5FBB
:104300001F4F1F930F930E94D12A87E6E82E83E068
:10431000F82EFBA2EAA28091220790912307A09198
:104320002407B09125078CA39DA3AEA3BFA3CE0104
:1043300082960E94CA09FBA2EAA280910707909187
:104340000807A0910907B0910A078CA39DA3AEA30B
:10435000BFA3CE0182960E94B00981E198E09093BC
:10436000F6068093F5060FB6F894DEBF0FBECDBFFC
:1043700097EBE92E92E0F92ED7018C91B2E0EB0E8B
:10438000F11C62E00E94DD1FE5E0EE16E3E0FE06B0
:1043900099F760E08CE20E94DD1FA7E9EA2EA2E017
:1043A000FA2EB7EBAB2EB2E0BB2ED701DC90B2E019
:1043B000EB0EF11C61E08D2D0E94DD1F61E08D2D63
:1043C0000E94AE1FAE14BF0481F70E945320609379
:1043D0006F0570937005809371059093720580E16D
:1043E000809381001092800082E19AE79093870089
:1043F0008093860084E18093810081E592E0909330
:104400006E0580936D0581E080936F0080E49EE7E8
:10441000A5E0B0E08093080290930902A0930A02FD
:10442000B0930B02FE013896FBAFEAAFF7E62F2EF2
:10443000F3E03F2E0E942717811105C262ECC62EC1
:104440007FE0D72EECEFEE2EFF24FA940E94271780
:104450008111F9C139A628A61AA61BA61CA61DA65D
:10446000C8010E94AA0989819A810E949D0344E0A3
:1044700050E0BE01665D7F4F8FE090E00E94741DAA
:104480000E949C036AA57BA58CA59DA51BA21AA2D0
:104490001DA21CA21FA21EA22AE0A8010E940F2892
:1044A000B801CE0182960E94B61B63E874E0C80191
:1044B0000E94F21BBE016E5D7F4FC8010E94A31BCC
:1044C000BC01CE01C4960E94E91BC8010E94E41BF6
:1044D000CE0182960E94E41B48AD59AD4F5F5F4FFD
:1044E00067EC75E0CE01C4960E9460170E94271702
:1044F0008111D3C06091FD067091FE06809168061F
:10450000909169064091FF0650910007DC01ED9102
:10451000FC916115710521F00088F189E02D12C030
:104520000684F785E02D3A8229828090F9069090E2
:10453000FA06A090FB06B090FC068B829C82AD82AE
:10454000BE82B80119958130910509F09FC0909302
:10455000EB068093EA0687E0E0E9F2E0D8010190FB
:104560000D928A95E1F7F801AFE6B6E081918D935F
:104570002AAD3BADE217F307C9F7C0927606109259
:104580007706D09278064FE050E06AE676E087EC56
:1045900095E00E949F16AC016AE676E089E994E016
:1045A0000E949F16AC016AE676E083EA94E00E94DE
:1045B0009F16AC01455051096AE676E080E10E9401
:1045C000BF160E9453206093EC067093ED06809313
:1045D000EE069093EF066093F0067093F1068093D9
:1045E000F2069093F3068091680690916906DC01CB
:1045F000ED91FC910084F185E02D1995892BD1F482
:104600000E9453208090F0069090F106A090F20650
:10461000B090F306DC01CB0188199909AA09BB09FE
:1046200088399A43A105B105F0F2F0920407E092AF
:10463000030720C0CE0182960E94B4080497D1F4EB
:1046400080916D06811111C00E9453206093F00685
:104650007093F1068093F2069093F3061092F4069D
:10466000109204071092030718C090E0909304077B
:10467000809303078091680690916906DC01ED91B3
:10468000FC910488F589E02D1995A5C3EEEFFFEFA5
:10469000F0930407E09303079EC36FE673E0C8013D
:1046A0000E94F21B6AE177E0C8010E94A31B69EA3D
:1046B00074E00E948A1BBC01CE018E960E94E91B09
:1046C000C8010E94E41B4AA95BA94F5F5F4F67ECDA
:1046D00075E0CE018E960E9460170E9482186FE6E8
:1046E00073E0C8010E94F21B6AE177E0C8010E94F2
:1046F000A31B62E074E00E948A1BBC01CE018E966F
:104700000E94CD1BC8010E94E41B4AA95BA94F5F10
:104710005F4F67EC75E0CE018E960E9460170E9495
:1047200082186FE673E0C8010E94F21B6AE177E02D
:10473000C8010E94A31B62EE73E00E948A1BBC01A9
:10474000CE018E960E94CD1BC8010E94E41B4AA98F
:104750005BA94F5F5F4F67EC75E0CE018E960E94BC
:1047600060170E9482186FE673E0C8010E94F21B76
:104770006AE177E0C8010E94A31B6EE174E00E9429
:104780008A1BBC01CE018E960E94CD1BC8010E94DF
:10479000E41B4AA95BA94F5F5F4F67EC75E0CE0150
:1047A0008E960E9460170E9482188091730588235C
:1047B000B9F060EB74E0C8010E94F21B6AE474E097
:1047C000CE0182960E94F21BB801CE0182960E9411
:1047D0003A19CE0182960E94E41BC8010E94E41B94
:1047E00061EC74E0C8010E94F21B6AEB74E0CE0138
:1047F00088960E94F21B6AE177E0CE0188960E94BB
:10480000A31B60EC74E00E948A1BBC01CE0182965F
:104810000E94E91BB801CE0182960E948817CE0142
:1048200082960E94E41BCE0188960E94E41BC80178
:104830000E94E41BCE018E960E94E41BCE01C4961A
:104840000E94E41B03CE0E942717882309F423C18A
:104850000E9453202B013C018091F0069091F106BB
:10486000A091F206B091F306A3019201281B390B27
:104870004A0B5B0BDA01C90189399A43A105B105DD
:10488000A8F48091EC069091ED06A091EE06B0910F
:10489000EF06A3019201281B390B4A0B5B0BDA01CF
:1048A000C90189399A43A105B105C8F12091F406DF
:1048B0008091680690916906222371F02CEF3FEFFA
:1048C0003093040720930307DC01ED91FC910488E9
:1048D000F589E02D1995DFC020EC20936A0610922F
:1048E0006B06DC01ED91FC910280F381E02D42E04A
:1048F00050E06AE676E019954092EC065092ED069B
:104900006092EE067092EF064092F0065092F10629
:104910006092F2067092F30681E08093F406809133
:10492000680690916906DC01ED91FC910084F185A7
:10493000E02D1995892B09F4AEC0C8010E94B40876
:104940005C01892B09F4A5C04092F0065092F10653
:104950006092F2067092F30680916A06807F80333F
:1049600009F07BC08091F5069091F606892B09F439
:1049700092C0C980D12CF601E859F94FE380F12C9F
:10498000FE2CEE248481E80EF11CF601E459F94F67
:104990004F01B6016359794FA701CF010E94992AAF
:1049A000B7016C0D7D1DDB01A859B94F14961C92FF
:1049B000149780916A0686708EAFE091F506F091AB
:1049C000F6068230E9F515968C91159790E0982FB0
:1049D000882716962C91AC01420F511D5DAF4CAF4C
:1049E0004BEF5FEF4C195D094E195F094A0D5B1DD6
:1049F0006159794FC401199580E480936A065EADD0
:104A000050936B068DAD80936C069CAD90936D06B4
:104A10008091680690916906DC01ED91FC9102801D
:104A2000F381E02D44E050E06AE676E0199540928B
:104A3000EC065092ED066092EE067092EF062BC0E7
:104A40004DEF5FEF4C195D094E195F094A0D5B1D73
:104A50006359794FC40119951EC0803CA9F480EDBB
:104A600080936A0610926B068091680690916906A1
:104A7000DC01ED91FC910280F381E02D42E050E0F9
:104A80006AE676E0199507C0803D29F41092F40695
:104A900002C00E9427179CE0692E92E0792E25E73C
:104AA000A22E25E0B22E37EB432E32E0532EC12C3E
:104AB000D12CF201819091902F0194013327F901BB
:104AC000EE5FFC4F8491F901E45AFD4FE490F90147
:104AD000EE55FD4FF490FF20A1F081110E94581F68
:104AE000EF2DF0E0EE0FFF1FE851FD4FA591B491BF
:104AF000EC91EE2291E080E009F490E0E92EF82EAE
:104B000002C0E12CF12CD3018D919C918E159F0553
:104B100009F442C0809173058823A1F1B601CE014A
:104B200082960E94FA1767EC74E0CE0188960E9484
:104B3000F21BBE016E5D7F4FCE0188960E94A31BC3
:104B40006CED74E00E948A1BBC01C8010E94E91B45
:104B50006AE474E0CE018E960E94F21BB801CE0189
:104B60008E960E943A19CE018E960E94E41BC801CF
:104B70000E94E41BCE0188960E94E41BCE0182961F
:104B80000E94E41B0E9453206093C3057093C405E8
:104B90008093C5059093C605E114F10431F4F50145
:104BA00080819181892B39F0FAC0D5018D919C913A
:104BB000019709F0F4C0809173058823A1F1B60133
:104BC000CE0182960E94FA176EED74E0CE018896AF
:104BD0000E94F21BBE016E5D7F4FCE0188960E943F
:104BE000A31B6CED74E00E948A1BBC01C8010E94EB
:104BF000E91B6AE474E0CE018E960E94F21BB801B4
:104C0000CE018E960E943A19CE018E960E94E41B28
:104C1000C8010E94E41BCE0188960E94E41BCE01CD
:104C200082960E94E41B0E9453202091C30530917C
:104C3000C4054091C5055091C605DC01CB01821B1E
:104C4000930BA40BB50BC397A105B10508F4A7C03E
:104C5000809173058823A1F1B601CE0182960E944E
:104C6000FA1761EF74E0CE0188960E94F21BBE0134
:104C70006E5D7F4FCE0188960E94A31B6CED74E0A1
:104C80000E948A1BBC01C8010E94E91B6AE474E00F
:104C9000CE018E960E94F21BB801CE018E960E9424
:104CA0003A19CE018E960E94E41BC8010E94E41BB3
:104CB000CE0188960E94E41BCE0182960E94E41BDE
:104CC0000E9453206093C3057093C4058093C5056B
:104CD0009093C605E114F10481F561EB73E0C8011E
:104CE0000E94F21B6FE673E0CE0188960E94F21BD1
:104CF0006AE177E0CE0188960E94A31B64E075E02C
:104D00000E948A1BB4010E94541BBC01CE018296F2
:104D10000E94E91BB801CE0182960E948817CE013D
:104D200082960E94E41BCE0188960E94E41BC80173
:104D30000E94E41B81E090E02FC06CEA73E0C801A0
:104D40000E94F21B6FE673E0CE0188960E94F21B70
:104D50006AE177E0CE0188960E94A31B64E075E0CB
:104D60000E948A1BB4010E94541BBC01CE01829692
:104D70000E94E91BB801CE0182960E948817CE01DD
:104D800082960E94E41BCE0188960E94E41BC80113
:104D90000E94E41B80E090E0F50191838083D301C1
:104DA000ED92FD923D01BFEFCB1ADB0AE2E0AE0EC1
:104DB000B11CF7E2CF16D10409F07BCE80917405C7
:104DC00081110E94C00480E090E0892B09F432CB6D
:104DD0000E9400002BCB68E873E180E090E00E9425
:104DE00019202CCDCF92DF92EF92FF920F931F9359
:104DF000CF93DF93EEEAF7E0C7E6D3E0D183C08339
:104E00001282138214821582E4E4F6E01382128285
:104E100088EEC82E83E0D82EE12CF12CC482D582F6
:104E2000E682F78289E093E091838083E4EBF7E008
:104E3000D183C0831282138214821582E0E5F6E0EA
:104E4000D183C0831282138214821582EAEBF7E0C9
:104E5000D183C0831282138214821582E0ECF7E0C2
:104E6000D183C0831282138214821582E6ECF7E0AC
:104E7000D183C0831282138214821582ECECF7E096
:104E8000D183C0831282138214821582E2EDF7E08F
:104E9000D183C0831282138214821582E8EDF7E079
:104EA000D183C0831282138214821582E6E5F6E074
:104EB000D183C0831282138214821582E6E2F7E066
:104EC000D183C0831282138214821582E0E2F7E05C
:104ED000D183C08300EC028318EA138314828BEC25
:104EE000858369E075E08AE197E00E94F21BEBE0C0
:104EF000F7E013821282C482D582E682F78289E3C8
:104F000093E09183808388E0848788EE93E096879E
:104F10008587A5E0B7E01196DC93CE9312960C93AB
:104F2000129713961C93139714961C9214978AEB5E
:104F300015968C93D093F806C093F7061092F90655
:104F40001092FA061092FB061092FC068FEF9FEF6C
:104F50009093040780930307F0936906E093680633
:104F6000109202071092010762ED73E082E696E06C
:104F70000E94F21B62ED73E08CE596E0DF91CF9129
:104F80001F910F91FF90EF90DF90CF900C94F21B48
:104F90001F93FC0199278827BC01E89411911032D6
:104FA000E9F3193010F01E30C8F31B3251F01D32F6
:104FB00049F4689406C00E94FA27610F711D811D93
:104FC000911D119110531A30B0F33EF490958095D5
:104FD000709561957F4F8F4F9F4F1F910895BB270D
:104FE0004A3031F4992322F4BDE2909581959F4F88
:104FF0000C943228592F482F372F262F660F771FF2
:10500000881F991F660F771F881F991F620F731FD4
:10501000841F951F660F771F881F991F0895BB2750
:10502000FA01A62F6217710581059105330B30FB3C
:1050300066F0AA27660F771F881F991FAA1FA2175D
:1050400010F0A21B63953850A9F7A05DAA3308F0B1
:10505000A95DA19336F7B111B1931082CA010C94E6
:105060004B28BB27FB015527AA27880F991FAA1F8A
:10507000A41710F0A41B83955051B9F7A05DAA3373
:1050800008F0A95DA193009779F7B111B19311923E
:10509000CB010C944B28DC01FC01672F7191772325
:1050A000E1F7329704C07C916D9370836291AE17E3
:1050B000BF07C8F30895A1E21A2EAA1BBB1BFD016E
:1050C0000DC0AA1FBB1FEE1FFF1FA217B307E407E7
:1050D000F50720F0A21BB30BE40BF50B661F771F3F
:1050E000881F991F1A9469F760957095809590951F
:1050F0009B01AC01BD01CF010895EE0FFF1F881F7A
:105100008BBF0790F691E02D19940F931F93CF93C7
:10511000DF938230910510F482E090E0E0914C083A
:10512000F0914D0820E030E0A0E0B0E0309719F1B8
:10513000408151810281138148175907C8F08417B3
:10514000950769F4109731F012960C931297139605
:105150001C9327C000934C0810934D0822C02115C2
:10516000310519F04217530718F49A01BD01EF01F8
:10517000DF01F801DBCF21153105F9F0281B390BD0
:105180002430310580F48A819B816115710521F0FD
:10519000FB019383828304C090934D0880934C0855
:1051A000FE01329644C0FE01E20FF31F81939193FA
:1051B00022503109398328833AC020914A0830911E
:1051C0004B08232B41F420915C0230915D02309317
:1051D0004B0820934A0820915A0230915B02211516
:1051E000310541F42DB73EB740915E0250915F0208
:1051F000241B350BE0914A08F0914B08E217F307A6
:10520000A0F42E1B3F0B2817390778F0AC014E5F36
:105210005F4F2417350748F04E0F5F1F50934B0820
:1052200040934A088193919302C0E0E0F0E0CF01FF
:10523000DF91CF911F910F910895CF93DF93009746
:1052400009F481C0FC01329713821282A0914C08AC
:10525000B0914D08109781F420813181820F931F06
:1052600020914A0830914B082817390751F5F093DF
:105270004B08E0934A0867C0ED0120E030E0CE170C
:10528000DF0740F44A815B819E0141155105F1F031
:10529000EA01F5CFD383C28340815181840F951FEA
:1052A000C817D90759F488819981840F951F0296F0
:1052B000918380838A819B81938382832115310529
:1052C00029F4F0934D08E0934C083DC0E901FB83BD
:1052D000EA8349915991C40FD51FEC17FD0761F47A
:1052E00080819181840F951F0296E90199838883BB
:1052F000828193819B838A83E0E0F0E012968D9116
:105300009C911397009719F0FD01DC01F7CF8D9167
:105310009C9111979D012E5F3F4F820F931F20910B
:105320004A0830914B082817390769F4309729F457
:1053300010924D0810924C0802C013821282B09352
:105340004B08A0934A08DF91CF9108956F927F9206
:105350008F929F92AF92BF92CF92DF92EF92FF9285
:105360000F931F93CF93DF93009789F4CB01DF91C5
:10537000CF911F910F91FF90EF90DF90CF90BF9052
:10538000AF909F908F907F906F900C948528FC0138
:10539000E60FF71F9C0122503109E217F30708F4CA
:1053A000A9C0EC01D9010D911C911197061717079F
:1053B000B0F00530110508F49BC0C80104978617AA
:1053C000970708F495C002501109061B170B0193AB
:1053D00011936D937C93CF010E941D2989C05B01BD
:1053E000A01AB10A4C01800E911EA0914C08B091F8
:1053F0004D08612C712CE12CF12C109709F446C05A
:105400008D919C911197A815B905B1F56C0142E0F9
:10541000C40ED11CCA14DB0478F14C018A189B0815
:10542000640142E0C40ED11C1296BC9012971396F0
:10543000AC91B5E0CB16D10440F0B282A383918247
:105440008082D9016D937C9309C00E5F1F4F800F3E
:10545000911FF90191838083EB2DFA2FE114F10460
:1054600031F0D7011396FC93EE93129741C0F0935D
:105470004D08E0934C083CC06816790608F43C01DE
:105480007D0112960D90BC91A02DB7CF80914A0856
:1054900090914B0888169906E1F466167706C8F4D1
:1054A00080915A0290915B02009741F48DB79EB7AC
:1054B00040915E0250915F02841B950BE817F9073B
:1054C000C8F4F0934B08E0934A08F90171836083B4
:1054D0000FC0CB010E9485287C01009759F0A801DC
:1054E000BE010E94902ACE010E941D29C70104C05E
:1054F000CE0102C080E090E0DF91CF911F910F912B
:10550000FF90EF90DF90CF90BF90AF909F908F90E3
:105510007F906F90089581E090E0F8940C94BA2DFC
:10552000FB01DC0102C001900D9241505040D8F7C0
:1055300008956817790768F4FB01DC01E40FF51F93
:10554000A40FB51F02C002900E9241505040D8F7F0
:1055500008950C94902ADC0101C06D934150504095
:10556000E0F70895FB01DC018D9101908019011095
:10557000D9F3990B0895FB01DC0101900D920020F5
:10558000E1F70895FB01DC014150504048F00190E3
:105590000D920020C9F701C01D9241505040E0F724
:1055A00008950F931F93CF93DF93CDB7DEB72E9758
:1055B0000FB6F894DEBF0FBECDBF0E891F8986E0FF
:1055C0008C831A8309838FEF9FE79E838D83AE01BF
:1055D000465E5F4F688D798DCE0101960E94002B4B
:1055E000EF81F885E00FF11F10822E960FB6F89428
:1055F000DEBF0FBECDBFDF91CF911F910F910895F8
:105600002F923F924F925F926F927F928F929F92D2
:10561000AF92BF92CF92DF92EF92FF920F931F93C0
:10562000CF93DF93CDB7DEB72B970FB6F894DEBFDD
:105630000FBECDBF6C017B018A01FC01178216826F
:10564000838181FFCCC1CE0101963C01F60193819B
:10565000F70193FD859193FF81917F01882309F4E0
:10566000BAC1853239F493FD859193FF81917F0111
:10567000853229F4B60190E00E94202DE7CF912CCD
:10568000212C312CFFE1F315D8F08B3279F038F46E
:10569000803279F08332A1F4232D20611DC08D3238
:1056A00061F0803369F4232D216016C0832D826060
:1056B000382EE32DE4603E2E2AC0F32DF8601DC085
:1056C00037FC2DC020ED280F2A3040F08E32B9F47F
:1056D00036FC81C1232D2064322E19C036FE06C04F
:1056E0008AE0989E200D1124922E11C0EAE02E9E91
:1056F000200D1124222EF32DF0623F2E08C08C368F
:1057000021F4832D8068382E02C0883641F4F701D9
:1057100093FD859193FF81917F018111B3CF982FE4
:105720009F7D9554933028F40C5F1F4F9FE399831E
:105730000DC0833631F0833771F0833509F059C0DD
:1057400021C0F801808189830E5F1F4F88248394D4
:10575000912C530113C02801F2E04F0E511CF801A7
:10576000A080B18036FE03C0692D70E002C06FEFEB
:105770007FEFC5010E94152D4C018201F32DFF77AB
:105780003F2E16C0280122E0420E511CF801A080D5
:10579000B18036FE03C0692D70E002C06FEF7FEF6D
:1057A000C5010E940A2D4C01F32DF0683F2E8201A5
:1057B00033FC1BC0822D90E088169906B0F4B60128
:1057C00080E290E00E94202D2A94F4CFF50137FC6E
:1057D000859137FE81915F01B60190E00E94202DF6
:1057E00021102A9421E0821A91088114910471F702
:1057F000E8C0843611F0893641F5F80137FE07C05C
:1058000060817181828193810C5F1F4F08C060812C
:105810007181072E000C880B990B0E5F1F4FF32D23
:10582000FF763F2E97FF09C0909580957095619502
:105830007F4F8F4F9F4FF0683F2E2AE030E0A3014B
:105840000E945C2D882E861845C0853731F4232DA3
:105850002F7EB22E2AE030E025C0932D997FB92EFD
:105860008F36C1F018F4883579F0B5C0803719F05B
:10587000883721F0B0C0E92FE061BE2EB4FE0DC024
:10588000FB2DF460BF2E09C034FE0AC0292F26600C
:10589000B22E06C028E030E005C020E130E002C0B2
:1058A00020E132E0F801B7FE07C06081718182819A
:1058B00093810C5F1F4F06C06081718180E090E092
:1058C0000E5F1F4FA3010E945C2D882E8618FB2DB2
:1058D000FF773F2E36FE0DC0232D2E7FA22E89147A
:1058E00058F434FE0BC032FC09C0832D8E7EA82EE6
:1058F00005C0B82CA32C03C0B82C01C0B92CA4FE41
:105900000FC0FE01E80DF11D8081803321F49A2D36
:10591000997EA92E09C0A2FE06C0B394B39404C018
:105920008A2D867809F0B394A3FC11C0A0FE06C0AE
:10593000B21488F4280C922C9B180EC0B21460F498
:10594000B60180E290E00E94202DB394F7CFB2140C
:1059500018F42B1802C0982C212CA4FE10C0B601FC
:1059600080E390E00E94202DA2FE17C0A1FC03C09E
:1059700088E790E002C088E590E0B6010CC08A2D6F
:10598000867859F0A1FE02C08BE201C080E2A7FC3C
:105990008DE2B60190E00E94202D891438F4B60102
:1059A00080E390E00E94202D9A94F7CF8A94F3012F
:1059B000E80DF11D8081B60190E00E94202D81103C
:1059C000F5CF222009F442CEB60180E290E00E9499
:1059D000202D2A94F6CFF6018681978102C08FEFA1
:1059E0009FEF2B960FB6F894DEBF0FBECDBFDF91B1
:1059F000CF911F910F91FF90EF90DF90CF90BF90CC
:105A0000AF909F908F907F906F905F904F903F905E
:105A10002F900895FC010590615070400110D8F757
:105A2000809590958E0F9F1F0895FC0161507040E6
:105A300001900110D8F7809590958E0F9F1F0895C3
:105A40000F931F93CF93DF93FB01238121FD03C0AD
:105A50008FEF9FEF2CC022FF16C046815781248113
:105A600035814217530744F4A081B1819D012F5F16
:105A70003F4F318320838C93268137812F5F3F4FA7
:105A80003783268314C08B01EC01FB010084F18570
:105A9000E02D1995892BE1F6D80116968D919C91F0
:105AA0001797019617969C938E931697CE01DF91C8
:105AB000CF911F910F910895FA01AA27283051F133
:105AC000203181F1E8946F936E7F6E5F7F4F8F4F2F
:105AD0009F4FAF4FB1E03ED0B4E03CD0670F781F8E
