:100000000C9498010C94C9010C94C9010C94C90179
:100010000C94C9010C94C9010C94C9010C94C90138
:100020000C94C9010C94C9010C94C9010C94C90128
:100030000C94C9010C94C9010C94C9010C94C90118
:100040000C94C9010C94C9010C94C9010C94C90108
:100050000C9457110C94C9010C94C9010C94081A02
:100060000C94C9010C94C9010C94C9010C94C901E8
:100070000C94C9010C94C9010C94C9010C94C901D8
:100080000C94C9010C94C9010C94C9010C94C901C8
:100090000C94C9010C94C9010C94C9010C94C901B8
:1000A0000C94C9010C94C9010C94C9010C94C901A8
:1000B0000C94C9010C94C9010C94C9010C94C90198
:1000C0000C94C9010C94C9010C94C9010C94C90188
:1000D0000C94C9010C94C9010C94C9010C94C90178
:1000E0000C94C9011C191F190E1912191819561947
:1000F000231927192D19311935193B193F1943199E
:10010000561949194D1951190C948D050C948702F3
:100110000C9406030C942D190C9418060C94E6010B
:100120000C94DD020C943B190C9460060C940A0F9D
:100130000C9404070C9429030C948F060C941F0252
:100140000C9427190C9424080C940B020C940F02A5
:100150000C9460040C940B0F0C948E030C944602C8
:100160000C94D5050C946F0F0C9495020C943821C7
:100170000C9443190C9436040C9412190C94BE027E
:100180000C9407020C94E2010C948D070C940B055F
:100190000C940E190C9418190C9449190C94A4027F
:1001A0000C9451190C94F5030C9443020C942319EC
:1001B0000C9432030C9428020C9413040C943B020C
:1001C0000C9436020C943F190C9431190C942005B0
:1001D0000C941F190C94521A0C94F1010C9456199A
:1001E0000C94D5060C9435190C944D190C94CB0134
:1001F0000C9498040C942C020C941C190C94CC01B3
:100200000C94C60F0C9420030C94380200002000BC
:100210002300260029002C002F00320000010000DE
:1002200003010601090100002200250028002B001F
:100230002E003100340002010000050108010B010D
:1002400000002100240027002A002D003000330088
:1002500001010000040107010A0101021020200829
:100260000810204010204080020102010804020111
:100270000102040810204080804020100804020180
:1002800080040201804020100804020108040201D9
:100290000102040810204080010204081020408060
:1002A00005050505070508080808020202020A0AF2
:1002B0000808040404040101010101010101030310
:1002C000030303030303040707070C0C0C0C0C0CBB
:1002D0000C0C0202020206060606060606060B0BB8
:1002E0000B0B0B0B0B0B00000A0B02090C0D0E087D
:1002F00007030401000000000000000000000000EF
:1003000000000000000000000000000000000000ED
:1003100000001211100000000000000000000000AA
:100320000000000000000000000000003821521A08
:1003300011241FBECFEFD1E2DEBFCDBF00E00CBF66
:1003400014E0A0E0B2E0E8EFFFE400E00BBF02C081
:1003500007900D92A633B107D9F726E0A6E3B4E0E3
:1003600001C01D92AF39B207E1F711E0C7E9D1E052
:1003700000E006C021970109802FFE010E94AD22F6
:10038000C639D10780E00807A9F70E945E1A0C94CD
:10039000EA270C9400000895CF93DF931F92CDB706
:1003A000DEB76983DC01ED91FC910280F381E02DE1
:1003B00041E050E0BE016F5F7F4F19950F90DF91D4
:1003C000CF910895FC01818D928D0895FC01948553
:1003D000FB018485981303C081E0983008F080E029
:1003E0000895CF93DF931F92CDB7DEB76983DC0109
:1003F000ED91FC910280F381E02D41E050E0BE01DF
:100400006F5F7F4F19950F90DF91CF910895FC0199
:10041000848595850895FC0184899589089529E34B
:1004200033E0FC0131832083FB01408951896289DB
:100430007389FC0142835383648375830895DC01CF
:10044000ED91FC91048CF58DE02D199480E00895D8
:10045000FC01768765870895DC01ED91FC91068C9F
:10046000F78DE02D199591E089270895862F08953D
:1004700081E08627089521E0FC018485883008F01A
:1004800020E0822F089580E090E00895CF92DF92DF
:10049000EF92FF920F931F93CF93DF9300D000D082
:1004A000CDB7DEB78C016B017A01FC01808D8830FD
:1004B00010F40E946C1589E393E09A838983F60116
:1004C00082819381A481B5818B839C83AD83BE831C
:1004D000B701CE0101960E94240EF801808F88306A
:1004E00030F4F586E486128E118E81E001C080E042
:1004F00026960FB6F894DEBF0FBECDBFDF91CF9129
:100500001F910F91FF90EF90DF90CF900895CF93C0
:10051000DF93FC01808D883028F4EF010E946C1578
:1005200088E0888FDF91CF910895FC01808D88301D
:1005300040F4218D328D232B21F00E94121490E083
:1005400008958FEF9FEF0895CF93DF93FC012485EB
:10055000283018F08FEF9FEF0EC0EC010190F08172
:10056000E02D0084F185E02D1995892B99F38C8578
:100570000E94121490E0DF91CF910895CF93DF9302
:10058000FC01218D328D2115310519F48FEF9FEF7C
:1005900011C0EC014217530708F0A901888D0E9491
:1005A00077141816190694F7298D3A8D281B390BE4
:1005B0003A8F298FDF91CF9108950F931F93CF9397
:1005C000DF931F92CDB7DEB7FC01218D328D232B37
:1005D00061F08C0141E050E0BE016F5F7F4F808D84
:1005E0000E947714181619061CF08FEF9FEF08C0B1
:1005F000F801818D928D0197928F818F898190E092
:100600000F90DF91CF911F910F910895CF93DF93BA
:100610001F92CDB7DEB741E050E0BE016F5F7F4F64
:10062000FC0184850E947714181619061CF4898130
:1006300090E002C08FEF9FEF0F90DF91CF91089570
:10064000FC018485883010F40C94771480E090E0ED
:100650000895FC018485883010F40C94401480E0E7
:1006600090E008950F931F93CF93DF93CDB7DEB73C
:1006700028970FB6F894DEBF0FBECDBF8C01D8010E
:1006800059964D915C915A974115510551F0ED9154
:10069000FC91048CF58DE02D60E070E0C8011995A7
:1006A000EECFF801808D0E944014892B51F148E073
:1006B00050E0BE016F5F7F4FD80158968C910E9429
:1006C000771418161906FCF4D801509684E0FE0140
:1006D000319601900D928A95E1F78D8190E0982FE7
:1006E00088272E81820F911DF801958B848B8F8135
:1006F00090E0982F88272885820F911D928F818FF7
:1007000002C080E090E028960FB6F894DEBF0FBEDE
:10071000CDBFDF91CF911F910F910895AF92BF92FE
:10072000CF92DF92EF92FF920F931F93CF93DF93BD
:10073000CDB7DEB7AF970FB6F894DEBF0FBECDBF13
:100740008C015B016A01CE0101960E94A70B89E32F
:10075000E82E83E0F82EFBA6EAA61CA61DA61EA680
:100760001FA680910C0590910D05A0910E05B091EA
:100770000F058EA39FA3A8A7B9A78B839C83AD83E6
:10078000BE8318861F82AE01465D5F4FB501CE0164
:1007900001960E94C70B81309105B1F4D801ED910B
:1007A000FC910488F589E02DFDA2ECA28CA59DA505
:1007B000AEA5BFA58EA39FA3A8A7B9A7A601BE01FA
:1007C0006C5D7F4FC8011995AF960FB6F894DEBFE8
:1007D0000FBECDBFDF91CF911F910F91FF90EF9092
:1007E000DF90CF90BF90AF9008950F931F93CF935A
:1007F000DF93EC018B01888D883010F40E946C151A
:10080000B80182E00E94D415888F883030F41D87AB
:100810000C871A8E198E81E001C080E0DF91CF91A4
:100820001F910F910895CF93DF93EC018C85883051
:10083000C8F40E948915843181F0882371F08831D1
:1008400061F08C3161F4E881F9810084F185E02D5B
:10085000CE01199521E0892B19F420E001C021E097
:10086000822F01C080E0DF91CF9108950F931F93F5
:100870000E94FC19009138041091390420913A0427
:1008800030913B04DC01CB01801B910BA20BB30B1D
:1008900000910002109101022091020230910302A6
:1008A000081719072A073B0740F4789410926F0045
:1008B000E0E0F0E01F910F9119941F910F910895BE
:1008C000CF92DF92EF92FF92CF93DF93EC018C8572
:1008D000883038F50E944F150E94FC196B017C018D
:1008E0008C850E9489158823D1F061E070E080E05A
:1008F00090E00E94C2190E94FC19AB01BC014C1986
:100900005D096E097F098D859E85A0E0B0E04817DE
:1009100059076A077B0720F38C850E946C1588E0D5
:100920008C87DF91CF91FF90EF90DF90CF9008956B
:10093000CF92DF92EF92FF920F931F93CF93DF93AB
:10094000CDB7DEB7AF970FB6F894DEBF0FBECDBF01
:100950008C016B017A01CE0101960E94A70B89E3FD
:1009600093E09BA78AA71CA61DA61EA61FA6D801BA
:100970001C968C91883060F40E948915882321F0A0
:10098000F80184850E944F1588E0D8011C968C934D
:1009900080910C0590910D05A0910E05B0910F0569
:1009A0008EA39FA3A8A7B9A78B839C83AD83BE8387
:1009B00018861F82AE01465D5F4FB601CE010196DB
:1009C0000E94C70B0097C1F0D801ED91FC910684FD
:1009D000F785E02D89E393E09DA38CA38CA59DA5CD
:1009E000AEA5BFA58EA39FA3A8A7B9A7A701BE01C7
:1009F0006C5D7F4FC8011995AF960FB6F894DEBFB6
:100A00000FBECDBFDF91CF911F910F91FF90EF905F
:100A1000DF90CF900895CF93DF93EC018C858830E1
:100A200060F40E948915873111F08C3131F48C8586
:100A30000E94E2138115984088F3DF91CF910895C9
:100A4000FC018485883010F40C94E21380E090E07F
:100A50000895DA019091CF04E92FF0E0FE2FEE2700
:100A6000E60FF71F90E0982F8827A901BD018E0F90
:100A70009F1F0C942912CF93DF931F92CDB7DEB73F
:100A80009091CF04292F30E0322F2227260F371FD5
:100A900090E0982F8827498341E050E0BE016F5FC6
:100AA0007F4F820F931F0E9429120F90DF91CF91E9
:100AB0000895CF93DF931F92CDB7DEB79091CF0407
:100AC000292F30E0322F2227260F371F90E0982F52
:100AD000882741E050E0BE016F5F7F4F820F931F78
:100AE0000E949C1189810F90DF91CF910895DA01C6
:100AF0009091CF04E92FF0E0FE2FEE27E60FF71FCD
:100B000090E0982F8827A901BD018E0F9F1F0C949C
:100B10009C1108958CBD9DBD08957F928F929F92E8
:100B2000AF92BF92CF92DF92EF92FF920F931F93FB
:100B3000CF93DF931F921F92CDB7DEB77C014B019D
:100B4000742EC52EFC01A688B788D08CCE010196E4
:100B50000E94BD0989819A810E948A058D2D0E947B
:100B6000A513072D1C2D8017910708F48C019801FF
:100B7000A401B5018D2D0E942513F701868997895F
:100B8000800F911F978B868BC8010F900F90DF917C
:100B9000CF911F910F91FF90EF90DF90CF90BF907A
:100BA000AF909F908F907F9008951F93CF93DF9386
:100BB0001F921F92CDB7DEB7FC01108DCE010196BA
:100BC0000E94BD0989819A810E948A0560E270E0D5
:100BD000812F0E94821162E070E0812F0E945905EE
:100BE00084FD18C062E070E0812F0E94590583FFE8
:100BF00008C048E162E070E0812F0E943B0580E080
:100C000010C0CE0101960E94BD0989819A810E947F
:100C10008A05E1CF40E162E070E0812F0E943B0550
:100C200081E090E00F900F90DF91CF911F91089598
:100C3000DF92EF92FF920F931F93CF93DF931F9258
:100C40001F92CDB7DEB7FB01DC0157961C921E92B6
:100C500056972281211109C02381211106C02481C8
:100C6000211103C025812223F9F041155105E1F03E
:100C70007A018F01FC01D08CCE0101960E94BD0942
:100C800089819A810E948A05A8014E5F5F4F24E006
:100C900030E06CE070E08D2D0E942905B7018D2DAC
:100CA0000E94A81581E001C080E090E00F900F90B5
:100CB000DF91CF911F910F91FF90EF90DF900895FA
:100CC0000F931F93CF93DF931F921F92CDB7DEB781
:100CD000FC0124852830D0F48C01CE0101960E94BD
:100CE000BD0989819A810E948A0522E030E0AE0127
:100CF0004F5F5F4F60E170E0F80184850E947705E7
:100D000089819A8198278927982702C080E090E0FE
:100D10000F900F90DF91CF911F910F910895EF9257
:100D2000FF920F931F93CF93DF9300D01F92CDB705
:100D3000DEB78C017B01FB018485883050F089E3AC
:100D400093E0F801918380831282138214821582CA
:100D500020C0CE0101960E94BD0989819A810E941E
:100D60008A0524E030E0AE014F5F5F4F6CE070E039
:100D7000F70184850E94770589E393E0F801918368
:100D8000808389819A81AB81BC8182839383A48390
:100D9000B583C8010F900F900F900F90DF91CF9106
:100DA0001F910F91FF90EF9008950F931F93CF9392
:100DB000DF931F921F92CDB7DEB7FC012485283048
:100DC000D0F48C01CE0101960E94BD0989819A81DF
:100DD0000E948A0522E030E0AE014F5F5F4F64E081
:100DE00070E0F80184850E94770589819A819827AF
:100DF0008927982702C080E090E00F900F90DF9144
:100E0000CF911F910F9108956F927F928F929F9231
:100E1000AF92BF92CF92DF92EF92FF921F93CF9348
:100E2000DF931F921F92CDB7DEB7FC0114851830F7
:100E300008F061C06A014130F8E05F0718F0C12C8A
:100E400028E0D22E7A013B015C01CE0101960E947E
:100E5000BD0989819A810E948A05812F0E94A5136C
:100E60004C0163E070E0812F0E945905873111F039
:100E70008C3121F48C149D0440F302C0C12CD12C80
:100E8000CE0101960E94BD0989819A810E948A053E
:100E90009601A30160E070E0812F0E94251360E2BB
:100EA00070E0812F0E94821162E070E0812F0E9429
:100EB000590584FD16C063E070E0812F0E9459053A
:100EC000811106C081E090E0F5019383828313C015
:100ED000CE0101960E94BD0989819A810E948A05EE
:100EE000E3CF40E162E070E0812F0E943B05CD2816
:100EF00049F3C70102C080E090E00F900F90DF91AE
:100F0000CF911F91FF90EF90DF90CF90BF90AF9067
:100F10009F908F907F906F900895AF92BF92CF92E5
:100F2000DF92EF92FF920F931F93CF93DF931F9265
:100F30001F92CDB7DEB78C016B015A01FC0184858D
:100F4000883058F40E948915882321F0F80184859F
:100F50000E944F1588E0F8018487F6018281938111
:100F6000A481B5810097A105B10509F45BC08F3F4D
:100F70009F4FAF4FBF4F09F455C060E070E081E272
:100F80000E94D415F82EF8018487F7E0F81708F4CA
:100F900049C0CE0101960E94BD0989819A810E94B3
:100FA0008A05A6014E5F5F4F24E030E06CE070E000
:100FB0008F2D0E942905B5018F2D0E94A81564E090
:100FC00070E08F2D0E9482110E94FC196B017C0140
:100FD000F80184850E948915873139F18C3129F116
:100FE000882301F10E94FC19AB01BC014C195D0979
:100FF0006E097F09F80185859685A0E0B0E0841729
:101000009507A607B70738F061E070E080E090E050
:101010000E94C219DDCFF80184850E946C1588E01A
:10102000F801848780E090E002C081E090E00F90BA
:101030000F90DF91CF911F910F91FF90EF90DF9074
:10104000CF90BF90AF900895CF92DF92EF92FF9232
:101050000F931F93CF93DF93CDB7DEB72C970FB6C7
:10106000F894DEBF0FBECDBF20913C04211180C09B
:101070007A01C72ED62EBC0181E080933C04CE01BC
:1010800001960E94421180911605909117050097D4
:10109000C9F069817A816115710591F04091180557
:1010A000509119052D813E814217530748F00E9447
:1010B000EB248D819E8190931B0580931A0518C0A7
:1010C0000E944D2389819A8190931705809316057C
:1010D0008B819C8190931905809318058D819E8149
:1010E00090931B0580931A051A8219821C821B8219
:1010F0001E821D82CE0101960E94341163EE73E0C0
:1011000080E195E00E9406110D2D1C2DE00EF11ED0
:101110000E151F0569F1F80181918F0118861F8254
:101120001A8619861C861B8689831A82BE016F5F08
:101130007F4FCE0107960E94061160E175E0CE0157
:1011400001960E943911BE01695F7F4FCE01019661
:101150000E94D210BC0180E195E00E941D11CE01D9
:1011600001960E943411CE0107960E943411D0CF0F
:101170002C960FB6F894DEBF0FBECDBFDF91CF9196
:101180001F910F91FF90EF90DF90CF9008954F92B5
:101190005F926F927F928F929F92AF92BF92CF9207
:1011A000DF92EF92FF920F931F93CF93DF931F92E3
:1011B0001F92CDB7DEB75C018EE195E00E94011869
:1011C00081113AC036C08C01CE0101960E940118EF
:1011D000882379F1C80101962981F70121937F01C4
:1011E000422F4F7750E0449DB001459D700D549DB6
:1011F000700D1124C60ED71E47E0440C551C661C0A
:10120000771C4A95D1F727FF27C086309105D9F67C
:101210008FEF9FEF9093B8058093B70580911C05E1
:1012200090911D05DC01ED91FC910488F589E02D7C
:10123000199580E090E08EC090901E0519828FE194
:10124000E82E85E0F82E01E010E0C12CD12C412CD5
:10125000512C32014394B8CFF92DF07FFA832FEF50
:10126000280FD5012C93F03319F5825E9A4F0E9416
:1012700001188823F1F2C801805E9A4F0E9401187C
:101280008823B9F2C8010396D501EC91F0E0E45E41
:10129000FA4FE380F12CFE2CEE242481E20EF11CA7
:1012A00020911E0521FF08C0B2E0EB0EF11C04C026
:1012B00020E0E12CF12C01C022E0422E512CFC0157
:1012C000E45EFA4F4F018C01481A590A2EEF622E44
:1012D00077247A94C801840D951D8C159D0578F5A9
:1012E000CE0101960E940118882309F4A2CF8091B3
:1012F000B5059091B6050097B1F0FA81F03399F4F5
:10130000D5012C91F301E21BF1099F01200F311F40
:10131000E216F30640F4DC01ED91FC910190F081BE
:10132000E02D698119950038110518F48981F401BF
:1013300082830F5F1F4FFFEF8F1A9F0ACBCF8091E1
:10134000B5059091B605892B21F40138110508F0F7
:1013500070CFC8010F900F90DF91CF911F910F9127
:10136000FF90EF90DF90CF90BF90AF909F908F90C5
:101370007F906F905F904F90089520E5FC0120834F
:1013800021E021830895FC0182819381A481B581AC
:101390008093AD059093AE05A093AF05B093B005D3
:1013A0008BE597E09093B4058093B3051092B20556
:1013B0001092B1058CE195E00895CF92DF92EF9203
:1013C000FF920F931F93CF93DF93CDB7DEB7C65431
:1013D000D1090FB6F894DEBF0FBECDBFFC018281EC
:1013E0009381A481B58123968CAF9DAFAEAFBFAF83
:1013F000239721E023962FAF239723964CAD5DAD25
:101400006EAD7FAD23974BAB5CAB6DAB7EAB89AF65
:101410009AAFABAFBCAF8DA79EA7AFA7B8AB28ABB9
:101420004DA55EA56FA578A94FA358A769A77AA770
:101430002EAB4BA95CA96DA97EA949A35AA36BA3A6
:101440007CA38B8F9C8FAD8FBE8F49E353E05C8B69
:101450004B8B3FEF3D8B3E8B3F8B188E5E874D87CE
:101460002AA7CFA0D8A4E9A4FAA4CF86D88AE98A6B
:10147000FA8A2CA309A11AA12BA13CA109871A87DA
:101480002B873C875A8349838B839C83AD83BE83A0
:101490008091D10481110DC160E372E080E090E0A1
:1014A0000E94C2191FB7F8948091D004811127C0FF
:1014B000E5EDF2E08491EFE8F2E09491E82FF0E0BE
:1014C000EE0FFF1FE05CFD4FA591B491EC91E92375
:1014D00021F461E085E30E94571961E085E30E94F1
:1014E00086198CB580618CBD8CB580648CBD61E043
:1014F00084E30E94861961E083E30E94861980914B
:10150000D0048F5F8093D0041FBFEAEAF2E0E49139
:10151000F0E0EE0FFF1FEA5DFD4F859194919093EF
:10152000CD048093CC04E4E6F2E0E491E093CB04B4
:1015300061E08AE00E9486190E949211CE018D5BC3
:101540009F4F0E94BD0925968EAD9FAD25970E94A5
:101550008A0584E38093CE040E940C13882319F13A
:1015600088E00E94F9120E94E6128830E1F480E1DE
:101570000E94F9120E94E6128031A9F480E00E94D4
:10158000F9120E94E61281110EC041E050E0BE0146
:101590006D5B7F4F8FE190E00E949C1124968FAD90
:1015A00024978330A1F187E38093CE040E940C132B
:1015B000882309F440C088E00E94F9120E94E612D4
:1015C0008830C9F580E10E94F9120E94E612182FB6
:1015D000803189F580E00E94F9120E94E6128111A3
:1015E0002AC041E050E0BE016D5B7F4F89E390E08F
:1015F0000E949C1124968FAD24978430E1F41093BF
:10160000CF040E94890581E08093D10452C080E418
:101610008093CF0410E042E06EE170E0812F0E94E1
:101620003B0542E06FE170E0812F0E943B051F5FA8
:10163000183089F7E6CF83E38093CE040E940C1321
:10164000882391F180E10E94F9120E94E612803114
:1016500059F582E10E94F9120E94E612823121F5C9
:1016600080E00E94F9120E94E61281111DC084E000
:101670008093CF0415E527961FAF279741E050E0F0
:10168000BE016A5B7F4F8BE190E00E942912269693
:101690001FAF269741E050E0BE016B5B7F4F8AE1B0
:1016A00090E00E942912ADCF1092CE040E948905CD
:1016B0003EC0CE018D5B9F4F0E94BD0925968EAD29
:1016C0009FAD25970E948A0546E050E068E472E0ED
:1016D00089E090E00E94291244E050E0BE016D5F75
:1016E0007F4F8FE090E00E94291244E050E0BE015D
:1016F000615F7F4F81E090E00E94291244E050E05A
:10170000BE016B5E7F4F85E090E00E9429120E942F
:10171000890581E08C8789859A85AB85BC85809316
:101720000C0590930D05A0930E05B0930F05CA5BB1
:10173000DF4F0FB6F894DEBF0FBECDBFDF91CF9164
:101740001F910F91FF90EF90DF90CF900895FC01D3
:1017500089E393E09183808312821382148215823D
:101760001386128648EE53E060E070E044875587A8
:101770006687778723EC32E031872087978B868BCB
:10178000108E118E128E138E88E080A308954F92D2
:101790005F926F927F928F929F92AF92BF92CF9201
:1017A000DF92EF92FF920F931F93CF93DF93CDB70A
:1017B000DEB763970FB6F894DEBF0FBECDBF7C01D6
:1017C0005B013A01FB0120E080E090E06AE03191AA
:1017D000332309F140ED430F4A3080F4689FA001A4
:1017E000699F500D1124CA01C097830F911D37FDC9
:1017F0009A958F3F910559F350F313C03E3289F407
:10180000233079F0D301A20FB11D12968C932F5F74
:1018100080E090E0DCCF233021F4F301858381E088
:1018200021C0F70142815381648175818091060551
:1018300090910705A0910805B0910905481759072F
:101840006A077B0709F491C10E94FC198701085FB0
:101850001F4F6F7077277C5FC8010E94F5038130AE
:1018600019F080E090E0D9C189E393E09A838983FD
:10187000F70182819381A481B5818B839C83AD83A1
:10188000BE8345E350E0BE016F5F7F4FC8010E94F9
:101890001806892B19F4C12CD12C62C10E94FC19A5
:1018A000F7017783668342E050E0B7016A5F7F4FBC
:1018B000C8010E948D0581E090E09A83898342E00F
:1018C00050E0BE016F5F7F4FC8010E948D0580E030
:1018D00091E09A83898342E050E0BE016F5F7F4FC1
:1018E000C8010E948D051A82198242E050E0BE01B3
:1018F0006F5F7F4FC8010E948D0542E050E0BE013E
:101900006F5F7F4FC8010E948D0542E050E0BE012D
:101910006F5F7F4FC8010E948D054501F5018081F1
:10192000882301F164015601F60181912F0188237A
:1019300021F08E3211F06201F6CFC818D9081C14BC
:101940001D0474F4CD8641E050E0BE01635F7F4F1B
:10195000C8010E948D05A601B401C8010E948D0531
:101960004201DCCF1D8641E050E0BE01635F7F4F46
:10197000C8010E948D05C12CDD24D394DA82C9826E
:1019800042E050E0BE016F5F7F4FC8010E948D05AD
:10199000DA82C98242E050E0BE016F5F7F4FC8012A
:1019A0000E948D05C8010E94D505892B09F473CFCB
:1019B000E3E0AE2EB12C230122E0420E511C0E9426
:1019C000FC193B014C01C8010E943203181619068C
:1019D000A4F00E94FC19DC01CB0186199709A80923
:1019E000B90989389341A105B105D0F462E370E0EB
:1019F00080E090E00E94C219E6CFF7014281538156
:101A000064817581808D918DA28DB38D48175907A2
:101A10006A077B0749F4848D958DC59729F409C021
:101A2000CC24CA94DC2C93C05EEFC52EDD24DA945E
:101A30008EC0F70181A192A10C970CF4E9C04CE093
:101A400050E0BE016F5F7F4FC8010E94BE028B81D4
:101A50009C819827892798279A8B898BF701468143
:101A6000578129813A814217530709F0C2C097FF75
:101A7000C0C08F709270892B09F0C0C06F807884CD
:101A80007624672476246114710409F4BCC0C12C47
:101A9000D12C8D819E81982789279827C816D90631
:101AA00008F466C0812C912C41E050E0BE016D5ECF
:101AB0007F4FC8010E94BE024B89842F807C09F0B1
:101AC00076C0442331F050E060E070E0C8010E942D
:101AD000BE028B898111E8CF42E050E0BE01615F18
:101AE0007F4FC8010E94BE0242E050E0BE01635F2A
:101AF0007F4FC8010E94BE0244E050E060E070E009
:101B0000C8010E94BE0242E050E0BE016F5E7F4FFE
:101B1000C8010E94BE028F85988949895A8981151A
:101B2000914009F04DC0CD84DE84DC24CD24DC243A
:101B300081E0C816D10409F043C04115544009F0B2
:101B400053C044E050E0B201C8010E94BE0221E04F
:101B5000A21AB10829F0FFEFCF16DF0609F42FCF44
:101B6000C8010E948702C60158C08EEF9FEF55C082
:101B700041E050E0BE01635F7F4FC8010E94BE029A
:101B80004D85442331F050E060E070E0C8010E94D0
:101B9000BE028D858111ECCF44E050E060E070E042
:101BA000C8010E94BE02FFEFCF1ADF0A72CF41E0E8
:101BB00050E060E070E0C8010E94BE021B8A89CF3D
:101BC00054274527542760E070E0C8010E94BE02F8
:101BD000FFEF8F1A9F0A6814790409F065CF96EF1A
:101BE000C92EDD24DA94B3CF77EFC72EDD24DA9443
:101BF000AECF4CEFC42EDD24DA94A9CF3BEFC32E39
:101C0000DD24DA94A4CF2AEFC22EDD24DA949FCF0C
:101C10008DEFC82EDD24DA949ACF63960FB6F89430
:101C2000DEBF0FBECDBFDF91CF911F910F91FF900F
:101C3000EF90DF90CF90BF90AF909F908F907F906C
:101C40006F905F904F9008958F929F92AF92BF9246
:101C5000CF92DF92EF92FF920F931F93CF93DF9378
:101C6000CDB7DEB760970FB6F894DEBF0FBECDBF1D
:101C70007C019091CE04992309F4B8C0933311F0FC
:101C800008E001C004E05B01CE0101960E94BD099D
:101C900089819A810E948A059E012F5F3F4F6901C9
:101CA000490110E063E070E0812F0E945905F401C2
:101CB00081934F018823C9F01F5F0113F3CF10E018
:101CC000F60181916F018D3159F0883149F08A51C7
:101CD000823030F01F5F0113F3CF0E94890586C068
:101CE00060E170E0812F0E948211C12ED12C83EE21
:101CF00093E00197F1F742E860E070E0812F0E94E5
:101D00003B054FEF62E070E0812F0E943B05A1147C
:101D1000B10411F0B50113C08091460290914702C1
:101D200001968115F0EC9F0710F480E090EC909301
:101D30004702809346026091460270914702812FCC
:101D40000E94BE1586E0E9EBF2E0DE0119960190F3
:101D50000D928A95E1F7F70183818F778C878481D3
:101D60008D8785818E87A7014E5F5F4F24E030E02D
:101D70006CE070E0812F0E942905B501812F0E943F
:101D8000A81526E030E0AE01475F5F4F66E070E0E7
:101D9000812F0E94290561E070E0812F0E9482114D
:101DA00027E02C9DC0012D9D900D11249C012D57E5
:101DB0003B4F7901F9011182108222E030E0AE013F
:101DC000415F5F4F68E270E0812F0E9477058F8549
:101DD0009889982789279827F70193838283168209
:101DE000158214820E948905812F01C088E06096C7
:101DF0000FB6F894DEBF0FBECDBFDF91CF911F911C
:101E00000F91FF90EF90DF90CF90BF90AF909F9099
:101E10008F9008950895CF92DF92EF92FF920F93E3
:101E20001F93CF93DF936C017A018B01C0E0D0E068
:101E3000CE15DF0581F0D8016D918D01D601ED91B0
:101E4000FC910190F081E02DC6011995892B11F0CC
:101E50002196EECF7E01C701DF91CF911F910F91A7
:101E6000FF90EF90DF90CF900895FC0120812EBD70
:101E70009B012150310941F051810DB407FEFDCF86
:101E80004EB55EBD4193F5CF61507109FC01E60F7F
:101E9000F71F0DB407FEFDCF8EB580830895E09146
:101EA000CC04F091CD0490818091CB04809589235E
:101EB000808308958EBD00000DB407FEFDCF8EB562
:101EC00008952091CE0490E0233311F40C9601C0C4
:101ED0004896982F990F990F990F80E008950E94C6
:101EE000BB240F931F93CF93DF93EC0188819981DB
:101EF000009729F02A813B812617370788F48B0148
:101F00006F5F7F4F0E94D623009761F0998388838B
:101F10001B830A832C813D81232B11F4FC01108249
:101F200081E001C080E0DF91CF911F910F91089572
:101F3000EF92FF920F931F93CF93DF93611571057B
:101F400011F480E01CC041155105C1F07B01EC018A
:101F50008C819D818A01080F191FB801CE010E9452
:101F6000710F882371F3288139818C819D81B7019C
:101F7000820F931F0E94EB241D830C8381E0DF916D
:101F8000CF911F910F91FF90EF9008958F929F92A4
:101F9000AF92BF92CF92DF92EF92FF920F931F9377
:101FA000CF93DF937C01EB016C0182E0C80ED11C62
:101FB0004701E5E08E0E911C00E010E0F601419132
:101FC0006F0150E060E070E02AE0CE010E94A518A9
:101FD0005C01E881F9810190F081E02D6EE2CE0193
:101FE00019958A0D9B1D080F191F8C149D0431F73C
:101FF000F701458150E060E070E02AE0CE010E94E8
:10200000A518800F911FDF91CF911F910F91FF9025
:10201000EF90DF90CF90BF90AF909F908F900895FA
:10202000FF920F931F93CF93DF931F921F92CDB711
:10203000DEB7F82E22E030E0AE014F5F5F4F66E280
:1020400070E00E94770509811A8110270127102767
:1020500022E030E0AE014F5F5F4F66E270E08F2D0F
:102060000E94770589819A819827892798270817E0
:10207000190711F08C01ECCFC8010F900F90DF9180
:10208000CF911F910F91FF900895FC01248135811C
:10209000FB01448155812417350721F5FC0180811E
:1020A0009181FB0160817181009719F061157105C3
:1020B000A1F46115710549F0232BB1F0FB0180817A
:1020C00090E09195819591090AC0009769F0232BC2
:1020D00059F0FC01808190E002C00E94E22421E0DE
:1020E000892B19F020E001C021E0822F0895EF92A2
:1020F000FF920F931F93CF93DF93CDB7DEB728974F
:102100000FB6F894DEBF0FBECDBF7C01CB014AE015
:102110008E010F5F1F4FB8010E941F22F80101902E
:102120000020E9F73197AF01401B510BB801C701FF
:102130000E94980F28960FB6F894DEBF0FBECDBF51
:10214000DF91CF911F910F91FF90EF900895CF9362
:10215000DF93EC0188819981009711F00E944D2353
:10216000198218821D821C821B821A82DF91CF91F4
:102170000895CF93DF93EC016115710561F0FB01C8
:1021800001900020E9F73197AF01461B570B0E94E1
:10219000980F811103C0CE010E94A710CE01DF91DC
:1021A000CF910895CF93DF93EC01FB0144815581DA
:1021B000608171810E94980F811103C0CE010E943D
:1021C000A710CE01DF91CF910895EF92FF920F9368
:1021D0001F93CF93DF93EC017B018A01BA010E9428
:1021E000710F811104C0CE010E94A71007C01D838A
:1021F0000C83B701888199810E94EB24CE01DF9185
:10220000CF911F910F91FF90EF900895CF93DF939F
:10221000EC016115710559F0FB0101900020E9F70F
:102220003197AF01461B570B0E94E51002C00E9478
:10223000A710CE01DF91CF910895CF93DF93EC01EA
:10224000FB018617970761F0608171816115710547
:1022500029F0448155810E94E51002C00E94A71018
:10226000CE01DF91CF910895FC01808191810C9482
:102270004D23FC0111821082138212821582148276
:102280000C941D11FC01118210821382128215829E
:1022900014826115710551F0FB0101900020E9F7EE
:1022A0003197AF01461B570B0C94E51008951F9210
:1022B0000F920FB60F9211240BB60F922F933F93EC
:1022C0004F935F936F937F938F939F93AF93BF933E
:1022D000EF93FF93E0913604F09137041995FF9145
:1022E000EF91BF91AF919F918F917F916F915F918E
:1022F0004F913F912F910F900BBE0F900FBE0F90FB
:102300001F901895CF93C82F462F61E070E00E9470
:102310003B0561E070E08C2F0E9459058111F9CFD7
:10232000CF910895E091CC04F091CD0490818091FB
:10233000CB04892B80830895AF92BF92CF92DF9216
:10234000EF92FF920F931F93CF93DF9300D01F92D2
:10235000CDB7DEB78C016B017A018091CE04833357
:10236000F1F45B016801C40ED51E0C151D0509F4BE
:1023700060C00E944F0F8FE00E945A0F812F0E9471
:102380005A0F802F0E945A0F0F5F1F4F80E00E944C
:102390005A0FF50181935F010E949211E6CF8433B9
:1023A000F1F40E944F0F19830A838F2D8F778B834F
:1023B000EC8264E070E0CE0101960E94350FA70127
:1023C00060E070E0C6010E94DB24E114F10421F01A
:1023D000B701C6010E94350F0E9492112AC00E94C7
:1023E0004F0F0F3F110509F020F419820A831B8259
:1023F0001DC017FD0BC019820A8333E0169507959F
:102400003A95E1F7007E08600B8310C0C80126E012
:10241000969587952A95E1F719830A83807E0115A1
:10242000104C10F4806101C088618B8363E070E020
:10243000C2CFC7010F900F900F900F90DF91CF91F7
:102440001F910F91FF90EF90DF90CF90BF90AF90D2
:102450000895AF92BF92CF92DF92EF92FF920F93C7
:102460001F93CF93DF93CDB7DEB728970FB6F894BD
:10247000DEBF0FBECDBF8C017B016A018091CE040F
:102480008333E1F45801A40EB51E0A151B0509F4A7
:102490008BC00E944F0F80EF0E945A0F812F0E9425
:1024A0005A0F802F0E945A0F0F5F1F4FF701819123
:1024B0007F010E945A0F0E949211E7CF843321F5C9
:1024C0000E944F0F19830A838D2D80688B83CC82E5
:1024D00064E070E0CE0101960E94350F87010C0D7B
:1024E0001D1DE016F10669F0F70181917F010E9440
:1024F0005A0FF7CFB6016D5F7F4FCE0101960E9454
:10250000350F0E94921150C00E944F0F0F3F1105CE
:1025100009F020F419820A8384E01CC017FD0BC067
:1025200019820A8333E0169507953A95E1F7007E04
:102530000C600B8310C0C80126E0969587952A95FC
:10254000E1F719830A83807E0115104C10F4846131
:1025500001C08C618B8326E0C216D10498F420E080
:10256000822F90E08C159D0528F6E4E0F0E0EC0F5A
:10257000FD1FE80FF91FD701A80FB91F8C918083A9
:102580002F5FEECF63E070E0CE0101960E94350F21
:1025900087010C0D1D1DF70181917F010E945A0FCB
:1025A000E016F106C1F7ADCFC60128960FB6F89434
:1025B000DEBF0FBECDBFDF91CF911F910F91FF9076
:1025C000EF90DF90CF90BF90AF900895CF93DF93BF
:1025D0001F92CDB7DEB741E050E0BE016F5F7F4F85
:1025E00080E090E00E949C1189810F90DF91CF9153
:1025F0000895CF93DF931F92CDB7DEB7898341E073
:1026000050E0BE016F5F7F4F80E090E00E94291292
:102610000F90DF91CF910895CF93DF9380E80E94D0
:10262000F912C4E1D0E00E94E612882351F061E083
:1026300070E080E090E00E94C2192197A1F780E04D
:1026400001C081E0DF91CF9108957F928F929F9298
:10265000AF92BF92CF92DF92EF92FF920F931F93B0
:10266000CF93DF931F921F92CDB7DEB7782E8B01E9
:102670004A01590122E030E0AE014F5F5F4F64E252
:1026800070E00E947705E980FA80FE24EF24FE24A2
:10269000E00EF11E970137704091CE04072D10E037
:1026A000C801433311F4089601C04096982F88273B
:1026B000990F990F990F820F931F473319F4A501B2
:1026C000B40120C0A9014A0D5B1D41305840B8F348
:1026D00060E078E06B01C21AD30AA601B4010E943F
:1026E0002912A5014C195D09B4016C0D7D1D809165
:1026F000CE04833339F5085F1F4F902F990F990F40
:10270000990F80E00E942912EA0CFB1CF982EA82F0
:1027100022E030E0AE014F5F5F4F64E270E0872D52
:102720000E9429050F900F90DF91CF911F910F917B
:10273000FF90EF90DF90CF90BF90AF909F908F90E1
:102740007F900895005F1F4FD8CFEF92FF921F93A5
:10275000CF93DF931F921F92CDB7DEB7182F22E0E1
:1027600030E0AE014F5F5F4F60E270E00E9477059E
:10277000E980FA80FE24EF24FE2422E030E0AE015E
:102780004F5F5F4F60E270E0812F0E947705898183
:102790009A81982789279827E816F90611F07C0175
:1027A000ECCF87E0189FF0011124ED57FB4FF58225
:1027B000E482C7010F900F90DF91CF911F91FF909E
:1027C000EF900895FF920F931F93CF93DF931F9283
:1027D0001F92CDB7DEB7F82ECE0101960E94BD093B
:1027E00089819A810E948A058F2D0E94A5138C01F0
:1027F00063E070E08F2D0E945905F82E0E94890534
:1028000087E1F81631F08CE1F81619F080E090E0DD
:1028100001C0C8010F900F90DF91CF911F910F91D0
:10282000FF9008951F93CF93DF931F921F92CDB710
:10283000DEB7182FCE0101960E94BD0989819A81C9
:102840000E948A05812F0E94610F27E0129FF001EC
:102850001124ED57FB4F22813381377041E050E066
:10286000BE016F5F7F4F820F931F0E949C110E94D9
:10287000890589810F900F90DF91CF911F91089565
:10288000EF92FF920F931F93CF93DF931F921F92AC
:10289000CDB7DEB7482F87E0489F90011124F9019A
:1028A000ED57FB4F7F01808191810097B9F4142F80
:1028B000CE0101960E94BD0989819A810E948A05F4
:1028C000812F0E9410108C010E948905F7018681DA
:1028D0009801281B3109C901318320830F900F9083
:1028E000DF91CF911F910F91FF90EF9008954F923C
:1028F0005F927F928F929F92AF92BF92CF92DF9220
:10290000EF92FF920F931F93CF93DF931F921F922B
:10291000CDB7DEB7782E6B014A01A82EB12C27E087
:10292000829FC0011124AC014D575B4F7A01FA011F
:1029300000811181CE0101960E94BD0989819A8191
:102940000E948A050815190554F4872D0E9410105D
:10295000F70126818C01021B1109118300830115E7
:102960001105A9F463E070E0872D0E9459058431B8
:1029700009F480C0882309F47DC001E010E08C31A7
:1029800011F400E010E011950195110973C0801653
:1029900091060CF4840187E08A9DF0018B9DF00D77
:1029A0001124ED57FB4FE280F380C114D10459F19B
:1029B0002701F7E05F22872D0E94610F840D951D8E
:1029C0002091CE04273319F4A801B6011AC098014A
:1029D000240D351D21303840B8F320E038E049019E
:1029E00084189508A401B6010E949C112601480C88
:1029F000591C6801C818D908872D0E94610FA601CB
:102A0000B2010E949C11E00EF11E87E08A9DF00148
:102A10008B9DF00D1124ED57FB4FF382E2828081F4
:102A20009181801B910B918380832681A801420FA5
:102A3000511D4A3F510510F4892BD9F487E08A9D36
:102A4000F0018B9DF00D1124ED57FB4F1682F9829A
:102A5000EA8222E030E0AE014F5F5F4F68E270E053
:102A6000872D0E94290560E470E0872D0E94821165
:102A700001C046830E948905C8010F900F90DF9125
:102A8000CF911F910F91FF90EF90DF90CF90BF906B
:102A9000AF909F908F907F905F904F9008951F937D
:102AA000CF93DF931F921F92CDB7DEB7182FCE01C1
:102AB00001960E94BD0989819A810E948A0568E079
:102AC00070E0812F0E9482110E9489050F900F9063
:102AD000DF91CF911F9108951F93CF93DF931F92A2
:102AE0001F92CDB7DEB7182FCE0101960E94BD0907
:102AF00089819A810E948A0560E170E0812F0E949D
:102B000082110E9489050F900F90DF91CF911F9144
:102B100008951F93CF93DF931F921F92CDB7DEB717
:102B2000182FCE0101960E94BD0989819A810E94C9
:102B30008A0563E070E0812F0E945905182F0E94DA
:102B40008905812F0F900F90DF91CF911F910895EC
:102B5000CF93DF931F921F92CDB7DEB779836A833D
:102B600022E030E0AE014F5F5F4F60E170E00E9415
:102B700029050F900F90DF91CF910895CF93DF93A8
:102B80001F921F92CDB7DEB779836A8322E030E0CF
:102B9000AE014F5F5F4F64E070E00E9429050F9027
:102BA0000F90DF91CF9108958F929F92BF92CF9215
:102BB000DF92EF92FF920F931F93CF93DF93CDB7E6
:102BC000DEB72A970FB6F894DEBF0FBECDBF909147
:102BD000CE04992309F492C0933319F028E0B22E61
:102BE00002C094E0B92E6B01082FCE0101960E941D
:102BF000BD0989819A810E948A059E012F5F3F4FFE
:102C00007901490110E063E070E0812F0E945905CD
:102C1000F40181934F018823C9F01F5FB112F3CFF4
:102C200010E0F70191917F019D3159F0983149F001
:102C30009A51923030F01F5FB112F3CF0E94890594
:102C40005DC060E170E0812F0E948211E12EF12CC5
:102C500083EE93E00197F1F7402F60E070E0812F61
:102C60000E943B054FEF62E070E0812F0E943B0520
:102C7000C114D10411F0B60113C0809146029091A5
:102C8000470201968115F0EC9F0710F480E090EC6C
:102C900090934702809346026091460270914702EA
:102CA000812F0E94BE1561E070E0812F0E94821189
:102CB00027E02E9DC0012F9D900D11249C012D57C2
:102CC0003B4F7901F9011182108222E030E0AE0120
:102CD000475F5F4F68E270E0812F0E94770589852A
:102CE0009A85982789279827F701938382831682EC
:102CF000158214820E948905812F01C088E02A96DE
:102D00000FB6F894DEBF0FBECDBFDF91CF911F91FC
:102D10000F91FF90EF90DF90CF90BF909F908F909A
:102D20000895CF93DF93EC01FA013296E60FF71F77
:102D3000DC01AD014C1B5D0BCF01861B970B2D9168
:102D4000222311F02193F5CF9C01241B350B620F38
:102D5000731FFB013297508331964083DF91CF91EF
:102D60000895EF92FF920F931F93CF93DF9300D0BC
:102D70001F92CDB7DEB79A01E0E0922F9F77220F26
:102D8000232F221F330B31952115310509F090684F
:102D900001E00E0FA1E0B0E0AC0FBD1FAE0FB11D02
:102DA000FD0190832115310511F0E02FE6CF10E0F1
:102DB0009B01201B310B2C5F3F4FF9018083DE010B
:102DC0001196FB01E01BF10B3596CB010596E81738
:102DD000F90719F06D916193FACF80911C059091DC
:102DE0001D054F5F5F4F040F151FDC01ED91FC9136
:102DF0000280F381E02DA801B90119957C010E94A0
:102E0000FC196093A0057093A1058093A20590938F
:102E1000A30581E00E151F0509F080E00F900F90CB
:102E20000F900F90DF91CF911F910F91FF90EF9036
:102E30000895CF9380911C0590911D05009771F125
:102E4000DC01ED91FC910688F789E02D1995C1E030
:102E5000811125C0C0E08091B7059091B805892BFC
:102E6000F1F48DEF9FEF9093B8058093B7058091B3
:102E70001C0590911D05DC01ED91FC910680F78108
:102E8000E02D199580911C0590911D05DC01ED91B7
:102E9000FC910488F589E02D199501C0C0E08C2FC4
:102EA000CF9108950F931F93CF93DF93FC01C481BB
:102EB000D581209719F4FB01108211C041505109AE
:102EC0004C175D0708F4EA018B01FC0160817181F8
:102ED000AE01C8010E94F224C00FD11F1882DF91F9
:102EE000CF911F910F910895CF93DF93EB01FC01D8
:102EF000448155814F5F5F4F21F064E476E00E948A
:102F000052174C815D814F5F5F4F29F060EE75E095
:102F1000CE010E945217C0EED5E009900020E9F7DB
:102F20002197C05ED5400E941917882371F1E4E40F
:102F3000F6E001900020E9F7CE018E0F9F1F8E531F
:102F400096408138910508F545E050E06EE175E066
:102F500084E496E00E949116DC01A25EBA4FE0EE96
:102F6000F5E09F01205E35402C173D0718F42191B4
:102F70002D93F7CF2597AE01480F591F6EE175E0ED
:102F800080E3DF91CF910C94B116DF91CF9108953A
:102F9000E2EDF4E001900020E9F7CF018A5C944073
:102FA0008138910560F50E941917882341F18091BD
:102FB0009E0590919F05019611F481E090E0909319
:102FC0009F0580939E0580919E0590919F0590930B
:102FD00023058093240547E050E06EE175E082ED23
:102FE00094E00E949116FC01E45EFA4F1282AC015B
:102FF000445051096EE175E082E80C94B11680E00E
:103000000895CF92DF92EF92FF92CF93DF93EC017E
:103010000E94FC196B017C0180911C0590911D059B
:10302000DC01ED91FC910084F185E02D1995892B4F
:1030300079F40E94FC19DC01CB018C199D09AE09C1
:10304000BF0988399A43A105B10530F380E00DC06E
:1030500080911C0590911D05DC01ED91FC9102848D
:10306000F385E02D1995888381E0DF91CF91FF9062
:10307000EF90DF90CF900895CF92DF92EF92FF9282
:103080000F931F93CF93DF936C018B017A01461747
:10309000570720F4812F8A01E62EF82E63EE73E0A5
:1030A000C6010E944211C0911A05D0911B050C1750
:1030B0001D07E0F4EC16FD0608F4E701E0911605A3
:1030C000F0911705EC0FFD1FF0801082609116053E
:1030D00070911705600F711FC6010E940611809143
:1030E000160590911705C80FD91FF882C601DF9108
:1030F000CF911F910F91FF90EF90DF90CF900895A7
:103100003FB7F8948091970690919806A091990600
:10311000B0919A0626B5A89B05C02F3F19F00196DD
:10312000A11DB11D3FBFBA2FA92F982F8827820F4D
:10313000911DA11DB11DBC01CD0142E0660F771F9D
:10314000881F991F4A95D1F708958F929F92AF9249
:10315000BF92EF92FF920F931F93CF93DF93CDB760
:10316000DEB7A1970FB6F894DEBF0FBECDBF7C01CE
:10317000FA01CB0119A2223008F42AE08E010F5D7A
:103180001F4F822E912CA12CB12CBF01A5019401BF
:103190000E948B22F901CA01015011096A3014F40E
:1031A000605D01C0695CD8016C93232B242B252B17
:1031B00061F70115110591F0F80101900020E9F780
:1031C0003197AF01401B510BD701ED91FC9102806B
:1031D000F381E02DB801C701199502C080E090E0AD
:1031E000A1960FB6F894DEBF0FBECDBFDF91CF9191
:1031F0001F910F91FF90EF90BF90AF909F908F9095
:10320000089590E0FC013197E231F10508F04EC0DD
:103210008827EE58FF4F8F4F0C94AD22809180008D
:103220008F7703C0809180008F7D80938000089508
:1032300080918000877FF9CF84B58F7702C084B5F5
:103240008F7D84BD08958091B0008F7703C08091F9
:10325000B0008F7D8093B0000895809190008F77AB
:1032600007C0809190008F7D03C080919000877F80
:103270008093900008958091A0008F7707C080917F
:10328000A0008F7D03C08091A000877F8093A00065
:103290000895809120018F7707C0809120018F7D54
:1032A00003C080912001877F8093200108951F93A0
:1032B000CF93DF93282F30E0F901EA51FD4F84913D
:1032C000F901E65AFD4FD491F901E056FD4FC49142
:1032D000CC23C1F0162F81110E940119EC2FF0E0D0
:1032E000EE0FFF1FEA5DFD4FA591B4919FB7F894D3
:1032F000111104C08C91D095D82302C0EC91DE2B23
:10330000DC939FBFDF91CF911F910895CF93DF93FF
:1033100090E0FC01E65AFD4F2491FC01E056FD4F80
:103320008491882361F190E0880F991FFC01E05C93
:10333000FD4FC591D491FC01EA5DFD4FA591B4917B
:10334000611109C09FB7F8948881209582238883F2
:10335000EC912E230BC0623061F49FB7F894888102
:10336000322F309583238883EC912E2B2C939FBF93
:1033700006C08FB7F894E8812E2B28838FBFDF918A
:10338000CF9108958F929F92AF92BF92CF92DF928A
:10339000EF92FF926B017C010E9480184B015C014F
:1033A000C114D104E104F104F1F00E948018DC01A1
:1033B000CB0188199909AA09BB09883E9340A10548
:1033C000B10570F321E0C21AD108E108F10888EED6
:1033D000880E83E0981EA11CB11CC114D104E10425
:1033E000F10419F7DDCFFF90EF90DF90CF90BF9001
:1033F000AF909F908F9008952FB7F89460919306A7
:103400007091940680919506909196062FBF08952D
:103410001F920F920FB60F9211242F933F938F9309
:103420009F93AF93BF938091930690919406A09140
:103430009506B09196063091920623E0230F2D3722
:1034400020F40196A11DB11D05C026E8230F0296A8
:10345000A11DB11D2093920680939306909394062C
:10346000A0939506B0939606809197069091980642
:10347000A0919906B0919A060196A11DB11D809365
:10348000970690939806A0939906B0939A06BF91D9
:10349000AF919F918F913F912F910F900FBE0F9001
:1034A0001F90189580E195E00E94341186E195E027
:1034B0000E9434118EEC95E00C943411CF93DF937D
:1034C000CDB7DEB7EE970FB6F894DEBF0FBECDBF17
:1034D000789484B5826084BD84B5816084BD85B5EF
:1034E000826085BD85B5816085BD80916E008160FB
:1034F00080936E00109281008091810082608093A1
:1035000081008091810081608093810080918000A2
:103510008160809380008091B10084608093B100CD
:103520008091B00081608093B000809191008260B2
:1035300080939100809191008160809391008091AF
:1035400090008160809390008091A10082608093C0
:10355000A1008091A10081608093A1008091A000D2
:1035600081608093A000809121018260809321017D
:1035700080912101816080932101809120018160EF
:103580008093200180917A00846080937A008091FA
:103590007A00826080937A0080917A0081608093C3
:1035A0007A0080917A00806880937A001092C1003E
:1035B00080914D021F928F9380914C021F928F93A6
:1035C00080914B021F928F9380914A021F928F939A
:1035D000809149021F928F93809148021F928F938E
:1035E00081E493E09F938F938E010F5F1F4F1F9392
:1035F0000F930E94012589E3E82E83E0F82EFBA2B9
:10360000EAA28091D6059091D705A091D805B091F6
:10361000D9058CA39DA3AEA3BFA3CE0182960E9421
:10362000DD09FBA2EAA28091BB059091BC05A091A7
:10363000BD05B091BE058CA39DA3AEA3BFA3CE01D3
:1036400082960E94C30984E298E09093AA05809331
:10365000A9050FB6F894DEBF0FBECDBF97E7E92EE0
:1036600092E0F92ED7018C91B2E0EB0EF11C62E0F2
:103670000E948619E9EBEE16E2E0FE0699F760E09B
:103680008CE20E948619ABE5EA2EA2E0FA2EB7E79B
:10369000AB2EB2E0BB2ED701DC90B2E0EB0EF11CFA
:1036A00061E08D2D0E94861961E08D2D0E945719D1
:1036B000AE14BF0481F70E94FC1960933804709324
:1036C000390480933A0490933B0480E18093810015
:1036D0001092800082E19AE79093870080938600A1
:1036E00084E18093810086E394E090933704809393
:1036F000360481E080936F0080E49EE7A5E0B0E0AF
:103700008093000290930102A0930202B0930302FF
:10371000FE013896FBAFEAAFF9E32F2EF3E03F2E20
:103720000E9419178111CFC162ECC62E7FE0D72EFF
:10373000ECEFEE2EFF24FA940E9419178111C3C1F9
:1037400039A628A61AA61BA61CA61DA6C8010E945B
:10375000BD0989819A810E948A0544E050E0BE013A
:10376000665D7F4F8FE090E00E949C110E9489056A
:103770006AA57BA58CA59DA51BA21AA21DA21CA2B1
:103780001FA21EA22AE0A8010E943F22B801CE017A
:1037900082960E9406116FE573E0C8010E944211F3
:1037A000BE016E5D7F4FC8010E94D210BC01CE01E8
:1037B000C4960E943911C8010E943411CE0182962C
:1037C0000E94341148AD59AD4F5F5F4F31F062ED4B
:1037D00074E0CE01C4960E9452170E9419178111FD
:1037E000D3C06091B1057091B20580911C05909194
:1037F0001D054091B3055091B405DC01ED91FC919C
:103800006115710521F00088F189E02D12C0068450
:10381000F785E02D3A8229828090AD059090AE0523
:10382000A090AF05B090B0058B829C82AD82BE8225
:10383000B80119958130910509F09FC090939F05BB
:1038400080939E0587E0E4E5F2E0D80101900D92B7
:103850008A95E1F7F801A3E2B5E081918D932AAD55
:103860003BADE217F307C9F7C0922A0510922B056A
:10387000D0922C054FE050E06EE175E082ED94E0CF
:103880000E949116AC016EE175E085E793E00E941D
:103890009116AC016EE175E08FE793E00E949116FE
:1038A000AC01455051096EE175E080E10E94B1160E
:1038B0000E94FC196093A0057093A1058093A20556
:1038C0009093A3056093A4057093A5058093A60526
:1038D0009093A70580911C0590911D05DC01ED9149
:1038E000FC910084F185E02D1995892BD1F40E947B
:1038F000FC198090A4059090A505A090A605B09015
:10390000A705DC01CB0188199909AA09BB098839E7
:103910009A43A105B105F0F2F092B805E092B7051F
:1039200020C0CE0182960E94C7080497D1F48091EE
:103930002105811111C00E94FC196093A4057093A8
:10394000A5058093A6059093A7051092A80510924F
:10395000B8051092B70518C090E09093B805809311
:10396000B70580911C0590911D05DC01ED91FC913E
:103970000488F589E02D199574C4EEEFFFEFF093FC
:10398000B805E093B7056DC465E873E0C8010E940F
:1039900042116EEC75E0C8010E94D2106AE873E033
:1039A0000E94B910BC01CE018E960E943911C80147
:1039B0000E9434114AA95BA94F5F5F4F31F062ED5D
:1039C00074E0CE018E960E9452170E94C81765E8D7
:1039D00073E0C8010E9442116EEC75E0C8010E94BC
:1039E000D21061E973E00E94B910BC01CE018E963D
:1039F0000E941D11C8010E9434114AA95BA94F5FA2
:103A00005F4F31F062ED74E0CE018E960E94521746
:103A10000E94C81768E973E0C8010E94421162EA77
:103A200073E0CE0188960E9442116EEC75E0CE01E3
:103A300088960E94D210BC01CE0182960E94391154
:103A4000B801CE0182960E947417CE0182960E9420
:103A50003411CE0188960E943411C8010E9434119D
:103A600063EB73E0C8010E9442116CEA73E0CE017F
:103A700088960E9442116EEC75E0CE0188960E94F5
:103A8000D21062EB73E00E94B910BC01CE018296A5
:103A90000E943911B801CE0182960E947417CE019E
:103AA00082960E943411CE0188960E943411C8017A
:103AB0000E943411CE018E960E943411CE01C4961C
:103AC0000E94341139CE0E941917882309F423C1AA
:103AD0000E94FC192B013C018091A4059091A50541
:103AE000A091A605B091A705A3019201281B390B4F
:103AF0004A0B5B0BDA01C90189399A43A105B1056B
:103B0000A8F48091A0059091A105A091A205B09183
:103B1000A305A3019201281B390B4A0B5B0BDA01A9
:103B2000C90189399A43A105B105C8F12091A805B9
:103B300080911C0590911D05222371F02CEF3FEF21
:103B40003093B8052093B705DC01ED91FC91048812
:103B5000F589E02D1995DFC020EC20931E05109209
:103B60001F05DC01ED91FC910280F381E02D42E024
:103B700050E06EE175E019954092A0055092A105C4
:103B80006092A2057092A3054092A4055092A505EB
:103B90006092A6057092A70581E08093A8058091A8
:103BA0001C0590911D05DC01ED91FC910084F185CF
:103BB000E02D1995892B09F4AEC0C8010E94C708F1
:103BC0005C01892B09F4A5C04092A4055092A5057B
:103BD0006092A6057092A70580911E05807F8033B4
:103BE00009F07BC08091A9059091AA05892B09F461
:103BF00092C0C980D12CF601E45EFA4FE380F12C2B
:103C0000FE2CEE248481E80EF11CF601E05EFA4FF2
:103C10004F01B6016F5D7A4FA701CF010E94C92401
:103C2000B7016C0D7D1DDB01A45EBA4F14961C928A
:103C3000149780911E0586708EAFE091A905F091D2
:103C4000AA058230E9F515968C91159790E0982F8A
:103C5000882716962C91AC01420F511D5DAF4CAFD9
:103C60004BEF5FEF4C195D094E195F094A0D5B1D63
:103C70006D5D7A4FC401199580E480931E055EAD99
:103C800050931F058DAD809320059CAD9093210529
:103C900080911C0590911D05DC01ED91FC91028045
:103CA000F381E02D44E050E06EE175E0199540921B
:103CB000A0055092A1056092A2057092A3052BC0A9
:103CC0004DEF5FEF4C195D094E195F094A0D5B1D01
:103CD0006F5D7A4FC40119951EC0803CA9F480ED38
:103CE00080931E0510921F0580911C0590911D0563
:103CF000DC01ED91FC910280F381E02D42E050E087
:103D00006EE175E0199507C0803D29F41092A80571
:103D100002C00E94191794E0692E92E0792E2DE3DB
:103D2000C22E24E0D22E37E7432E32E0532EF2018A
:103D3000819091902F0194013327F901EA51FD4FB1
:103D40008491F901E65AFD4FE490F901E056FD4FE8
:103D5000F490FF20A1F081110E940119EF2DF0E0F5
:103D6000EE0FFF1FE45FFD4FA591B491EC91EE22A1
:103D700091E080E009F490E0E92EF82E02C0E12CF9
:103D8000F12CD3018D919C918E159F0551F00E94CD
:103D9000FC1960937F047093800480938104909356
:103DA0008204E114F10431F4F60180819181892BC0
:103DB00039F096C0D6018D919C91019709F090C081
:103DC0000E94FC1920917F0430918004409181046D
:103DD00050918204DC01CB01821B930BA40BB50B29
:103DE000C397A105B10508F47BC00E94FC1960933C
:103DF0007F04709380048093810490938204E11483
:103E0000F104B1F569EB73E0C8010E94421165E865
:103E100073E0CE0188960E9442116EEC75E0CE01EF
:103E200088960E94D2106CEB73E00E94B9105C017E
:103E3000B4010E947710811103C0C5010E94A71030
:103E4000B501CE0182960E943911B801CE01829649
:103E50000E947417CE0182960E943411CE0188967A
:103E60000E943411C8010E94341181E090E035C0F5
:103E700061EC73E0C8010E94421165E873E0CE0175
:103E800088960E9442116EEC75E0CE0188960E94E1
:103E9000D2106CEB73E00E94B9105C01B4010E9477
:103EA0007710811103C0C5010E94A710B501CE0192
:103EB00082960E943911B801CE0182960E94741731
:103EC000CE0182960E943411CE0188960E94341150
:103ED000C8010E94341180E090E0F6019183808354
:103EE000D301ED92FD923D01B2E0CB0ED11CE6E490
:103EF0006E16E2E07E0609F01ACF80913C0488231A
:103F000009F4A7C165E873E0CE0188960E944211CA
:103F10006EEC75E0CE0188960E94D21065EC73E0DD
:103F20000E94B9107C0165E873E0C8010E9442114B
:103F30006EEC75E0C8010E94D21065EC73E00E943F
:103F4000B910DC0114964D915C91159760E070E01A
:103F5000CE0182960E943C18B701CE0182960E9443
:103F60004510F82ECE0182960E943411C8010E949D
:103F70003411CE0188960E94341165E873E0FF2069
:103F800009F4D1C0C8010E9442116EEC75E0C8016D
:103F90000E94D21065EC73E00E94B91040911A059E
:103FA00050911B05FC0164817581CE0182960E94AF
:103FB0003C188AA19BA1009729F00E94F8214B018F
:103FC0005C0103C0812C912C5401CE0182960E9489
:103FD0003411C8010E943411C4010197C19708F03F
:103FE00036C18091140590911505892BC9F0E09098
:103FF0001005F090110569EB73E0C7010E94E224FF
:10400000892B11F460E008C061EC73E0C7010E94E5
:10401000E224892B29F461E0882D0E94571963C09E
:104020001FA61EA619AA18AA1BAA1AAA4AE0B80116
:10403000C4010E941F22B801CE018E960E94061173
:104040006BEC73E0CE0188960E94421166E175E048
:10405000CE0188960E94D21064EE73E00E94B910DF
:104060006EEC75E00E94D21062EF73E00E94B9100E
:10407000BE01625D7F4F0E94D2106AED73E00E9424
:10408000B91060E175E00E94D210BC01CE01C49667
:104090000E94391168EF73E0C8010E9442116EEC72
:1040A00075E0C8010E94D210BC01CE0182960E9428
:1040B0003911BE016C5C7F4FCE0182960E9474174D
:1040C000CE0182960E943411C8010E943411CE01A3
:1040D000C4960E943411CE0188960E943411CE01FC
:1040E0008E960E94341166E175E0CE0188960E949A
:1040F0003911BE01685D7F4FCE0182960E94391151
:1041000063E074E0C8010E944211BE016E5D7F4F02
:10411000C8010E947417C8010E943411CE01829612
:104120000E94341190C0CE0188960E9442116EEC1C
:1041300075E0CE0188960E94D21061E973E00E947A
:10414000B9107C0165E873E0C8010E9442116EEC71
:1041500075E0C8010E94D21061E973E00E94B910B5
:10416000DC0114964D915C91159760E070E0CE01F2
:1041700082960E943C18B701CE0182960E9445109B
:10418000F82ECE0182960E943411C8010E9434118B
:10419000CE0188960E943411FF2091F16CE074E00A
:1041A000CE0188960E94421162E274E0C8010E942A
:1041B00042116EEC75E0C8010E94D210BC01CE0124
:1041C00082960E943911BE01685D7F4FCE018296B2
:1041D0000E947417CE0182960E943411C8010E9479
:1041E0003411CE0188960E9434110E94FC1960930C
:1041F00038047093390480933A0490933B0427C0A9
:1042000066E175E0CE0188960E94391168EF73E08F
:10421000C8010E9442116EEC75E0C8010E94D210E4
:10422000BC01CE0182960E943911BE01685D7F4FAC
:10423000CE0182960E947417CE0182960E9434119C
:10424000C8010E943411CE0188960E943411109248
:104250003C0480E090E0892B09F462CA0E940000CF
:104260005BCA68E873E180E090E00E94C21926CC46
:104270000F931F93CF93DF93E2E6F6E0C9E3D3E019
:10428000D183C0831282138214821582E8E6F6E09D
:10429000D183C0831282138214821582E4E0F5E098
:1042A000D183C0831282138214821582EEE6F6E077
:1042B000D183C0831282138214821582E4E7F6E070
:1042C000D183C0831282138214821582EAE7F6E05A
:1042D000D183C0831282138214821582E0E8F6E053
:1042E000D183C0831282138214821582E6E8F6E03D
:1042F000D183C0831282138214821582ECE8F6E027
:10430000D183C0831282138214821582EAE0F5E021
:10431000D183C0831282138214821582EAEDF5E004
:10432000D183C0831282138214821582E4EDF5E0FA
:10433000D183C08300EC028318EA1383148288ECD3
:1043400085836DE274E08EEC95E00E944211EFEB04
:10435000F5E01382128288EE93E0A0E0B0E084835F
:104360009583A683B7838BE093E09183808388E075
:10437000848788EE93E096878587A9EBB5E0119650
:10438000DC93CE9312960C93129713961C9313976B
:1043900014961C9214978AEB15968C93D093AC05C7
:1043A000C093AB051092AD051092AE051092AF050B
:1043B0001092B0058FEF9FEF9093B8058093B705EB
:1043C000F0931D05E0931C051092B6051092B505FB
:1043D00063EE73E086E195E00E94421163EE73E0C4
:1043E00080E195E0DF91CF911F910F910C944211E4
:1043F0001F93FC0199278827BC01E8941191103282
:10440000E9F3193010F01E30C8F31B3251F01D32A1
:1044100049F4689406C00E942A22610F711D811D13
:10442000911D119110531A30B0F33EF49095809580
:10443000709561957F4F8F4F9F4F1F910895BB27B8
:104440004A3031F4992322F4BDE2909581959F4F33
:104450000C946222592F482F372F262F660F771F73
:10446000881F991F660F771F881F991F620F731F80
:10447000841F951F660F771F881F991F0895BB27FC
:10448000FA01A62F6217710581059105330B30FBE8
:1044900066F0AA27660F771F881F991FAA1FA21709
:1044A00010F0A21B63953850A9F7A05DAA3308F05D
:1044B000A95DA19336F7B111B1931082CA010C9492
:1044C0007B22BB27FB015527AA27880F991FAA1F0C
:1044D000A41710F0A41B83955051B9F7A05DAA331F
:1044E00008F0A95DA193009779F7B111B1931192EA
:1044F000CB010C947B22DC01FC01672F71917723A7
:10450000E1F7329704C07C916D9370836291AE178E
:10451000BF07C8F30895A1E21A2EAA1BBB1BFD0119
:104520000DC0AA1FBB1FEE1FFF1FA217B307E40792
:10453000F50720F0A21BB30BE40BF50B661F771FEA
:10454000881F991F1A9469F76095709580959095CA
:104550009B01AC01BD01CF010895EE0FFF1F881F25
:104560008BBF0790F691E02D19940F931F93CF9373
:10457000DF938230910510F482E090E0E0919D0697
:10458000F0919E0620E030E0A0E0B0E0309719F115
:10459000408151810281138148175907C8F084175F
:1045A000950769F4109731F012960C9312971396B1
:1045B0001C9327C000939D0610939E0622C02115D0
:1045C000310519F04217530718F49A01BD01EF01A4
:1045D000DF01F801DBCF21153105F9F0281B390B7C
:1045E0002430310580F48A819B816115710521F0A9
:1045F000FB019383828304C090939E0680939D0663
:10460000FE01329644C0FE01E20FF31F81939193A5
:1046100022503109398328833AC020919B0630917A
:104620009C06232B41F4209150023091510230938B
:104630009C0620939B0620914E0230914F0221153B
:10464000310541F42DB73EB74091520250915302CB
:10465000241B350BE0919B06F0919C06E217F307B3
:10466000A0F42E1B3F0B2817390778F0AC014E5FE2
:104670005F4F2417350748F04E0F5F1F50939C067D
:1046800040939B068193919302C0E0E0F0E0CF015C
:10469000DF91CF911F910F910895CF93DF930097F2
:1046A00009F481C0FC01329713821282A0919D0609
:1046B000B0919E06109781F420813181820F931F63
:1046C00020919B0630919C062817390751F5F093ED
:1046D0009C06E0939B0667C0ED0120E030E0CE171A
:1046E000DF0740F44A815B819E0141155105F1F0DD
:1046F000EA01F5CFD383C28340815181840F951F96
:10470000C817D90759F488819981840F951F02969B
:10471000918380838A819B819383828321153105D4
:1047200029F4F0939E06E0939D063DC0E901FB83CA
:10473000EA8349915991C40FD51FEC17FD0761F425
:1047400080819181840F951F0296E9019983888366
:10475000828193819B838A83E0E0F0E012968D91C1
:104760009C911397009719F0FD01DC01F7CF8D9113
:104770009C9111979D012E5F3F4F820F931F2091B7
:104780009B0630919C062817390769F4309729F465
:1047900010929E0610929D0602C013821282B09360
:1047A0009C06A0939B06DF91CF9108956F927F9214
:1047B0008F929F92AF92BF92CF92DF92EF92FF9231
:1047C0000F931F93CF93DF93009789F4CB01DF9171
:1047D000CF911F910F91FF90EF90DF90CF90BF90FE
:1047E000AF909F908F907F906F900C94B522FC01BA
:1047F000E60FF71F9C0122503109E217F30708F476
:10480000A9C0EC01D9010D911C911197061717074A
:10481000B0F00530110508F49BC0C8010497861755
:10482000970708F495C002501109061B170B019356
:1048300011936D937C93CF010E944D2389C05B013E
:10484000A01AB10A4C01800E911EA0919D06B09154
:104850009E06612C712CE12CF12C109709F446C0B6
:104860008D919C911197A815B905B1F56C0142E0A5
:10487000C40ED11CCA14DB0478F14C018A189B08C1
:10488000640142E0C40ED11C1296BC90129713969C
:10489000AC91B5E0CB16D10440F0B282A3839182F3
:1048A0008082D9016D937C9309C00E5F1F4F800FEA
:1048B000911FF90191838083EB2DFA2FE114F1040C
:1048C00031F0D7011396FC93EE93129741C0F09309
:1048D0009E06E0939D063CC06816790608F43C01EC
:1048E0007D0112960D90BC91A02DB7CF80919B06B3
:1048F00090919C0688169906E1F466167706C8F42E
:1049000080914E0290914F02009741F48DB79EB76F
:104910004091520250915302841B950BE817F907FE
:10492000C8F4F0939C06E0939B06F90171836083C1
:104930000FC0CB010E94B5227C01009759F0A8015D
:10494000BE010E94C024CE010E944D23C70104C0B5
:10495000CE0102C080E090E0DF91CF911F910F91D6
:10496000FF90EF90DF90CF90BF90AF909F908F908F
:104970007F906F90089581E090E0F8940C94EA277E
:10498000FB01DC0102C001900D9241505040D8F76C
:1049900008956817790768F4FB01DC01E40FF51F3F
:1049A000A40FB51F02C002900E9241505040D8F79C
:1049B00008950C94C024DC0101C06D934150504017
:1049C000E0F70895FB01DC018D9101908019011041
:1049D000D9F3990B0895FB01DC0101900D920020A1
:1049E000E1F70895FB01DC014150504048F001908F
:1049F0000D920020C9F701C01D9241505040E0F7D0
:104A000008950F931F93CF93DF93CDB7DEB72E9703
:104A10000FB6F894DEBF0FBECDBF0E891F8986E0AA
:104A20008C831A8309838FEF9FE79E838D83AE016A
:104A3000465E5F4F688D798DCE0101960E943025CC
:104A4000EF81F885E00FF11F10822E960FB6F894D3
:104A5000DEBF0FBECDBFDF91CF911F910F910895A3
:104A60002F923F924F925F926F927F928F929F927E
:104A7000AF92BF92CF92DF92EF92FF920F931F936C
:104A8000CF93DF93CDB7DEB72B970FB6F894DEBF89
:104A90000FBECDBF6C017B018A01FC01178216821B
:104AA000838181FFCCC1CE0101963C01F601938147
:104AB000F70193FD859193FF81917F01882309F48C
:104AC000BAC1853239F493FD859193FF81917F01BD
:104AD000853229F4B60190E00E945027E7CF912C4F
:104AE000212C312CFFE1F315D8F08B3279F038F41A
:104AF000803279F08332A1F4232D20611DC08D32E4
:104B000061F0803369F4232D216016C0832D82600B
:104B1000382EE32DE4603E2E2AC0F32DF8601DC030
:104B200037FC2DC020ED280F2A3040F08E32B9F42A
:104B300036FC81C1232D2064322E19C036FE06C0FA
:104B40008AE0989E200D1124922E11C0EAE02E9E3C
:104B5000200D1124222EF32DF0623F2E08C08C363A
:104B600021F4832D8068382E02C0883641F4F70185
:104B700093FD859193FF81917F018111B3CF982F90
:104B80009F7D9554933028F40C5F1F4F9FE39983CA
:104B90000DC0833631F0833771F0833509F059C089
:104BA00021C0F801808189830E5F1F4F8824839480
:104BB000912C530113C02801F2E04F0E511CF80153
:104BC000A080B18036FE03C0692D70E002C06FEF97
:104BD0007FEFC5010E9445274C018201F32DFF772D
:104BE0003F2E16C0280122E0420E511CF801A08081
:104BF000B18036FE03C0692D70E002C06FEF7FEF19
:104C0000C5010E943A274C01F32DF0683F2E820126
:104C100033FC1BC0822D90E088169906B0F4B601D3
:104C200080E290E00E9450272A94F4CFF50137FCEF
:104C3000859137FE81915F01B60190E00E94502777
:104C400021102A9421E0821A91088114910471F7AD
:104C5000E8C0843611F0893641F5F80137FE07C007
:104C600060817181828193810C5F1F4F08C06081D8
:104C70007181072E000C880B990B0E5F1F4FF32DCF
:104C8000FF763F2E97FF09C09095809570956195AE
:104C90007F4F8F4F9F4FF0683F2E2AE030E0A301F7
:104CA0000E948C27882E861845C0853731F4232D25
:104CB0002F7EB22E2AE030E025C0932D997FB92EA9
:104CC0008F36C1F018F4883579F0B5C0803719F007
:104CD000883721F0B0C0E92FE061BE2EB4FE0DC0D0
:104CE000FB2DF460BF2E09C034FE0AC0292F2660B8
:104CF000B22E06C028E030E005C020E130E002C05E
:104D000020E132E0F801B7FE07C060817181828145
:104D100093810C5F1F4F06C06081718180E090E03D
:104D20000E5F1F4FA3010E948C27882E8618FB2D33
:104D3000FF773F2E36FE0DC0232D2E7FA22E891425
:104D400058F434FE0BC032FC09C0832D8E7EA82E91
:104D500005C0B82CA32C03C0B82C01C0B92CA4FEEC
:104D60000FC0FE01E80DF11D8081803321F49A2DE2
:104D7000997EA92E09C0A2FE06C0B394B39404C0C4
:104D80008A2D867809F0B394A3FC11C0A0FE06C05A
:104D9000B21488F4280C922C9B180EC0B21460F444
:104DA000B60180E290E00E945027B394F7CFB2148E
:104DB00018F42B1802C0982C212CA4FE10C0B601A8
:104DC00080E390E00E945027A2FE17C0A1FC03C020
:104DD00088E790E002C088E590E0B6010CC08A2D1B
:104DE000867859F0A1FE02C08BE201C080E2A7FCE8
:104DF0008DE2B60190E00E945027891438F4B60184
:104E000080E390E00E9450279A94F7CF8A94F301B0
:104E1000E80DF11D8081B60190E00E9450278110BD
:104E2000F5CF222009F442CEB60180E290E00E9444
:104E300050272A94F6CFF6018681978102C08FEF22
:104E40009FEF2B960FB6F894DEBF0FBECDBFDF915C
:104E5000CF911F910F91FF90EF90DF90CF90BF9077
:104E6000AF909F908F907F906F905F904F903F900A
:104E70002F900895FC010590615070400110D8F703
:104E8000809590958E0F9F1F0895FC016150704092
:104E900001900110D8F7809590958E0F9F1F08956F
:104EA0000F931F93CF93DF93FB01238121FD03C059
:104EB0008FEF9FEF2CC022FF16C0468157812481BF
:104EC00035814217530744F4A081B1819D012F5FC2
:104ED0003F4F318320838C93268137812F5F3F4F53
:104EE0003783268314C08B01EC01FB010084F1851C
:104EF000E02D1995892BE1F6D80116968D919C919C
:104F00001797019617969C938E931697CE01DF9173
:104F1000CF911F910F910895FA01AA27283051F1DE
:104F2000203181F1E8946F936E7F6E5F7F4F8F4FDA
:104F30009F4FAF4FB1E03ED0B4E03CD0670F781F39
:104F4000891F9A1FA11D680F791F8A1F911DA11D1E
:104F50006A0F711D811D911DA11D20D009F4689457
:104F60003F912AE0269F11243019305D3193DEF6FF
:104F7000CF010895462F4770405D4193B3E00FD0B5
:104F8000C9F7F6CF462F4F70405D4A3318F0495DA0
:104F900031FD4052419302D0A9F7EACFB4E0A69583
:104FA0009795879577956795BA95C9F700976105A5
:104FB000710508959B01AC010A2E069457954795FB
:104FC00037952795BA95C9F7620F731F841F951FF0
:104FD000A01D089511E0C7E9D1E000E006C0802FD0
:104FE000FE010E94AD222196011DC839D10780E043
:084FF0000807A9F7F894FFCFB0
:104FF800407E0500010001000100010001000100E0
:105008000100010001000100010001000100010090
:105018000100010001000100010001000100010080
:105028000100010001000100010001000100010070
:1050380001000100010000C0DEADBEEFFEED000082
:105048009F06800000044D515454040100020003DF
:10505800000400050006000700080009000B000C0A
:10506800000D00300031000E000F0010001100127A
:105078000013001400150016001700180019001A74
:10508800001B001C001D001E001F00200021002224
:105098000023002400250026002700280029002AD4
:1050A800002B002D002E002F0001005E00000000E4
:1050B800000000CC018D054302CB01E201DD029521
:1050C80002F5034602870218068E03D5053203BE91
:1050D800021F020F020B020702000000006F0F0BF5
:1050E8000F43020A0F6F0F6F0F6F0F000000006F62
:1050F8000F0B0F43020A0F00000000F10104072004
:10510800050B0529030603A4028D079804200360F4
:105118000413043B0238023602E6012C02D5068F3E
:10512800066006280200000000C60F000000006F9D
:105138000F253032583A253032583A253032583A0D
:10514800253032583A253032583A253032580052F4
:1051580065636F6E6E656374696E6720417264750E
:10516800696E6F2D00736C6173686261636B006EAA
:10517800696D646100636D642F002F6F75742F2350
:10518800002F726573657400636F6E6E6563746576
:1051980064006C6F672F696E666F2F00696E6974A3
:1051A8002F002F7265616479004F4E002F696E2FB2
:1051B800004F4646002F6F75742F006661696C6555
:1051C8006420746F207472656174206D65737361F7
:1051D8006765200020666F722061726475696E6F62
:1051E80020002070696E20006C6F672F6572726FE7
:1051F800722F0063616C6C6261636B00526573654A
:1052080074206F6620746865207761746368646FC2
:1052180067006C6F672F64656275672F006574613E
:0652280067653161000022
:00000001FF
