:100000000C94A6010C94D7010C94D7010C94D70141
:100010000C94D7010C94D7010C94D7010C94D70100
:100020000C94D7010C94D7010C94D7010C94D701F0
:100030000C94D7010C94D7010C94D7010C94D701E0
:100040000C94D7010C94D7010C94D7010C94D701D0
:100050000C94131C0C94D7010C94D7010C946B20B6
:100060000C94D7010C94D7010C94D7010C94D701B0
:100070000C94D7010C94D7010C94D7010C94D701A0
:100080000C94D7010C94D7010C94D7010C94D70190
:100090000C94D7010C94D7010C94D7010C943E1CFE
:1000A0000C94D7010C94D7010C94D7010C94D70170
:1000B0000C94D7010C94D7010C94D7010C94D70160
:1000C0000C94D7010C94D7010C94D7010C94D70150
:1000D0000C94D7010C94D7010C94D7010C94D70140
:1000E0000C94D7017F1F821F711F751F7B1FB91FC3
:1000F000861F8A1F901F941F981F9E1FA21FA61F56
:10010000B91FAC1FB01FB41F0C94FE260C9426110F
:100110000C948D190C94751F0C94E7110C94FC1918
:100120000C949E1F0C9429160C94FD120C947B02C7
:100130000C9417030C9472160C94F7010C94161B74
:100140000C94EA190C94980F0C94A21F0C948A1F1B
:100150000C94A61F0C94EF010C94B41F0C94B520C2
:100160000C94451A0C94AE150C94981F0C94F30142
:100170000C94A6110C94ED190C9451020C94901F40
:100180000C9414020C9440140C940E030C94100262
:100190000C9429040C941E020C94AC1F0C940702BE
:1001A0000C940C0F0C9423020C942E020C94181A2D
:1001B0000C94EB020C947B1F0C94D1020C94660FF0
:1001C0000C94CA0F0C94B01F0C94D9010C948E1986
:1001D0000C94220F0C94A0030C94101A0C942B0274
:1001E0000C9412100C94F4020C94821F0C94C8020C
:1001F0000C9466150C94B3020C9420020C94EC1928
:100200000C947F1F0C94B91F0C94EB190C9487125B
:100210000C9418080C94941F0C94260F0C948515BC
:100220000C94711F0C94861F0000220025002800EA
:100230002B002E00310034000201000005010801EE
:100240000B0100002100240027002A002D003000AF
:10025000330001010000040107010A01010210201E
:1002600020080810204010204080020102010804EC
:100270000201010204081020408080402010080480
:1002800002018004020180402010080402010804D9
:10029000020101020408102040800102040810201D
:1002A0004080050505050705080808080202020246
:1002B0000A0A080804040404010101010101010102
:1002C0000303030303030303040707070C0C0C0CCD
:1002D0000C0C0C0C020202020606060606060606B6
:1002E0000B0B0B0B0B0B0B0B00002000230026004D
:1002F00029002C002F00320000010000030106013C
:10030000090100000A0B02090C0D0E080703040185
:1003100000000000000000000000000000000000DD
:1003200000000000000000000000000000001211AA
:1003300010000000000000000000000000000000AD
:100340000000000000000000FE26B52011241FBEA2
:10035000CFEFD1E2DEBFCDBF00E00CBF15E0A0E0E3
:10036000B2E0E0EBFBE500E00BBF02C007900D92AE
:10037000AA31B107D9F728E0AAE1B5E001C01D9282
:10038000A435B207E1F711E0C5EAD1E000E006C00C
:1003900021970109802FFE010E948928C43AD107C4
:1003A00080E00807A9F70E94C1200C94C62D0C9488
:1003B0000000CF93DF931F92CDB7DEB76983DC01D6
:1003C000ED91FC910280F381E02D41E050E0BE010F
:1003D0006F5F7F4F19950F90DF91CF910895FC01CA
:1003E000848595850895FC018489958908952BE677
:1003F00033E0FC0131832083FB014089518962890C
:100400007389FC0142835383648375830895DC01FF
:10041000ED91FC91048CF58DE02D199480E0089508
:10042000FC01768765870895DC01ED91FC91068CCF
:10043000F78DE02D199591E089270895862F08956D
:1004400081E08627089521E0FC018485883008F04A
:1004500020E0822F089580E090E00895CF93DF930D
:10046000EC018C858830C8F40E940A16843181F032
:10047000882371F0883161F08C3161F4E881F98171
:100480000084F185E02DCE01199521E0892B19F426
:1004900020E001C021E0822F01C080E0DF91CF91F8
:1004A00008950F931F930E945F2000917305109190
:1004B00074052091750530917605DC01CB01801B18
:1004C000910BA20BB30B009108021091090220912D
:1004D0000A0230910B02081719072A073B0740F45C
:1004E000789410926F00E0E0F0E01F910F91199462
:1004F0001F910F910895CF92DF92EF92FF92CF93C9
:10050000DF93EC018C85883038F50E946C110E94D5
:100510005F206B017C018C850E940A168823D1F034
:1005200061E070E080E090E00E9425200E945F2062
:10053000AB01BC014C195D096E097F098D859E8553
:10054000A0E0B0E0481759076A077B0720F38C85C5
:100550000E94891188E08C87DF91CF91FF90EF9006
:10056000DF90CF900895CF93DF93EC018C85883096
:1005700060F40E940A16873111F08C3131F48C85B9
:100580000E945E148115984088F3DF91CF91089501
:10059000FC018485883010F40C945E1480E090E0B7
:1005A0000895CF93DF931F92CDB7DEB741E050E0BF
:1005B000BE016F5F7F4FFC0184850E948E14181668
:1005C00019061CF4898190E002C08FEF9FEF0F9015
:1005D000DF91CF910895FC018485883010F40C944C
:1005E0008E1480E090E00895CF93DF93FC01248582
:1005F000283018F08FEF9FEF0EC0EC010190F081D2
:10060000E02D0084F185E02D1995892B99F38C85D7
:100610000E94F81090E0DF91CF910895FC0184854D
:10062000883010F40C94351180E090E00895CF925A
:10063000DF92EF92FF920F931F93CF93DF93CDB78B
:10064000DEB7AF970FB6F894DEBF0FBECDBF8C01FB
:100650006B017A01CE0101960E949B0B8BE693E021
:100660009BA78AA71CA61DA61EA61FA6D8011C967E
:100670008C91883060F40E940A16882321F0F801DA
:1006800084850E946C1188E0D8011C968C9380911F
:100690005E0690915F06A0916006B09161068EA300
:1006A0009FA3A8A7B9A78B839C83AD83BE8318861D
:1006B0001F82AE01465D5F4FB601CE0101960E94DA
:1006C000BB0B0097C1F0D801ED91FC910684F78532
:1006D000E02D8BE693E09DA38CA38CA59DA5AEA5F4
:1006E000BFA58EA39FA3A8A7B9A7A701BE016C5D54
:1006F0007F4FC8011995AF960FB6F894DEBF0FBEB5
:10070000CDBFDF91CF911F910F91FF90EF90DF90C0
:10071000CF900895DA0190916805E92FF0E0FE2F5F
:10072000EE27E60FF71F90E0982F8827A901BD015B
:100730008E0F9F1F0C94801D08958CBD9DBD089544
:100740006F927F928F929F92AF92BF92CF92DF92E1
:10075000EF92FF921F93CF93DF931F921F92CDB71B
:10076000DEB7FC011485183008F061C06A01413021
:10077000F8E05F0718F0C12C28E0D22E7A013B0187
:100780005C01CE0101960E94B10989819A810E9483
:100790009D03812F0E94BB104C0163E070E0812F0C
:1007A0000E946513873111F08C3121F48C149D0463
:1007B00040F302C0C12CD12CCE0101960E94B10998
:1007C00089819A810E949D039601A30160E070E0F7
:1007D000812F0E94071260E270E0812F0E94701D3D
:1007E00062E070E0812F0E94651384FD16C063E013
:1007F00070E0812F0E946513811106C081E090E0B6
:10080000F5019383828313C0CE0101960E94B10942
:1008100089819A810E949D03E3CF40E162E070E00C
:10082000812F0E944713CD2849F3C70102C080E001
:1008300090E00F900F90DF91CF911F91FF90EF907C
:10084000DF90CF90BF90AF909F908F907F906F90F0
:100850000895AF92BF92CF92DF92EF92FF920F93E3
:100860001F93CF93DF931F921F92CDB7DEB78C01FA
:100870006B015A01FC018485883058F40E940A16E5
:10088000882321F0F80184850E946C1188E0F8012A
:100890008487F60182819381A481B5810097A105A7
:1008A000B10509F45BC08F3F9F4FAF4FBF4F09F4B5
:1008B00055C060E070E081E20E948313F82EF801D9
:1008C0008487F7E0F81708F449C0CE0101960E942A
:1008D000B10989819A810E949D03A6014E5F5F4FF5
:1008E00024E030E06CE070E08F2D0E94F511B5013E
:1008F0008F2D0E94D11264E070E08F2D0E94701D38
:100900000E945F206B017C01F80184850E940A1619
:10091000873139F18C3129F1882301F10E945F2060
:10092000AB01BC014C195D096E097F09F801858591
:100930009685A0E0B0E084179507A607B70738F0C2
:1009400061E070E080E090E00E942520DDCFF801BA
:1009500084850E94891188E0F801848780E090E016
:1009600002C081E090E00F900F90DF91CF911F9136
:100970000F91FF90EF90DF90CF90BF90AF900895D0
:10098000CF92DF92EF92FF920F931F93CF93DF935B
:10099000CDB7DEB768970FB6F894DEBF0FBECDBFF8
:1009A00063E773E0CE0101960E94FE1B60E277E0F0
:1009B000CE0101960E94AF1B68E773E00E94961B70
:1009C0008C0163E773E0CE010D960E94FE1B60E28E
:1009D00077E0CE010D960E94AF1B68E773E00E949E
:1009E000961BFC014481558160E070E0CE010796C2
:1009F0000E940219B801CE0107960E947416182FA2
:100A0000CE0107960E94F01BCE010D960E94F01BAE
:100A1000CE0101960E94F01B63E773E0CE01112323
:100A200009F4ACC107960E94FE1B60E277E0CE019C
:100A300007960E94AF1B68E773E00E94961B4091E7
:100A40006C0650916D06FC0164817581CE010196A2
:100A50000E94021989819A81009729F00E94D42767
:100A60006B017C0103C0C12CD12C7601CE01019613
:100A70000E94F01BCE0107960E94F01BF7E4CF16F0
:100A8000D10408F0B3C2860185EB93E00E94E6171B
:100A9000882311F060E007C080EB93E00E94E61726
:100AA000882329F061E08C2D0E94BA1F2FC084EBAF
:100AB00093E00E94E617882381F081E08093260668
:100AC00089E0809348061092270610924906C601D5
:100AD0000E94A6168AEF90E015C088EB93E00E9472
:100AE000E6178823D1F081E08093260689E0809381
:100AF00048061092270610924906C6010E94A616C3
:100B000088EC90E00E94A6160E943218809177052A
:100B1000882309F40EC1B60166C0809162069091E7
:100B20006306009719F00E94D42703C060E070E0CC
:100B3000CB0170931B0560931A058091770588237C
:100B4000B9F160911A0570911B05CE0107960E94BC
:100B500006186CEB73E0CE010D960E94FE1BBE01E1
:100B6000695F7F4FCE010D960E94AF1BBC01CE0185
:100B700001960E94F51B63E274E0CE0143960E9449
:100B8000FE1BBE016F5F7F4FCE0143960E94461948
:100B9000CE0143960E94F01BCE0101960E94F01BED
:100BA000CE010D960E94F01BCE0107960E94F01B0D
:100BB00081E08093260689E08093480610922706FC
:100BC00010924906C8010E94A61680911A059091BC
:100BD0001B050E94A6160E94321880917705882373
:100BE00009F4A7C0B801CE0107960E9406186EE767
:100BF00073E0CE010D960E94FE1B68E676E0CE0102
:100C00000D960E94AF1B6CE973E00E94961B60E298
:100C100077E00E94AF1B6AEA73E00E94961BBE0158
:100C2000695F7F4F0E94AF1BBC01CE0101960E94FD
:100C3000F51B63E274E0CE0143960E94FE1BBE01E9
:100C40006F5F7F4FCE0143960E944619CE014396B7
:100C50000E94F01BCE0101960E94F01BCE010D9662
:100C60000E94F01BCE0107960E94F01B8091770531
:100C7000882309F45EC061ED73E0CE0107960E94FF
:100C8000FE1B68E676E0CE0107960E94AF1BBC0112
:100C9000CE0101960E94F51B63E274E0CE010D9631
:100CA0000E94FE1BBE016F5F7F4FCE010D960E941A
:100CB0004619CE010D960E94F01BCE0101960E94AE
:100CC000F01BCE0107960E94F01BB801CE010796DB
:100CD0000E94061867ED73E0CE010D960E94FE1B80
:100CE000BE01695F7F4FCE010D960E94AF1BBC0114
:100CF000CE0101960E94F51B63E274E0CE0143969B
:100D00000E94FE1BBE016F5F7F4FCE0143960E9483
:100D10004619CE0143960E94F01BCE0101960E9417
:100D2000F01BCE010D960E94F01BCE0107960E948B
:100D3000F01B68E676E0CE010D960E94F51BBE0121
:100D4000635F7F4FCE0107960E94F51B6DED73E048
:100D5000CE0101960E94FE1BBE01695F7F4FCE014E
:100D600001960E949417CE0101960E94F01BCE01BD
:100D700007960E94F01BCE010D9636C101960E9487
:100D8000FE1B60E277E0CE0101960E94AF1B66EE8B
:100D900073E00E94961B8C0163E773E0CE010D9611
:100DA0000E94FE1B60E277E0CE010D960E94AF1B11
:100DB00066EE73E00E94961BFC014481558160E061
:100DC00070E0CE0107960E940219B801CE01079685
:100DD0000E947416182FCE0107960E94F01BCE01B8
:100DE0000D960E94F01BCE0101960E94F01B11236C
:100DF00051F1809177058823D9F060EF73E0CE013F
:100E000001960E94FE1B63E274E0CE0107960E94E9
:100E1000FE1BBE016F5F7F4FCE0107960E944619F1
:100E2000CE0107960E94F01BCE0101960E94F01B96
:100E30000E945F206093730570937405809375051D
:100E400090937605D3C063E773E0CE0101960E94CC
:100E5000FE1B60E277E0CE0101960E94AF1B66E0C8
:100E600074E00E94961B8C0163E773E0CE010D963F
:100E70000E94FE1B60E277E0CE010D960E94AF1B40
:100E800066E074E00E94961BFC014481558160E09D
:100E900070E0CE0107960E940219B801CE010796B4
:100EA0000E947416182FCE0107960E94F01BCE01E7
:100EB0000D960E94F01BCE0101960E94F01B11239B
:100EC00019F1809177058823D9F06DE074E0CE01A7
:100ED00001960E94FE1B63E274E0CE0107960E9419
:100EE000FE1BBE016F5F7F4FCE0107960E94461921
:100EF000CE0107960E94F01BCE0101960E94F01BC6
:100F0000E0E0F0E0199572C063E773E0CE0101966E
:100F10000E94FE1B60E277E0CE0101960E94AF1BAB
:100F200062E274E00E94961B8C0163E773E0CE01DD
:100F30000D960E94FE1B60E277E0CE010D960E94A6
:100F4000AF1B62E274E00E94961BFC014481558154
:100F500060E070E0CE0107960E940219B801CE0150
:100F600007960E947416182FCE0107960E94F01B58
:100F7000CE010D960E94F01BCE0101960E94F01B3F
:100F80001123C9F089E294E00E94E61781113FC065
:100F90008EE294E00E94E617811139C085EB93E060
:100FA0000E94E617811133C080E394E00E94E617A7
:100FB00081112DC032C068E676E0CE0101960E9414
:100FC000F51B65E374E0CE0107960E94FE1BBE018F
:100FD0006F5F7F4FCE0107960E944619CE0107969C
:100FE0000E94F01BCE0101960E94F01B1092780522
:100FF00068960FB6F894DEBF0FBECDBFDF91CF91DC
:101000001F910F91FF90EF90DF90CF90089581E0B6
:10101000809377056BE374E004C01092770563E575
:1010200074E0CE0101960E94FE1B6EE474E0CBCF0B
:10103000CF92DF92EF92FF920F931F93CF93DF93A4
:10104000CDB7DEB72C970FB6F894DEBF0FBECDBF7D
:1010500020917805211180C07A01C72ED62EBC01BF
:1010600081E080937805CE0101960E94FE1B80915D
:101070006806909169060097C9F069817A816115C7
:10108000710591F040916A0650916B062D813E8169
:101090004217530748F00E94C72A8D819E81909382
:1010A0006D0680936C0618C00E94292989819A8157
:1010B00090936906809368068B819C8190936B0660
:1010C00080936A068D819E8190936D0680936C0655
:1010D0001A8219821C821B821E821D82CE010196F9
:1010E0000E94F01B66ED73E082E696E00E94C21B50
:1010F0000D2D1C2DE00EF11E0E151F0569F1F801D6
:1011000081918F0118861F821A8619861C861B867C
:1011100089831A82BE016F5F7F4FCE0107960E94BE
:10112000C21B62E676E0CE0101960E94F51BBE016D
:10113000695F7F4FCE0101960E94AF1BBC0182E622
:1011400096E00E94D91BCE0101960E94F01BCE01B1
:1011500007960E94F01BD0CF2C960FB6F894DEBFF6
:101160000FBECDBFDF91CF911F910F91FF90EF90F8
:10117000DF90CF9008954F925F926F927F928F92FF
:101180009F92AF92BF92CF92DF92EF92FF920F9316
:101190001F93CF93DF931F921F92CDB7DEB75C01F1
:1011A00080E796E00E94C71881113AC036C08C01D2
:1011B000CE0101960E94C718882379F1C8010196D3
:1011C0002981F70121937F01422F4F7750E0449D01
:1011D000B001459D700D549D700D1124C60ED71E93
:1011E00047E0440C551C661C771C4A95D1F727FF35
:1011F00027C086309105D9F68FEF9FEF90930A07AD
:101200008093090780916E0690916F06DC01ED9145
:10121000FC910488F589E02D199580E090E08EC05E
:1012200090907006198281E7E82E86E0F82E01E0A2
:1012300010E0C12CD12C412C512C32014394B8CF59
:10124000F92DF07FFA832FEF280FD5012C93F0337F
:1012500019F58059994F0E94C7188823F1F2C801E7
:101260008E58994F0E94C7188823B9F2C801039677
:10127000D501EC91F0E0E259F94FE380F12CFE2C1E
:10128000EE242481E20EF11C2091700621FF08C09B
:10129000B2E0EB0EF11C04C020E0E12CF12C01C007
:1012A00022E0422E512CFC01E259F94F4F018C01F2
:1012B000481A590A2EEF622E77247A94C801840DB9
:1012C000951D8C159D0578F5CE0101960E94C718D5
:1012D000882309F4A2CF809107079091080700970F
:1012E000B1F0FA81F03399F4D5012C91F301E21BAE
:1012F000F1099F01200F311FE216F30640F4DC01D3
:10130000ED91FC910190F081E02D698119950038F3
:10131000110518F48981F40182830F5F1F4FFFEFDD
:101320008F1A9F0ACBCF8091070790910807892BCE
:1013300021F40138110508F070CFC8010F900F900B
:10134000DF91CF911F910F91FF90EF90DF90CF90A1
:10135000BF90AF909F908F907F906F905F904F90D5
:10136000089520E5FC01208321E021830895FC01FC
:1013700082819381A481B5818093FF0690930007B9
:10138000A0930107B09302078BE597E090930607BF
:101390008093050710920407109203078EE696E0EB
:1013A0000895CF92DF92EF92FF920F931F93CF9306
:1013B000DF93CDB7DEB7C654D1090FB6F894DEBFC0
:1013C0000FBECDBFFC0182819381A481B58123969C
:1013D0008CAF9DAFAEAFBFAF239721E023962FAF69
:1013E000239723964CAD5DAD6EAD7FAD23974BAB90
:1013F0005CAB6DAB7EAB89AF9AAFABAFBCAF8DA72B
:101400009EA7AFA7B8AB28AB4DA55EA56FA578A9E1
:101410004FA358A769A77AA72EAB4BA95CA96DA9C2
:101420007EA949A35AA36BA37CA38B8F9C8FAD8FFE
:10143000BE8F4BE653E05C8B4B8B3FEF3D8B3E8B7F
:101440003F8B188E5E874D872AA7CFA0D8A4E9A42A
:10145000FAA4CF86D88AE98AFA8A2CA309A11AA10C
:101460002BA13CA109871A872B873C875A83498384
:101470008B839C83AD83BE8380916A0581110DC1EE
:1014800060E372E080E090E00E9425201FB7F894AE
:1014900080916905811127C0E7EDF2E08491E1E9CF
:1014A000F2E09491E82FF0E0EE0FFF1FEE5BFD4FAE
:1014B000A591B491EC91E92321F461E085E30E94C8
:1014C000BA1F61E085E30E94E91F8CB580618CBD85
:1014D0008CB580648CBD61E084E30E94E91F61E00B
:1014E00083E30E94E91F809169058F5F80936905FE
:1014F0001FBFECEAF2E0E491F0E0EE0FFF1FE85DC1
:10150000FD4F859194919093660580936505E6E67D
:10151000F2E0E491E093640561E08AE00E94E91F53
:101520000E947910CE018D5B9F4F0E94B1092596D4
:101530008EAD9FAD25970E949D0384E38093670540
:101540000E94CA1E882319F188E00E94A1100E94FF
:101550008E108830E1F480E10E94A1100E948E106C
:101560008031A9F480E00E94A1100E948E108111A8
:101570000EC041E050E0BE016D5B7F4F8FE190E017
:101580000E94801D24968FAD24978330A1F187E3BC
:10159000809367050E94CA1E882309F440C088E032
:1015A0000E94A1100E948E108830C9F580E10E942F
:1015B000A1100E948E10182F803189F580E00E94C2
:1015C000A1100E948E1081112AC041E050E0BE019E
:1015D0006D5B7F4F89E390E00E94801D24968FAD64
:1015E00024978430E1F4109368050E949C0381E005
:1015F00080936A0552C080E48093680510E042E061
:101600006EE170E0812F0E94471342E06FE170E0CD
:10161000812F0E9447131F5F183089F7E6CF83E3BD
:10162000809367050E94CA1E882391F180E10E9481
:10163000A1100E948E10803159F582E10E94A11004
:101640000E948E10823121F580E00E94A1100E943C
:101650008E1081111DC084E08093680515E52796E2
:101660001FAF279741E050E0BE016A5B7F4F8BE1DF
:1016700090E00E940D1E26961FAF269741E050E095
:10168000BE016B5B7F4F8AE190E00E940D1EADCFE3
:10169000109267050E949C033EC0CE018D5B9F4F58
:1016A0000E94B10925968EAD9FAD25970E949D039E
:1016B00046E050E062E072E089E090E00E940D1E9A
:1016C00044E050E0BE016D5F7F4F8FE090E00E94EC
:1016D0000D1E44E050E0BE01615F7F4F81E090E06D
:1016E0000E940D1E44E050E0BE016B5E7F4F85E01E
:1016F00090E00E940D1E0E949C0381E08C878985EA
:101700009A85AB85BC8580935E0690935F06A09317
:101710006006B0936106CA5BDF4F0FB6F894DEBF78
:101720000FBECDBFDF91CF911F910F91FF90EF9032
:10173000DF90CF900895FC018BE693E09183808346
:1017400012821382148215821386128648EE53E0A9
:1017500060E070E044875587668777872CE632E043
:1017600031872087978B868B108E118E128E138E69
:1017700088E080A308954F925F926F927F928F923C
:101780009F92AF92BF92CF92DF92EF92FF920F9310
:101790001F93CF93DF93CDB7DEB763970FB6F8945F
:1017A000DEBF0FBECDBF7C015B013A01FB0120E033
:1017B00080E090E06AE03191332309F140ED430F7E
:1017C0004A3080F4689FA001699F500D1124CA011E
:1017D000C097830F911D37FD9A958F3F910559F35F
:1017E00050F313C03E3289F4233079F0D301A20FB5
:1017F000B11D12968C932F5F80E090E0DCCF2330F8
:1018000021F4F301858381E021C0F70142815381F6
:10181000648175818091580690915906A0915A066D
:10182000B0915B06481759076A077B0709F491C115
:101830000E945F208701085F1F4F6F7077277C5FD2
:10184000C8010E944014813019F080E090E0D9C1B5
:101850008BE693E09A838983F70182819381A48147
:10186000B5818B839C83AD83BE8345E350E0BE018D
:101870006F5F7F4FC8010E94FD12892B19F4C12CA4
:10188000D12C62C10E945F20F7017783668342E01A
:1018900050E0B7016A5F7F4FC8010E94871281E064
:1018A00090E09A83898342E050E0BE016F5F7F4FF2
:1018B000C8010E94871280E091E09A83898342E008
:1018C00050E0BE016F5F7F4FC8010E9487121A82ED
:1018D000198242E050E0BE016F5F7F4FC8010E9455
:1018E000871242E050E0BE016F5F7F4FC8010E9447
:1018F000871242E050E0BE016F5F7F4FC8010E9437
:1019000087124501F5018081882301F164015601A8
:10191000F60181912F01882321F08E3211F06201AE
:10192000F6CFC818D9081C141D0474F4CD8641E004
:1019300050E0BE01635F7F4FC8010E948712A6017D
:10194000B401C8010E9487124201DCCF1D8641E02C
:1019500050E0BE01635F7F4FC8010E948712C12C17
:10196000DD24D394DA82C98242E050E0BE016F5F89
:101970007F4FC8010E948712DA82C98242E050E09C
:10198000BE016F5F7F4FC8010E948712C8010E948D
:101990002916892B09F473CFE3E0AE2EB12C230175
:1019A00022E0420E511C0E945F203B014C01C80105
:1019B0000E94AE1518161906A4F00E945F20DC01E3
:1019C000CB0186199709A809B90989389341A1055E
:1019D000B105D0F462E370E080E090E00E94252041
:1019E000E6CFF7014281538164817581808D918DAD
:1019F000A28DB38D481759076A077B0749F4848D78
:101A0000958DC59729F409C0CC24CA94DC2C93C0C9
:101A10005EEFC52EDD24DA948EC0F70181A192A17C
:101A20000C970CF4E9C04CE050E0BE016F5F7F4FB3
:101A3000C8010E9466158B819C8198278927982769
:101A40009A8B898BF7014681578129813A81421708
:101A5000530709F0C2C097FFC0C08F709270892BE6
:101A600009F0C0C06F8078847624672476246114DE
:101A7000710409F4BCC0C12CD12C8D819E819827A2
:101A800089279827C816D90608F466C0812C912C9E
:101A900041E050E0BE016D5E7F4FC8010E946615B7
:101AA0004B89842F807C09F076C0442331F050E0CC
:101AB00060E070E0C8010E9466158B898111E8CF53
:101AC00042E050E0BE01615F7F4FC8010E94661591
:101AD00042E050E0BE01635F7F4FC8010E9466157F
:101AE00044E050E060E070E0C8010E94661542E00A
:101AF00050E0BE016F5E7F4FC8010E9466158F8562
:101B0000988949895A898115914009F04DC0CD8441
:101B1000DE84DC24CD24DC2481E0C816D10409F065
:101B200043C04115544009F053C044E050E0B201B5
:101B3000C8010E94661521E0A21AB10829F0FFEF42
:101B4000CF16DF0609F42FCFC8010E94E711C601A6
:101B500058C08EEF9FEF55C041E050E0BE01635F7B
:101B60007F4FC8010E9466154D85442331F050E037
:101B700060E070E0C8010E9466158D858111ECCF90
:101B800044E050E060E070E0C8010E946615FFEF9D
:101B9000CF1ADF0A72CF41E050E060E070E0C80188
:101BA0000E9466151B8A89CF54274527542760E079
:101BB00070E0C8010E946615FFEF8F1A9F0A681433
:101BC000790409F065CF96EFC92EDD24DA94B3CFFE
:101BD00077EFC72EDD24DA94AECF4CEFC42EDD2490
:101BE000DA94A9CF3BEFC32EDD24DA94A4CF2AEFF9
:101BF000C22EDD24DA949FCF8DEFC82EDD24DA9437
:101C00009ACF63960FB6F894DEBF0FBECDBFDF91BB
:101C1000CF911F910F91FF90EF90DF90CF90BF90E9
:101C2000AF909F908F907F906F905F904F900895AE
:101C30008F929F92AF92BF92CF92DF92EF92FF92DC
:101C40000F931F93CF93DF93CDB7DEB760970FB697
:101C5000F894DEBF0FBECDBF7C019091670599233C
:101C600009F4B8C0933311F008E001C004E05B014F
:101C7000CE0101960E94B10989819A810E949D033B
:101C80009E012F5F3F4F6901490110E063E070E062
:101C9000812F0E946513F40181934F018823C9F0BD
:101CA0001F5F0113F3CF10E0F60181916F018D31B9
:101CB00059F0883149F08A51823030F01F5F0113AA
:101CC000F3CF0E949C0386C060E170E0812F0E94E8
:101CD000701DC12ED12C83EE93E00197F1F742E8FD
:101CE00060E070E0812F0E9447134FEF62E070E0E8
:101CF000812F0E944713A114B10411F0B50113C044
:101D0000809100029091010201968115F0EC9F07ED
:101D100010F480E090EC90930102809300026091B7
:101D2000000270910102812F0E94E71286E0E2E634
:101D3000F2E0DE01199601900D928A95E1F7F70124
:101D400083818F778C8784818D8785818E87A7019A
:101D50004E5F5F4F24E030E06CE070E0812F0E9426
:101D6000F511B501812F0E94D11226E030E0AE01BD
:101D7000475F5F4F66E070E0812F0E94F51161E0E0
:101D800070E0812F0E94701D27E02C9DC0012D9DC9
:101D9000900D11249C01245E3A4F7901F9011182C2
:101DA000108222E030E0AE01415F5F4F68E270E0F8
:101DB000812F0E948A038F859889982789279827E1
:101DC000F701938382831682158214820E949C03FA
:101DD000812F01C088E060960FB6F894DEBF0FBE79
:101DE000CDBFDF91CF911F910F91FF90EF90DF90CA
:101DF000CF90BF90AF909F908F90089520916705EE
:101E000090E0233311F40C9601C04896982F990F57
:101E1000990F990F80E00895CF93DF931F92CDB76C
:101E2000DEB76983DC01ED91FC910280F381E02D46
:101E300041E050E0BE016F5F7F4F19950F90DF9139
:101E4000CF910895FC01818D928D0895FC019485B8
:101E5000FB018485981303C081E0983008F080E08E
:101E60000895FF920F931F93CF93DF931F921F92BA
:101E7000CDB7DEB7F82E22E030E0AE014F5F5F4F06
:101E800066E270E00E948A0309811A811027012707
:101E9000102722E030E0AE014F5F5F4F66E270E056
:101EA0008F2D0E948A0389819A81982789279827F4
:101EB0000817190711F08C01ECCFC8010F900F9093
:101EC000DF91CF911F910F91FF9008950F931F9372
:101ED000CF93DF931F921F92CDB7DEB7FC0124850D
:101EE0002830E0F48C01CE0101960E94B10989816D
:101EF0009A810E949D0322E030E0AE014F5F5F4F68
:101F000060E170E0F80184850E948A0309811A81EA
:101F10001027012710270E949C0302C000E010E058
:101F2000C8010F900F90DF91CF911F910F910895ED
:101F30000F931F93CF93DF931F921F92CDB7DEB7FE
:101F4000FC0124852830E0F48C01CE0101960E942A
:101F5000B10989819A810E949D0322E030E0AE019F
:101F60004F5F5F4F64E070E0F80184850E948A0350
:101F700009811A811027012710270E949C0302C0A3
:101F800000E010E0C8010F900F90DF91CF911F91FA
:101F90000F910895EF92FF920F931F93CF93DF93CA
:101FA00000D01F92CDB7DEB78C017B01FB01848589
:101FB000883050F08BE693E0F801918380831282A1
:101FC00013821482158222C0CE0101960E94B109AB
:101FD00089819A810E949D0324E030E0AE014F5F29
:101FE0005F4F6CE070E0F70184850E948A030E94D5
:101FF0009C038BE693E0F8019183808389819A8129
:10200000AB81BC8182839383A483B583C8010F9085
:102010000F900F900F90DF91CF911F910F91FF9034
:10202000EF900895AF92BF92CF92DF92EF92FF921E
:102030000F931F93CF93DF93CDB7DEB7AF970FB654
:10204000F894DEBF0FBECDBF8C015B016A01CE01EB
:1020500001960E949B0B8BE6E82E83E0F82EFBA6F0
:10206000EAA61CA61DA61EA61FA680915E0690913C
:102070005F06A0916006B09161068EA39FA3A8A7FA
:10208000B9A78B839C83AD83BE8318861F82AE0164
:10209000465D5F4FB501CE0101960E94BB0B8130BA
:1020A0009105B1F4D801ED91FC910488F589E02DFA
:1020B000FDA2ECA28CA59DA5AEA5BFA58EA39FA356
:1020C000A8A7B9A7A601BE016C5D7F4FC8011995ED
:1020D000AF960FB6F894DEBF0FBECDBFDF91CF91A4
:1020E0001F910F91FF90EF90DF90CF90BF90AF9036
:1020F0000895E0916505F0916605908180916405F1
:10210000892B80830895E0916505F09166059081A3
:10211000809164058095892380830895CF93DF9310
:102120001F92CDB7DEB741E050E0BE016F5F7F4F39
:1021300080E090E00E94801D89810F90DF91CF9117
:102140000895CF93DF931F92CDB7DEB7898341E027
:1021500050E0BE016F5F7F4F80E090E00E940D1E57
:102160000F90DF91CF9108958EBD00000DB407FE52
:10217000FDCF8EB50895EF92FF921F93CF93DF931B
:102180001F921F92CDB7DEB7182F22E030E0AE01CC
:102190004F5F5F4F60E270E00E948A03E980FA803F
:1021A000FE24EF24FE2422E030E0AE014F5F5F4FBB
:1021B00060E270E0812F0E948A0389819A819827CA
:1021C00089279827E816F90611F07C01ECCF87E003
:1021D000189FF0011124E45EFA4FF582E482C701F2
:1021E0000F900F90DF91CF911F91FF90EF90089586
:1021F0001F93CF93DF931F921F92CDB7DEB7182F97
:10220000CE0101960E94B10989819A810E949D03A5
:10221000812F0E94FE0E27E0129FF0011124E45E40
:10222000FA4F22813381377041E050E0BE016F5F89
:102230007F4F820F931F0E94801D0E949C03898103
:102240000F900F90DF91CF911F910895FC01808D29
:10225000883040F4218D328D232B21F00E94F8101C
:1022600090E008958FEF9FEF0895EF92FF920F9304
:102270001F93CF93DF931F921F92CDB7DEB7482FE6
:1022800087E0489F90011124F901E45EFA4F7F0135
:10229000808191810097B9F4142FCE0101960E949C
:1022A000B10989819A810E949D03812F0E94310F7B
:1022B0008C010E949C03F70186819801281B31093B
:1022C000C901318320830F900F90DF91CF911F912F
:1022D0000F91FF90EF9008951F93CF93DF931F927C
:1022E0001F92CDB7DEB7182FCE0101960E94B1091B
:1022F00089819A810E949D0368E070E0812F0E948D
:10230000701D0E949C030F900F90DF91CF911F9141
:1023100008951F93CF93DF931F921F92CDB7DEB71F
:10232000182FCE0101960E94B10989819A810E94DD
:102330009D0360E170E0812F0E94701D0E949C034C
:102340000F900F90DF91CF911F910895CF92DF9260
:10235000EF92FF920F931F93CF93DF9300D000D0A3
:10236000CDB7DEB78C016B017A01FC01808D88301E
:1023700010F40E9489118BE693E09A838983F60119
:1023800082819381A481B5818B839C83AD83BE833D
:10239000B701CE0101960E94180EF801808F883097
:1023A00030F4F586E486128E118E81E001C080E063
:1023B00026960FB6F894DEBF0FBECDBFDF91CF914A
:1023C0001F910F91FF90EF90DF90CF900895CF93E2
:1023D000DF93FC01808D883028F4EF010E94891181
:1023E00088E0888FDF91CF910895DA019091680598
:1023F000E92FF0E0FE2FEE27E60FF71F90E0982F71
:102400008827A901BD018E0F9F1F0C940D1E7F927E
:102410008F929F92AF92BF92CF92DF92EF92FF92F4
:102420000F931F93CF93DF931F921F92CDB7DEB709
:10243000782E8B014A01590122E030E0AE014F5F56
:102440005F4F64E270E00E948A03E980FA80FE2414
:10245000EF24FE24E00EF11E9701377040916705CE
:10246000072D10E0C801433311F4089601C04096CF
:10247000982F8827990F990F990F820F931F473331
:1024800019F4A501B40120C0A9014A0D5B1D41301A
:102490005840B8F360E078E06B01C21AD30AA60195
:1024A000B4010E940D1EA5014C195D09B4016C0D0B
:1024B0007D1D80916705833339F5085F1F4F902F8D
:1024C000990F990F990F80E00E940D1EEA0CFB1CDA
:1024D000F982EA8222E030E0AE014F5F5F4F64E2B2
:1024E00070E0872D0E94F5110F900F90DF91CF9132
:1024F0001F910F91FF90EF90DF90CF90BF90AF9022
:102500009F908F907F900895005F1F4FD8CF7F924C
:102510008F929F92AF92BF92CF92DF92EF92FF92F3
:102520000F931F93CF93DF931F921F92CDB7DEB708
:102530007C014B01742EC52EFC01A688B788D08C77
:10254000CE0101960E94B10989819A810E949D0362
:102550008D2D0E94BB10072D1C2D8017910708F4AC
:102560008C019801A401B5018D2D0E9407120E94D3
:102570009C03F70186899789800F911F978B868B23
:10258000C8010F900F90DF91CF911F910F91FF9095
:10259000EF90DF90CF90BF90AF909F908F907F9003
:1025A0000895CF93DF931F921F92CDB7DEB7798343
:1025B0006A8322E030E0AE014F5F5F4F60E170E080
:1025C0000E94F5110F900F90DF91CF910895CF9356
:1025D000DF931F921F92CDB7DEB779836A8322E023
:1025E00030E0AE014F5F5F4F64E070E00E94F51194
:1025F0000F900F90DF91CF910895DF92EF92FF92AD
:102600000F931F93CF93DF931F921F92CDB7DEB727
:10261000FB01DC0157961C921E92569722812111D4
:1026200009C02381211106C02481211103C0258105
:10263000222309F141155105F1F07A018F01FC01C6
:10264000D08CCE0101960E94B10989819A810E94A5
:102650009D03A8014E5F5F4F24E030E06CE070E026
:102660008D2D0E94F511B7018D2D0E94D1120E946F
:102670009C0381E001C080E090E00F900F90DF911B
:10268000CF911F910F91FF90EF90DF900895CF931E
:10269000DF931F92CDB7DEB790916805292F30E008
:1026A000322F2227260F371F90E0982F8827498343
:1026B00041E050E0BE016F5F7F4F820F931F0E9489
:1026C0000D1E0F90DF91CF910895CF93DF931F924E
:1026D000CDB7DEB790916805292F30E0322F222741
:1026E000260F371F90E0982F882741E050E0BE0169
:1026F0006F5F7F4F820F931F0E94801D89810F9013
:10270000DF91CF9108958F929F92BF92CF92DF92E7
:10271000EF92FF920F931F93CF93DF93CDB7DEB766
:102720002A970FB6F894DEBF0FBECDBF9091670514
:10273000992309F492C0933319F028E0B22E02C015
:1027400094E0B92E6B01082FCE0101960E94B109C9
:1027500089819A810E949D039E012F5F3F4F7901DD
:10276000490110E063E070E0812F0E946513F401DD
:1027700081934F018823C9F01F5FB112F3CF10E09E
:10278000F70191917F019D3159F0983149F09A51AB
:10279000923030F01F5FB112F3CF0E949C035DC0F6
:1027A00060E170E0812F0E94701DE12EF12C83EE1C
:1027B00093E00197F1F7402F60E070E0812F0E94D5
:1027C00047134FEF62E070E0812F0E944713C1145E
:1027D000D10411F0B60113C0809100029091010262
:1027E00001968115F0EC9F0710F480E090EC909337
:1027F0000102809300026091000270910102812F1A
:102800000E94E71261E070E0812F0E94701D27E0B6
:102810002E9DC0012F9D900D11249C01245E3A4FE6
:102820007901F9011182108222E030E0AE01475FA8
:102830005F4F68E270E0812F0E948A0389859A8544
:10284000982789279827F701938382831682158218
:1028500014820E949C03812F01C088E02A960FB643
:10286000F894DEBF0FBECDBFDF91CF911F910F91C6
:10287000FF90EF90DF90CF90BF909F908F90089542
:102880000F931F93CF93DF93EC018B01888D8830DA
:1028900010F40E948911B80182E00E948313888F8E
:1028A000883030F41D870C871A8E198E81E001C0A4
:1028B00080E0DF91CF911F910F910895FF920F93C8
:1028C0001F93CF93DF931F921F92CDB7DEB7F82EE1
:1028D000CE0101960E94B10989819A810E949D03CF
:1028E0008F2D0E94BB108C0163E070E08F2D0E9441
:1028F0006513F82E0E949C0387E1F81631F08CE1F5
:10290000F81619F080E090E001C0C8010F900F9018
:10291000DF91CF911F910F91FF9008954F925F9299
:102920007F928F929F92AF92BF92CF92DF92EF925F
:10293000FF920F931F93CF93DF931F921F92CDB7F8
:10294000DEB7782E6B014A01A82EB12C27E0829FBA
:10295000C0011124AC01445E5A4F7A01FA01008192
:102960001181CE0101960E94B10989819A810E944C
:102970009D030815190554F4872D0E94310FF701A6
:1029800026818C01021B1109118300830115110599
:10299000A9F463E070E0872D0E946513843109F487
:1029A00080C0882309F47DC001E010E08C3111F46F
:1029B00000E010E011950195110973C08016910691
:1029C0000CF4840187E08A9DF0018B9DF00D1124A9
:1029D000E45EFA4FE280F380C114D10459F127017B
:1029E000F7E05F22872D0E94FE0E840D951D209139
:1029F0006705273319F4A801B6011AC09801240D00
:102A0000351D21303840B8F320E038E04901841802
:102A10009508A401B6010E94801D2601480C591C8E
:102A20006801C818D908872D0E94FE0EA601B201C0
:102A30000E94801DE00EF11E87E08A9DF0018B9DB3
:102A4000F00D1124E45EFA4FF382E28280819181DD
:102A5000801B910B918380832681A801420F511D19
:102A60004A3F510510F4892BD9F487E08A9DF00183
:102A70008B9DF00D1124E45EFA4F1682F982EA82F2
:102A800022E030E0AE014F5F5F4F68E270E0872DDB
:102A90000E94F51160E470E0872D0E94701D01C056
:102AA00046830E949C03C8010F900F90DF91CF9145
:102AB0001F910F91FF90EF90DF90CF90BF90AF905C
:102AC0009F908F907F905F904F900895CF93DF936A
:102AD000FC01218D328D2115310519F48FEF9FEF07
:102AE00011C0EC014217530708F0A901888D0E941C
:102AF0008E141816190694F7298D3A8D281B390B58
:102B00003A8F298FDF91CF9108950F931F93CF9321
:102B1000DF931F92CDB7DEB7FC01218D328D232BC1
:102B200061F08C0141E050E0BE016F5F7F4F808D0E
:102B30000E948E14181619061CF08FEF9FEF08C024
:102B4000F801818D928D0197928F818F898190E01C
:102B50000F90DF91CF911F910F9108950F931F93C5
:102B6000CF93DF93CDB7DEB728970FB6F894DEBFCB
:102B70000FBECDBF8C01D80159964D915C915A97EB
:102B80004115510551F0ED91FC91048CF58DE02D2E
:102B900060E070E0C8011995EECFF801808D0E94C9
:102BA0003511892B51F148E050E0BE016F5F7F4F36
:102BB000D80158968C910E948E1418161906FCF4B0
:102BC000D801509684E0FE01319601900D928A95CD
:102BD000E1F78D8190E0982F88272E81820F911D3B
:102BE000F801958B848B8F8190E0982F882728851A
:102BF000820F911D928F818F02C080E090E0289615
:102C00000FB6F894DEBF0FBECDBFDF91CF911F91FD
:102C10000F9108951F93CF93DF931F921F92CDB70B
:102C2000DEB7182FCE0101960E94B10989819A81E1
:102C30000E949D0363E070E0812F0E946513182FAE
:102C40000E949C03812F0F900F90DF91CF911F91D5
:102C500008951F93CF93DF931F921F92CDB7DEB7D6
:102C6000FC01108DCE0101960E94B10989819A81E3
:102C70000E949D0360E270E0812F0E94701D62E05F
:102C800070E0812F0E94651384FD1CC062E070E03B
:102C9000812F0E94651383FF0AC048E162E070E063
:102CA000812F0E9447130E949C0380E014C00E9461
:102CB0009C03CE0101960E94B10989819A810E94EC
:102CC0009D03DDCF40E162E070E0812F0E94471359
:102CD0000E949C0381E090E00F900F90DF91CF91D4
:102CE0001F9108950E94972AFC0124813581FB01E0
:102CF000448155812417350721F5FC01808191819C
:102D0000FB0160817181009719F061157105A1F4D3
:102D10006115710549F0232BB1F0FB01808190E032
:102D20009195819591090AC0009769F0232B59F07C
:102D3000FC01808190E002C00E94BE2A21E0892B24
:102D400019F020E001C021E0822F0895682F8AE465
:102D500096E00C94451ACF93DF93EC01FA0132967A
:102D6000E60FF71FDC01AD014C1B5D0BCF01861B8D
:102D7000970B2D91222311F02193F5CF9C01241B59
:102D8000350B620F731FFB013297508331964083DE
:102D9000DF91CF910895EF92FF920F931F93CF93FE
:102DA000DF9300D01F92CDB7DEB79A01E0E0922FFB
:102DB0009F77220F232F221F330B319521153105C9
:102DC00009F0906801E00E0FA1E0B0E0AC0FBD1F6C
:102DD000AE0FB11DFD0190832115310511F0E02FDB
:102DE000E6CF10E09B01201B310B2C5F3F4FF90118
:102DF0008083DE011196FB01E01BF10B3596CB01C0
:102E00000596E817F90719F06D916193FACF809153
:102E10006E0690916F064F5F5F4F040F151FDC0128
:102E2000ED91FC910280F381E02DA801B901199583
:102E30007C010E945F206093F2067093F3068093FA
:102E4000F4069093F50681E00E151F0509F080E069
:102E50000F900F900F900F90DF91CF911F910F91D6
:102E6000FF90EF900895CF9380916E0690916F063A
:102E7000009771F1DC01ED91FC910688F789E02D56
:102E80001995C1E0811125C0C0E08091090790919A
:102E90000A07892BF1F48DEF9FEF90930A07809337
:102EA000090780916E0690916F06DC01ED91FC910F
:102EB0000680F781E02D199580916E0690916F063E
:102EC000DC01ED91FC910488F589E02D199501C094
:102ED000C0E08C2FCF9108950F931F93CF93DF9372
:102EE00041155105E1F061157105C9F0FC01C4817E
:102EF000D581209719F4FB01108211C0415051096E
:102F00004C175D0708F4EA018B01FC0160817181B7
:102F1000AE01C8010E94CE2AC00FD11F1882DF91D6
:102F2000CF911F910F910895CF93DF93EB01FC0197
:102F3000448155814F5F5F4F66E977E00E946C17CF
:102F40004C815D814F5F5F4F62E377E0CE010E946D
:102F50006C17C2E3D7E009900020E9F72197C2532C
:102F6000D7400E943317882371F1E6E9F7E001901A
:102F70000020E9F7CE018E0F9F1F805997408138BE
:102F8000910508F545E050E060E776E086E997E0D6
:102F90000E94AB16DC01A059B94FE2E3F7E09F01B4
:102FA000225337402C173D0718F421912D93F7CF6A
:102FB0002597AE01480F591F60E776E080E3DF9167
:102FC000CF910C94CB16DF91CF910895FC018091A5
:102FD000660690916706892B21F421E0309749F429
:102FE00013C08091620690916306309731F421E01E
:102FF000FC018081882341F006C0BF010E94BE2AE7
:1030000021E0892B09F020E0822F08950F931F9370
:10301000CF93DF93CDB7DEB762970FB6F894DEBFDC
:103020000FBECDBF8C01CB01F8011182108213823B
:103030001282158214824AE0BE016F5F7F4F0E94A8
:10304000FB27BE016F5F7F4FC8010E94C21B6296C3
:103050000FB6F894DEBF0FBECDBFDF91CF911F91A9
:103060000F91089530914906313208F04BC080919C
:1030700025068111FCCF9091480622E02093250679
:1030800021E0209324062FEF20932306109222069E
:1030900030932106E8E2F6E0A1E0B6E020E0321746
:1030A00021F041914D932F5FFACF109200062091AD
:1030B0000006990F922B909300069091FF05913096
:1030C00061F41092FF05909100069093BB009091DF
:1030D000BC0093FDF8CF95EC01C095EE9093BC0039
:1030E000909125069230E1F3909123069F3F79F06D
:1030F00080912306803241F080912306803331F0A5
:1031000084E005C081E003C082E001C083E010924A
:10311000270610924906109226060895EDECF5E078
:1031200001900020E9F7CF01855C95408138910539
:1031300060F50E943317882341F18091F006909149
:10314000F106019611F481E090E09093F1068093EE
:10315000F0068091F0069091F106909375068093A9
:10316000760647E050E060E776E08DEC95E00E945F
:10317000AB16FC01E259F94F1282AC0144505109DF
:1031800060E776E082E80C94CB1680E00895CF9259
:10319000DF92EF92FF92CF93DF93EC010E945F20CA
:1031A0006B017C0180916E0690916F06DC01ED91C0
:1031B000FC910084F185E02D1995892B79F40E940A
:1031C0005F20DC01CB018C199D09AE09BF0988394C
:1031D0009A43A105B10530F380E00DC080916E06E1
:1031E00090916F06DC01ED91FC910284F385E02D56
:1031F0001995888381E0DF91CF91FF90EF90DF9068
:10320000CF900895CF92DF92EF92FF920F931F938A
:10321000CF93DF936C018B017A014617570720F497
:10322000812F8A01E62EF82E66ED73E0C6010E941A
:10323000FE1BC0916C06D0916D060C171D07E0F4C3
:10324000EC16FD0608F4E701E0916806F0916906C6
:10325000EC0FFD1FF0801082609168067091690686
:10326000600F711FC6010E94C21B80916806909179
:103270006906C80FD91FF882C601DF91CF911F914F
:103280000F91FF90EF90DF90CF9008950F931F93D1
:10329000CF93DF93CDB7DEB762970FB6F894DEBF5A
:1032A0000FBECDBF8C01CE0101960E94F51B65E1DA
:1032B00075E0CE010D960E94FE1BB801CE010D9661
:1032C0000E94AF1B66E773E00E94961B60E277E006
:1032D0000E94AF1BBC01CE0107960E94F51BBE01E8
:1032E0006F5F7F4FCE0107960E949417CE0107961D
:1032F0000E94F01BCE010D960E94F01BCE0101969C
:103300000E94F01B62960FB6F894DEBF0FBECDBFD1
:10331000DF91CF911F910F9108950895CF92DF9281
:10332000EF92FF920F931F93CF93DF936C017A017B
:103330008B01C0E0D0E0CE15DF0581F0D8016D91A2
:103340008D01D601ED91FC910190F081E02DC60137
:103350001995892B11F02196EECF7E01C701DF91DF
:10336000CF911F910F91FF90EF90DF90CF90089534
:1033700085ED8093BC008091BC0084FDFCCF109251
:103380002506089540912408262F30E0240F311D92
:1033900021323105DCF4209125062430C9F4FC01EA
:1033A00080E090E0861758F4309124082191DC01E8
:1033B000AC5FB74FA30FB11D2C930196F3CF809153
:1033C0002408680F6093240880E0089581E0089540
:1033D00082E00895089508950895E0917005809120
:1033E0006F05E81730F4F0E0EC51F84F808190E081
:1033F00008958FEF9FEF08959091700580916F056C
:10340000981750F4E92FF0E0EC51F84F208130E0AC
:103410009F5F9093700502C02FEF3FEFC9010895A1
:1034200080916F0590E020917005821B91090895AD
:10343000CF92DF92EF92FF920F931F93CF93DF9380
:103440007C01CB018A0120912606222389F0EB0121
:103450006B01C40ED51ECC15DD0569F06991D7014D
:10346000ED91FC910190F081E02DC7011995F3CF0A
:10347000642F0E94C219C801DF91CF911F910F9153
:10348000FF90EF90DF90CF900895CF93DF931F923E
:10349000CDB7DEB76983209126062223D1F0209193
:1034A0004906203240F021E030E0FC0133832283E2
:1034B00080E090E015C080912706E82FF0E0E85DFD
:1034C000F94F998190838F5F8093270680934906F7
:1034D00005C061E0CE0101960E94C21981E090E032
:1034E0000F90DF91CF910895FC0120812EBD9B01AB
:1034F0002150310941F051810DB407FEFDCF4EB589
:103500005EBD4193F5CF61507109FC01E60FF71FD5
:103510000DB407FEFDCF8EB5808308950F931F93E2
:10352000CF93DF93EC0188819981009729F02A815C
:103530003B812617370788F48B016F5F7F4F0E940E
:10354000B229009761F0998388831B830A832C81B9
:103550003D81232B11F4FC01108281E001C080E049
:10356000DF91CF911F910F910895EF92FF920F93EA
:103570001F93CF93DF936115710511F480E01CC098
:1035800041155105C1F07B01EC018C819D818A01BF
:10359000080F191FB801CE010E948E1A882371F3FB
:1035A000288139818C819D81B701820F931F0E94F0
:1035B000C72A1D830C8381E0DF91CF911F910F916A
:1035C000FF90EF900895CF93DF93EC01888199816C
:1035D000009711F00E942929198218821D821C82ED
:1035E0001B821A82DF91CF910895EF92FF920F9381
:1035F0001F93CF93DF93EC017B018A01BA010E94F4
:103600008E1A811104C0CE010E94E31A07C01D83E7
:103610000C83B701888199810E94C72ACE01DF916E
:10362000CF911F910F91FF90EF9008958F929F92ED
:10363000AF92BF92CF92DF92EF92FF920F931F93C0
:10364000CF93DF937C01EB016C0182E0C80ED11CAB
:103650004701E5E08E0E911C00E010E0F60141917B
:103660006F0150E060E070E02AE0CE010E94081F88
:103670005C01E881F9810190F081E02D6EE2CE01DC
:1036800019958A0D9B1D080F191F8C149D0431F785
:10369000F701458150E060E070E02AE0CE010E9431
:1036A000081F800F911FDF91CF911F910F91FF9005
:1036B000EF90DF90CF90BF90AF909F908F90089544
:1036C000EF92FF920F931F93CF93DF93CDB7DEB7A7
:1036D00028970FB6F894DEBF0FBECDBF7C01CB019B
:1036E0004AE08E010F5F1F4FB8010E94FB27F801CF
:1036F00001900020E9F73197AF01401B510BB80151
:10370000C7010E94B51A811103C0C7010E94E31AC4
:10371000C70128960FB6F894DEBF0FBECDBFDF916C
:10372000CF911F910F91FF90EF900895CF93DF936A
:10373000EC016115710561F0FB0101900020E9F7D2
:103740003197AF01461B570B0E94B51A811103C078
:10375000CE010E94E31ACE01DF91CF910895CF935D
:10376000DF93EC01FB0144815581608171810E94EE
:10377000B51A811103C0CE010E94E31ACE01DF9178
:10378000CF910895CF93DF93EC016115710559F046
:10379000FB0101900020E9F73197AF01461B570B61
:1037A0000E94F51A02C00E94E31ACE01DF91CF9168
:1037B0000895CF93DF93EC01FB018617970761F023
:1037C000608171816115710529F0448155810E94E4
:1037D000F51A02C00E94E31ACE01DF91CF9108953D
:1037E000FC01808191810C942929FC0111821082B5
:1037F00013821282158214820C94D91BFC0111824F
:10380000108213821282158214826115710551F0A3
:10381000FB0101900020E9F73197AF01461B570BE0
:103820000C94F51A08951F920F920FB60F9211245F
:103830000BB60F922F933F934F935F936F937F93AA
:103840008F939F93AF93BF93EF93FF93E091710595
:10385000F09172051995FF91EF91BF91AF919F91F2
:103860008F917F916F915F914F913F912F910F9029
:103870000BBE0F900FBE0F901F9018951F920F92C6
:103880000FB60F9211240BB60F922F933F934F93C5
:103890005F936F937F938F939F93AF93BF93EF93B8
:1038A000FF938091B900887F803609F49CC068F549
:1038B000883209F45BC090F4803109F454C038F4C4
:1038C000882309F4F6C0883009F44DC0F6C0883169
:1038D00009F44CC0803209F45DC0EFC0803409F4B3
:1038E00068C048F4803309F455C0883309F0E5C056
:1038F00080932306D8C0803509F44FC0883509F479
:103900005DC0883409F0D9C0D6C0883909F4C7C071
:10391000A8F4883709F467C038F4883609F463C01E
:10392000803709F460C0C9C0883809F4B8C080394C
:1039300009F45FC0803809F0C0C05BC0803B09F467
:1039400086C038F4803A09F466C0883A09F47FC02A
:10395000B4C0803C09F4A7C0883C09F4A4C0883BEB
:1039600009F48AC0AAC08091000610C09091220676
:1039700080912106981770F5E091220681E08E0F64
:1039800080932206F0E0EF5FF94F80818093BB00C7
:1039900085EC86C0809323068EC0E091220681E0EC
:1039A0008E0F809322068091BB00F0E0EF5FF94F0D
:1039B000808390912206809121066EC0E0912206BC
:1039C00081E08E0F809322068091BB00F0E0EF5FD4
:1039D000F94F80838091240681116DC081E080932E
:1039E000FF0584EA61C083E08093250610924608B3
:1039F000CFCF80914608803208F051C0E091460850
:103A000081E08E0F809346088091BB00F0E0EA5D74
:103A1000F74F8083BDCF85EC8093BC0010922506C4
:103A200080914608803230F4E0914608F0E0EA5D8B
:103A3000F74F10826091460870E0E0916B05F091BD
:103A40006C0586E298E019951092460836C084E02D
:103A5000809325061092250810922408E0916D05A8
:103A6000F0916E05199580912408811105C081E0BF
:103A70008093240810920408E091250881E08E0FBD
:103A800080932508F0E0EC5FF74F80818093BB00C6
:103A90009091250880912408981708F479CF85E83B
:103AA0008093BC000AC085EC8093BC001092250670
:103AB00004C0109223060E94B819FF91EF91BF91A4
:103AC000AF919F918F917F916F915F914F913F91B6
:103AD0002F910F900BBE0F900FBE0F901F90189557
:103AE000CF93C82F462F61E070E00E94471361E03A
:103AF00070E08C2F0E9465138111F9CFCF9108954A
:103B0000AF92BF92CF92DF92EF92FF920F931F93EB
:103B1000CF93DF9300D01F92CDB7DEB78C016B013E
:103B20007A01809167058333F1F45B016801C40E6B
:103B3000D51E0C151D0509F460C00E9483108FE08E
:103B40000E94B410812F0E94B410802F0E94B410E4
:103B50000F5F1F4F80E00E94B410F50181935F0159
:103B60000E947910E6CF8433F1F40E948310198308
:103B70000A838F2D8F778B83EC8264E070E0CE0117
:103B800001960E94741AA70160E070E0C6010E94CD
:103B9000B72AE114F10421F0B701C6010E94741A9A
:103BA0000E9479102AC00E9483100F3F110509F06E
:103BB00020F419820A831B821DC017FD0BC01982D5
:103BC0000A8333E0169507953A95E1F7007E086081
:103BD0000B8310C0C80126E0969587952A95E1F7DA
:103BE00019830A83807E0115104C10F4806101C096
:103BF00088618B8363E070E0C2CFC7010F900F90A4
:103C00000F900F90DF91CF911F910F91FF90EF9048
:103C1000DF90CF90BF90AF900895AF92BF92CF92B8
:103C2000DF92EF92FF920F931F93CF93DF93CDB765
:103C3000DEB728970FB6F894DEBF0FBECDBF8C015C
:103C40007B016A01809167058333E1F45801A40E7A
:103C5000B51E0A151B0509F48BC00E94831080EF66
:103C60000E94B410812F0E94B410802F0E94B410C3
:103C70000F5F1F4FF70181917F010E94B4100E94D6
:103C80007910E7CF843321F50E94831019830A83CA
:103C90008D2D80688B83CC8264E070E0CE0101962C
:103CA0000E94741A87010C0D1D1DE016F10669F0C3
:103CB000F70181917F010E94B410F7CFB6016D5FCB
:103CC0007F4FCE0101960E94741A0E94791050C055
:103CD0000E9483100F3F110509F020F419820A8316
:103CE00084E01CC017FD0BC019820A8333E01695CF
:103CF00007953A95E1F7007E0C600B8310C0C80170
:103D000026E0969587952A95E1F719830A83807EA8
:103D10000115104C10F4846101C08C618B8326E086
:103D2000C216D10498F420E0822F90E08C159D05F6
:103D300028F6E4E0F0E0EC0FFD1FE80FF91FD701D3
:103D4000A80FB91F8C9180832F5FEECF63E070E0E6
:103D5000CE0101960E94741A87010C0D1D1DF701FA
:103D600081917F010E94B410E016F106C1F7ADCF3A
:103D7000C60128960FB6F894DEBF0FBECDBFDF9107
:103D8000CF911F910F91FF90EF90DF90CF90BF9058
:103D9000AF900895CF93DF9380E80E94A110C4E113
:103DA000D0E00E948E10882351F061E070E080E046
:103DB00090E00E9425202197A1F780E001C081E0DA
:103DC000DF91CF9108953FB7F89480914C0890917E
:103DD0004D08A0914E08B0914F0826B5A89B05C08C
:103DE0002F3F19F00196A11DB11D3FBFBA2FA92F7A
:103DF000982F8827820F911DA11DB11DBC01CD01F7
:103E000042E0660F771F881F991F4A95D1F70895E2
:103E10008F929F92AF92BF92EF92FF920F931F9358
:103E2000CF93DF93CDB7DEB7A1970FB6F894DEBF7F
:103E30000FBECDBF7C01FA01CB0119A2223008F4DC
:103E40002AE08E010F5D1F4F822E912CA12CB12CE8
:103E5000BF01A50194010E946728F901CA01015020
:103E600011096A3014F4605D01C0695CD8016C937B
:103E7000232B242B252B61F70115110591F0F80157
:103E800001900020E9F73197AF01401B510BD7019A
:103E9000ED91FC910280F381E02DB801C7011995E5
:103EA00002C080E090E0A1960FB6F894DEBF0FBE8E
:103EB000CDBFDF91CF911F910F91FF90EF90BF90F9
:103EC000AF909F908F90089590E0FC013197E23180
:103ED000F10508F04EC08827EE58FF4F8F4F0C9425
:103EE0008928809180008F7703C0809180008F7D2A
:103EF00080938000089580918000877FF9CF84B5FA
:103F00008F7702C084B58F7D84BD08958091B00005
:103F10008F7703C08091B0008F7D8093B0000895AB
:103F2000809190008F7707C0809190008F7D03C0B3
:103F300080919000877F8093900008958091A000E9
:103F40008F7707C08091A0008F7D03C08091A00073
:103F5000877F8093A0000895809120018F7707C00C
:103F6000809120018F7D03C080912001877F809305
:103F7000200108951F93CF93DF93282F30E0F9019C
:103F8000EE5FFC4F8491F901E45AFD4FD491F901A1
:103F9000EE55FD4FC491CC23C1F0162F81110E9424
:103FA000641FEC2FF0E0EE0FFF1FE85DFD4FA591C1
:103FB000B4919FB7F894111104C08C91D095D82377
:103FC00002C0EC91DE2BDC939FBFDF91CF911F915C
:103FD0000895CF93DF9390E0FC01E45AFD4F2491C4
:103FE000FC01EE55FD4F8491882361F190E0880F2C
:103FF000991FFC01EE5BFD4FC591D491FC01E85D7A
:10400000FD4FA591B491611109C09FB7F8948881C3
:10401000209582238883EC912E230BC0623061F4BB
:104020009FB7F8948881322F309583238883EC9151
:104030002E2B2C939FBF06C08FB7F894E8812E2BB0
:1040400028838FBFDF91CF9108958F929F92AF9277
:10405000BF92CF92DF92EF92FF926B017C010E94A0
:10406000E31E4B015C01C114D104E104F104F1F041
:104070000E94E31EDC01CB0188199909AA09BB093A
:10408000883E9340A105B10570F321E0C21AD10822
:10409000E108F10888EE880E83E0981EA11CB11C8F
:1040A000C114D104E104F10419F7DDCFFF90EF90C2
:1040B000DF90CF90BF90AF909F908F9008952FB7D3
:1040C000F894609148087091490880914A0890914D
:1040D0004B082FBF08951F920F920FB60F92112415
:1040E0002F933F938F939F93AF93BF9380914808F3
:1040F00090914908A0914A08B0914B083091470827
:1041000023E0230F2D3720F40196A11DB11D05C01A
:1041100026E8230F0296A11DB11D20934708809326
:10412000480890934908A0934A08B0934B0880919F
:104130004C0890914D08A0914E08B0914F080196FF
:10414000A11DB11D80934C0890934D08A0934E087B
:10415000B0934F08BF91AF919F918F913F912F9155
:104160000F900FBE0F901F90189582E696E00E9468
:10417000F01B88E696E00E94F01B80E297E00C942A
:10418000F01BCF93DF93CDB7DEB7EE970FB6F89461
:10419000DEBF0FBECDBF789484B5826084BD84B588
:1041A000816084BD85B5826085BD85B5816085BD32
:1041B00080916E00816080936E00109281008091EA
:1041C0008100826080938100809181008160809372
:1041D0008100809180008160809380008091B10097
:1041E00084608093B1008091B00081608093B000C2
:1041F0008091910082608093910080919100816014
:1042000080939100809190008160809390008091D4
:10421000A10082608093A1008091A10081608093C1
:10422000A1008091A00081608093A0008091210175
:10423000826080932101809121018160809321011E
:104240008091200181608093200180917A008460B8
:1042500080937A0080917A00826080937A008091C6
:104260007A00816080937A0080917A0080688093E0
:104270007A001092C1001092700510926F05109292
:104280002706109249061092250681E080932406A5
:104290001092FF0561E084E10E94BA1F61E085E1B0
:1042A0000E94BA1F8091B9008E7F8093B9008091DF
:1042B000B9008D7F8093B90088E48093B80085E4CD
:1042C0008093BC008AEE99E190936E0580936D0512
:1042D0008BEE99E190936C0580936B0580910702BA
:1042E0001F928F93809106021F928F9380910502F7
:1042F0001F928F93809104021F928F9380910302EB
:104300001F928F93809102021F928F9389E694E00F
:104310009F938F938E010F5F1F4F1F930F930E94E8
:10432000DD2A8BE6E82E83E0F82EFBA2EAA280913C
:10433000280790912907A0912A07B0912B078CA3F9
:104340009DA3AEA3BFA3CE0182960E94D109FBA27A
:10435000EAA280910D0790910E07A0910F07B091EE
:1043600010078CA39DA3AEA3BFA3CE0182960E948B
:10437000B70988E198E09093FC068093FB060FB69E
:10438000F894DEBF0FBECDBF99EBE92E92E0F92E77
:10439000D7018C91B2E0EB0EF11C62E00E94E91FA4
:1043A000E9E0EE16E3E0FE0699F760E08CE20E9499
:1043B000E91FA9E9EA2EA2E0FA2EB9EBAB2EB2E092
:1043C000BB2ED701DC90B2E0EB0EF11C61E08D2D2D
:1043D0000E94E91F61E08D2D0E94BA1FAE14BF0438
:1043E00081F70E945F20609373057093740580933A
:1043F00075059093760580E180938100109280008E
:1044000082E19AE7909387008093860084E180930D
:10441000810081E592E0909372058093710581E0BF
:1044200080936F0080E49EE7A5E0B0E080930802EF
:1044300090930902A0930A02B0930B02FE013896F2
:10444000FBAFEAAFFBE62F2EF3E03F2E0E943317BF
:10445000811105C262ECC62E7FE0D72EECEFEE2E66
:10446000FF24FA940E9433178111F9C139A628A6B6
:104470001AA61BA61CA61DA6C8010E94B109898107
:104480009A810E949D0344E050E0BE01665D7F4F2B
:104490008FE090E00E94801D0E949C036AA57BA58E
:1044A0008CA59DA51BA21AA21DA21CA21FA21EA222
:1044B0002AE0A8010E941B28B801CE0182960E9422
:1044C000C21B67E874E0C8010E94FE1BBE016E5D5E
:1044D0007F4FC8010E94AF1BBC01CE01C4960E9451
:1044E000F51BC8010E94F01BCE0182960E94F01BB2
:1044F00048AD59AD4F5F5F4F6DEC75E0CE01C4968E
:104500000E946C170E9433178111D3C0609103077A
:104510007091040780916E0690916F064091050797
:1045200050910607DC01ED91FC916115710521F0B8
:104530000088F189E02D12C00684F785E02D3A82CB
:1045400029828090FF0690900007A0900107B0900C
:1045500002078B829C82AD82BE82B80119958130A0
:10456000910509F09FC09093F1068093F00687E0D3
:10457000E2E9F2E0D80101900D928A95E1F7F801A5
:10458000A5E7B6E081918D932AAD3BADE217F30725
:10459000C9F7C0927C0610927D06D0927E064FE04D
:1045A00050E060E776E08DEC95E00E94AB16AC0140
:1045B00060E776E08DE994E00E94AB16AC0160E71D
:1045C00076E087EA94E00E94AB16AC0145505109B1
:1045D00060E776E080E10E94CB160E945F20609346
:1045E000F2067093F3068093F4069093F5066093B9
:1045F000F6067093F7068093F8069093F90680917B
:104600006E0690916F06DC01ED91FC910084F185BE
:10461000E02D1995892BD1F40E945F208090F60639
:104620009090F706A090F806B090F906DC01CB0157
:1046300088199909AA09BB0988399A43A105B105C6
:10464000F0F2F0920A07E092090720C0CE018296AC
:104650000E94BB080497D1F480917306811111C0A8
:104660000E945F206093F6067093F7068093F80629
:104670009093F9061092FA0610920A071092090711
:1046800018C090E090930A078093090780916E0606
:1046900090916F06DC01ED91FC910488F589E02D85
:1046A0001995A5C3EEEFFFEFF0930A07E093090712
:1046B0009EC363E773E0C8010E94FE1B60E277E0DF
:1046C000C8010E94AF1B6DEA74E00E94961BBC01FA
:1046D000CE018E960E94F51BC8010E94F01B4AA9CC
:1046E0005BA94F5F5F4F6DEC75E0CE018E960E9427
:1046F0006C170E948E1863E773E0C8010E94FE1BCE
:1047000060E277E0C8010E94AF1B66E074E00E949F
:10471000961BBC01CE018E960E94D91BC8010E9437
:10472000F01B4AA95BA94F5F5F4F6DEC75E0CE01AE
:104730008E960E946C170E948E1863E773E0C80182
:104740000E94FE1B60E277E0C8010E94AF1B66EE8C
:1047500073E00E94961BBC01CE018E960E94D91B6D
:10476000C8010E94F01B4AA95BA94F5F5F4F6DEC27
:1047700075E0CE018E960E946C170E948E1863E73A
:1047800073E0C8010E94FE1B60E277E0C8010E944E
:10479000AF1B62E274E00E94961BBC01CE018E96B4
:1047A0000E94D91BC8010E94F01B4AA95BA94F5F58
:1047B0005F4F6DEC75E0CE018E960E946C170E94E3
:1047C0008E18809177058823B9F064EB74E0C801F6
:1047D0000E94FE1B6EE474E0CE0182960E94FE1BD6
:1047E000B801CE0182960E944619CE0182960E949F
:1047F000F01BC8010E94F01B65EC74E0C8010E9428
:10480000FE1B6EEB74E0CE0188960E94FE1B60E2F8
:1048100077E0CE0188960E94AF1B64EC74E00E94A2
:10482000961BBC01CE0182960E94F51BB801CE01F9
:1048300082960E949417CE0182960E94F01BCE01B0
:1048400088960E94F01BC8010E94F01BCE018E9634
:104850000E94F01BCE01C4960E94F01B03CE0E9462
:104860003317882309F423C10E945F202B013C01E8
:104870008091F6069091F706A091F806B091F9069E
:10488000A3019201281B390B4A0B5B0BDA01C9010A
:1048900089399A43A105B105A8F48091F206909157
:1048A000F306A091F406B091F506A3019201281B2E
:1048B000390B4A0B5B0BDA01C90189399A43A1050F
:1048C000B105C8F12091FA0680916E0690916F06AD
:1048D000222371F02CEF3FEF30930A072093090752
:1048E000DC01ED91FC910488F589E02D1995DFC07C
:1048F00020EC2093700610927106DC01ED91FC9182
:104900000280F381E02D42E050E060E776E0199507
:104910004092F2065092F3066092F4067092F50609
:104920004092F6065092F7066092F8067092F906E9
:1049300081E08093FA0680916E0690916F06DC010B
:10494000ED91FC910084F185E02D1995892B09F4F6
:10495000AEC0C8010E94BB085C01892B09F4A5C048
:104960004092F6065092F7066092F8067092F906A9
:1049700080917006807F803309F07BC08091FB06B8
:104980009091FC06892B09F492C0C980D12CF601C4
:10499000E259F94FE380F12CFE2CEE248481E80EDD
:1049A000F11CF601EE58F94F4F01B6016D58794FE1
:1049B000A701CF010E94A52AB7016C0D7D1DDB0167
:1049C000A259B94F14961C92149780917006867064
:1049D0008EAFE091FB06F091FC068230E9F515966A
:1049E0008C91159790E0982F882716962C91AC0102
:1049F000420F511D5DAF4CAF4BEF5FEF4C195D099E
:104A00004E195F094A0D5B1D6B58794FC40119950A
:104A100080E4809370065EAD509371068DAD8093F7
:104A200072069CAD9093730680916E0690916F060E
:104A3000DC01ED91FC910280F381E02D44E050E037
:104A400060E776E019954092F2065092F306609284
:104A5000F4067092F5062BC04DEF5FEF4C195D091F
:104A60004E195F094A0D5B1D6D58794FC4011995A8
:104A70001EC0803CA9F480ED8093700610927106F0
:104A800080916E0690916F06DC01ED91FC910280A1
:104A9000F381E02D42E050E060E776E0199507C031
:104AA000803D29F41092FA0602C00E9433179CE060
:104AB000692E92E0792E29E7A22E25E0B22E39EB5D
:104AC000432E32E0532EC12CD12CF20181909190D3
:104AD0002F0194013327F901EE5FFC4F8491F90116
:104AE000E45AFD4FE490F901EE55FD4FF490FF209C
:104AF000A1F081110E94641FEF2DF0E0EE0FFF1F67
:104B0000E851FD4FA591B491EC91EE2291E080E047
:104B100009F490E0E92EF82E02C0E12CF12CD3012B
:104B20008D919C918E159F0509F442C08091770567
:104B30008823A1F1B601CE0182960E9406186BEC83
:104B400074E0CE0188960E94FE1BBE016E5D7F4F11
:104B5000CE0188960E94AF1B60EE74E00E94961B07
:104B6000BC01C8010E94F51B6EE474E0CE018E9674
:104B70000E94FE1BB801CE018E960E944619CE01FE
:104B80008E960E94F01BC8010E94F01BCE018896F1
:104B90000E94F01BCE0182960E94F01B0E945F20B3
:104BA0006093C9057093CA058093CB059093CC059B
:104BB000E114F10431F4F50180819181892B39F000
:104BC000FAC0D5018D919C91019709F0F4C08091B4
:104BD00077058823A1F1B601CE0182960E940618BE
:104BE00062EE74E0CE0188960E94FE1BBE016E5DEF
:104BF0007F4FCE0188960E94AF1B60EE74E00E944A
:104C0000961BBC01C8010E94F51B6EE474E0CE0146
:104C10008E960E94FE1BB801CE018E960E94461908
:104C2000CE018E960E94F01BC8010E94F01BCE019F
:104C300088960E94F01BCE0182960E94F01B0E9473
:104C40005F202091C9053091CA054091CB05509154
:104C5000CC05DC01CB01821B930BA40BB50BC397D6
:104C6000A105B10508F4A7C0809177058823A1F1BB
:104C7000B601CE0182960E94061865EF74E0CE015F
:104C800088960E94FE1BBE016E5D7F4FCE01889606
:104C90000E94AF1B60EE74E00E94961BBC01C8012D
:104CA0000E94F51B6EE474E0CE018E960E94FE1BFE
:104CB000B801CE018E960E944619CE018E960E94B2
:104CC000F01BC8010E94F01BCE0188960E94F01BC9
:104CD000CE0182960E94F01B0E945F206093C9055E
:104CE0007093CA058093CB059093CC05E114F10431
:104CF00081F565EB73E0C8010E94FE1B63E773E07A
:104D0000CE0188960E94FE1B60E277E0CE01889675
:104D10000E94AF1B68E075E00E94961BB4010E94E0
:104D2000601BBC01CE0182960E94F51BB801CE012A
:104D300082960E949417CE0182960E94F01BCE01AB
:104D400088960E94F01BC8010E94F01B81E090E051
:104D50002FC060EB73E0C8010E94FE1B63E773E0A5
:104D6000CE0188960E94FE1B60E277E0CE01889615
:104D70000E94AF1B68E075E00E94961BB4010E9480
:104D8000601BBC01CE0182960E94F51BB801CE01CA
:104D900082960E949417CE0182960E94F01BCE014B
:104DA00088960E94F01BC8010E94F01B80E090E0F2
:104DB000F50191838083D301ED92FD923D01BFEF18
:104DC000CB1ADB0AE2E0AE0EB11CF8E2CF16D1043A
:104DD00009F07BCE8091780581110E94C00480E0AB
:104DE00090E0892B09F432CB0E9400002BCB68E8BD
:104DF00073E180E090E00E9425202CCDCF92DF92DD
:104E0000EF92FF920F931F93CF93DF93EAE4F6E0C4
:104E10001382128288EEC82E83E0D82EE12CF12C6A
:104E2000C482D582E682F7828DE093E0918380830D
:104E3000E4EBF7E0CBE6D3E0D183C08312821382A8
:104E400014821582EAEBF7E0D183C08312821382C9
:104E500014821582E6E5F6E0D183C08312821382C4
:104E600014821582E0ECF7E0D183C08312821382B2
:104E700014821582E6ECF7E0D183C083128213829C
:104E800014821582ECECF7E0D183C0831282138286
:104E900014821582E2EDF7E0D183C083128213827F
:104EA00014821582E8EDF7E0D183C0831282138269
:104EB00014821582EEEDF7E0D183C0831282138253
:104EC00014821582ECE5F6E0D183C083128213824E
:104ED00014821582ECE2F7E0D183C0831282138240
:104EE00014821582E6E2F7E0D183C08300EC0283EE
:104EF00018EA1383148288EC85836DE075E080E204
:104F000097E00E94FE1BE1E1F7E013821282C48267
:104F1000D582E682F7828DE393E09183808388E0F7
:104F2000848788EE93E096878587ABE0B7E011969B
:104F3000DC93CE9312960C93129713961C931397AF
:104F400014961C9214978AEB15968C93D093FE06B8
:104F5000C093FD061092FF06109200071092010701
:104F6000109202078FEF9FEF90930A078093090733
:104F7000F0936F06E0936E061092080710920707F1
:104F800066ED73E088E696E00E94FE1B66ED73E036
:104F900082E696E0DF91CF911F910F91FF90EF9005
:104FA000DF90CF900C94FE1B1F93FC01992788275C
:104FB000BC01E89411911032E9F3193010F01E3061
:104FC000C8F31B3251F01D3249F4689406C00E94A8
:104FD0000628610F711D811D911D119110531A300A
:104FE000B0F33EF490958095709561957F4F8F4F0B
:104FF0009F4F1F910895BB274A3031F4992322F423
:10500000BDE2909581959F4F0C943E28592F482FD3
:10501000372F262F660F771F881F991F660F771F60
:10502000881F991F620F731F841F951F660F771FBC
:10503000881F991F0895BB27FA01A62F62177105D3
:1050400081059105330B30FB66F0AA27660F771FA9
:10505000881F991FAA1FA21710F0A21B6395385032
:10506000A9F7A05DAA3308F0A95DA19336F7B111A5
:10507000B1931082CA010C945728BB27FB01552716
:10508000AA27880F991FAA1FA41710F0A41B8395A5
:105090005051B9F7A05DAA3308F0A95DA19300971C
:1050A00079F7B111B1931192CB010C945728DC011F
:1050B000FC01672F71917723E1F7329704C07C914F
:1050C0006D9370836291AE17BF07C8F30895A1E294
:1050D0001A2EAA1BBB1BFD010DC0AA1FBB1FEE1F72
:1050E000FF1FA217B307E407F50720F0A21BB30BBD
:1050F000E40BF50B661F771F881F991F1A9469F739
:1051000060957095809590959B01AC01BD01CF0194
:105110000895EE0FFF1F881F8BBF0790F691E02DBB
:1051200019940F931F93CF93DF938230910510F45E
:1051300082E090E0E0915208F091530820E030E0E6
:10514000A0E0B0E0309719F14081518102811381D4
:1051500048175907C8F08417950769F4109731F07C
:1051600012960C93129713961C9327C00093520823
:105170001093530822C02115310519F04217530727
:1051800018F49A01BD01EF01DF01F801DBCF211511
:105190003105F9F0281B390B2430310580F48A8160
:1051A0009B816115710521F0FB019383828304C00B
:1051B0009093530880935208FE01329644C0FE013A
:1051C000E20FF31F81939193225031093983288391
:1051D0003AC02091500830915108232B41F420917E
:1051E0005E0230915F023093510820935008209165
:1051F0005C0230915D022115310541F42DB73EB7B7
:105200004091600250916102241B350BE0915008DF
:10521000F0915108E217F307A0F42E1B3F0B28175B
:10522000390778F0AC014E5F5F4F2417350748F01F
:105230004E0F5F1F509351084093500881939193F4
:1052400002C0E0E0F0E0CF01DF91CF911F910F911C
:105250000895CF93DF93009709F481C0FC01329742
:1052600013821282A0915208B0915308109781F4D2
:1052700020813181820F931F209150083091510875
:105280002817390751F5F0935108E093500867C08B
:10529000ED0120E030E0CE17DF0740F44A815B816A
:1052A0009E0141155105F1F0EA01F5CFD383C28388
:1052B00040815181840F951FC817D90759F48881FF
:1052C0009981840F951F0296918380838A819B81A7
:1052D000938382832115310529F4F0935308E093D9
:1052E00052083DC0E901FB83EA8349915991C40FFB
:1052F000D51FEC17FD0761F480819181840F951F04
:105300000296E90199838883828193819B838A83B2
:10531000E0E0F0E012968D919C911397009719F0C0
:10532000FD01DC01F7CF8D919C9111979D012E5FBE
:105330003F4F820F931F209150083091510828173A
:10534000390769F4309729F41092530810925208E3
:1053500002C013821282B0935108A0935008DF91CB
:10536000CF9108956F927F928F929F92AF92BF924A
:10537000CF92DF92EF92FF920F931F93CF93DF9321
:10538000009789F4CB01DF91CF911F910F91FF908E
:10539000EF90DF90CF90BF90AF909F908F907F90D5
:1053A0006F900C949128FC01E60FF71F9C0122508E
:1053B0003109E217F30708F4A9C0EC01D9010D91F6
:1053C0001C91119706171707B0F00530110508F466
:1053D0009BC0C80104978617970708F495C0025030
:1053E0001109061B170B019311936D937C93CF0149
:1053F0000E94292989C05B01A01AB10A4C01800EC4
:10540000911EA0915208B0915308612C712CE12C8F
:10541000F12C109709F446C08D919C911197A81515
:10542000B905B1F56C0142E0C40ED11CCA14DB040D
:1054300078F14C018A189B08640142E0C40ED11C2B
:105440001296BC9012971396AC91B5E0CB16D1048E
:1054500040F0B282A38391828082D9016D937C93C4
:1054600009C00E5F1F4F800F911FF9019183808348
:10547000EB2DFA2FE114F10431F0D7011396FC93D0
:10548000EE93129741C0F0935308E09352083CC04A
:105490006816790608F43C017D0112960D90BC91C6
:1054A000A02DB7CF80915008909151088816990689
:1054B000E1F466167706C8F480915C0290915D0273
:1054C000009741F48DB79EB7409160025091610200
:1054D000841B950BE817F907C8F4F0935108E09383
:1054E0005008F901718360830FC0CB010E9491289D
:1054F0007C01009759F0A801BE010E949C2ACE01B0
:105500000E942929C70104C0CE0102C080E090E0BA
:10551000DF91CF911F910F91FF90EF90DF90CF908F
:10552000BF90AF909F908F907F906F90089581E093
:1055300090E0F8940C94C62DFB01DC0102C00190B0
:105540000D9241505040D8F708956817790768F4D4
:10555000FB01DC01E40FF51FA40FB51F02C0029090
:105560000E9241505040D8F708950C949C2ADC01CB
:1055700001C06D9341505040E0F70895FB01DC01FC
:105580008D91019080190110D9F3990B0895FB01B9
:10559000DC0101900D920020E1F70895FB01DC0190
:1055A0004150504048F001900D920020C9F701C0D1
:1055B0001D9241505040E0F708950F931F93CF93F1
:1055C000DF93CDB7DEB72E970FB6F894DEBF0FBED0
:1055D000CDBF0E891F8986E08C831A8309838FEFE4
:1055E0009FE79E838D83AE01465E5F4F688D798D08
:1055F000CE0101960E940C2BEF81F885E00FF11F80
:1056000010822E960FB6F894DEBF0FBECDBFDF918D
:10561000CF911F910F9108952F923F924F925F92D9
:105620006F927F928F929F92AF92BF92CF92DF92B2
:10563000EF92FF920F931F93CF93DF93CDB7DEB717
:105640002B970FB6F894DEBF0FBECDBF6C017B0168
:105650008A01FC0117821682838181FFCCC1CE01B1
:1056600001963C01F6019381F70193FD859193FF2B
:1056700081917F01882309F4BAC1853239F493FD01
:10568000859193FF81917F01853229F4B60190E0E5
:105690000E942C2DE7CF912C212C312CFFE1F3150A
:1056A000D8F08B3279F038F4803279F08332A1F47B
:1056B000232D20611DC08D3261F0803369F4232DCC
:1056C000216016C0832D8260382EE32DE4603E2ECB
:1056D0002AC0F32DF8601DC037FC2DC020ED280F27
:1056E0002A3040F08E32B9F436FC81C1232D20647B
:1056F000322E19C036FE06C08AE0989E200D112475
:10570000922E11C0EAE02E9E200D1124222EF32DA0
:10571000F0623F2E08C08C3621F4832D8068382E2D
:1057200002C0883641F4F70193FD859193FF819182
:105730007F018111B3CF982F9F7D9554933028F42A
:105740000C5F1F4F9FE399830DC0833631F0833781
:1057500071F0833509F059C021C0F8018081898337
:105760000E5F1F4F88248394912C530113C028018E
:10577000F2E04F0E511CF801A080B18036FE03C04C
:10578000692D70E002C06FEF7FEFC5010E94212DEF
:105790004C018201F32DFF773F2E16C0280122E035
:1057A000420E511CF801A080B18036FE03C0692D65
:1057B00070E002C06FEF7FEFC5010E94162D4C0113
:1057C000F32DF0683F2E820133FC1BC0822D90E048
:1057D00088169906B0F4B60180E290E00E942C2D64
:1057E0002A94F4CFF50137FC859137FE81915F0152
:1057F000B60190E00E942C2D21102A9421E0821AFB
:1058000091088114910471F7E8C0843611F089364B
:1058100041F5F80137FE07C0608171818281938173
:105820000C5F1F4F08C060817181072E000C880B30
:10583000990B0E5F1F4FF32DFF763F2E97FF09C088
:1058400090958095709561957F4F8F4F9F4FF06831
:105850003F2E2AE030E0A3010E94682D882E861892
:1058600045C0853731F4232D2F7EB22E2AE030E05B
:1058700025C0932D997FB92E8F36C1F018F4883545
:1058800079F0B5C0803719F0883721F0B0C0E92F22
:10589000E061BE2EB4FE0DC0FB2DF460BF2E09C02A
:1058A00034FE0AC0292F2660B22E06C028E030E060
:1058B00005C020E130E002C020E132E0F801B7FE8F
:1058C00007C060817181828193810C5F1F4F06C088
:1058D0006081718180E090E00E5F1F4FA3010E9404
:1058E000682D882E8618FB2DFF773F2E36FE0DC0C3
:1058F000232D2E7FA22E891458F434FE0BC032FCC7
:1059000009C0832D8E7EA82E05C0B82CA32C03C001
:10591000B82C01C0B92CA4FE0FC0FE01E80DF11D8A
:105920008081803321F49A2D997EA92E09C0A2FE90
:1059300006C0B394B39404C08A2D867809F0B3945A
:10594000A3FC11C0A0FE06C0B21488F4280C922C4F
:105950009B180EC0B21460F4B60180E290E00E9481
:105960002C2DB394F7CFB21418F42B1802C0982C36
:10597000212CA4FE10C0B60180E390E00E942C2DE3
:10598000A2FE17C0A1FC03C088E790E002C088E532
:1059900090E0B6010CC08A2D867859F0A1FE02C0B5
:1059A0008BE201C080E2A7FC8DE2B60190E00E948C
:1059B0002C2D891438F4B60180E390E00E942C2D40
:1059C0009A94F7CF8A94F301E80DF11D8081B60116
:1059D00090E00E942C2D8110F5CF222009F442CEB8
:1059E000B60180E290E00E942C2D2A94F6CFF601B9
:1059F0008681978102C08FEF9FEF2B960FB6F894A8
:105A0000DEBF0FBECDBFDF91CF911F910F91FF90F1
:105A1000EF90DF90CF90BF90AF909F908F907F904E
:105A20006F905F904F903F902F900895FC010590EC
:105A3000615070400110D8F7809590958E0F9F1F90
:105A40000895FC016150704001900110D8F78095D5
:105A500090958E0F9F1F08950F931F93CF93DF9301
:105A6000FB01238121FD03C08FEF9FEF2CC022FF9C
:105A700016C046815781248135814217530744F46B
:105A8000A081B1819D012F5F3F4F318320838C9393
:105A9000268137812F5F3F4F3783268314C08B01C8
:105AA000EC01FB010084F185E02D1995892BE1F6CD
:105AB000D80116968D919C911797019617969C93F5
:105AC0008E931697CE01DF91CF911F910F9108957C
:105AD000FA01AA27283051F1203181F1E8946F931F
